{
  "contractName": "Market",
  "abi": [
    {
      "anonymous": false,
      "inputs": [
        {
          "indexed": false,
          "internalType": "address",
          "name": "_owner",
          "type": "address"
        },
        {
          "indexed": false,
          "internalType": "string",
          "name": "_brandName",
          "type": "string"
        }
      ],
      "name": "BrandCreated",
      "type": "event"
    },
    {
      "anonymous": false,
      "inputs": [
        {
          "indexed": false,
          "internalType": "address",
          "name": "_owner",
          "type": "address"
        },
        {
          "indexed": false,
          "internalType": "string",
          "name": "_brandName",
          "type": "string"
        }
      ],
      "name": "BrandDeleted",
      "type": "event"
    },
    {
      "anonymous": false,
      "inputs": [
        {
          "indexed": false,
          "internalType": "address",
          "name": "_manufacturer",
          "type": "address"
        },
        {
          "indexed": true,
          "internalType": "uint256",
          "name": "_productId",
          "type": "uint256"
        },
        {
          "indexed": false,
          "internalType": "uint256",
          "name": "_time",
          "type": "uint256"
        }
      ],
      "name": "ProductCreated",
      "type": "event"
    },
    {
      "anonymous": false,
      "inputs": [
        {
          "indexed": false,
          "internalType": "address",
          "name": "_brandOwner",
          "type": "address"
        },
        {
          "indexed": false,
          "internalType": "address",
          "name": "_revokedBy",
          "type": "address"
        }
      ],
      "name": "brandReportRevoved",
      "type": "event"
    },
    {
      "anonymous": false,
      "inputs": [
        {
          "indexed": false,
          "internalType": "address",
          "name": "_brandOwner",
          "type": "address"
        },
        {
          "indexed": false,
          "internalType": "address",
          "name": "_reportedBy",
          "type": "address"
        }
      ],
      "name": "brandReported",
      "type": "event"
    },
    {
      "anonymous": false,
      "inputs": [
        {
          "indexed": true,
          "internalType": "uint256",
          "name": "_productId",
          "type": "uint256"
        },
        {
          "indexed": false,
          "internalType": "address",
          "name": "_from",
          "type": "address"
        },
        {
          "indexed": false,
          "internalType": "address",
          "name": "_to",
          "type": "address"
        },
        {
          "indexed": false,
          "internalType": "uint256",
          "name": "_price",
          "type": "uint256"
        },
        {
          "indexed": false,
          "internalType": "uint256",
          "name": "_time",
          "type": "uint256"
        }
      ],
      "name": "buySuccess",
      "type": "event"
    },
    {
      "anonymous": false,
      "inputs": [
        {
          "indexed": false,
          "internalType": "uint256",
          "name": "_productId",
          "type": "uint256"
        },
        {
          "indexed": false,
          "internalType": "uint256",
          "name": "_newPrice",
          "type": "uint256"
        }
      ],
      "name": "priceUpdated",
      "type": "event"
    },
    {
      "anonymous": false,
      "inputs": [
        {
          "indexed": false,
          "internalType": "uint256",
          "name": "_productId",
          "type": "uint256"
        }
      ],
      "name": "saleClosed",
      "type": "event"
    },
    {
      "anonymous": false,
      "inputs": [
        {
          "indexed": false,
          "internalType": "uint256",
          "name": "_productId",
          "type": "uint256"
        }
      ],
      "name": "saleStarted",
      "type": "event"
    },
    {
      "inputs": [
        {
          "internalType": "uint256",
          "name": "",
          "type": "uint256"
        }
      ],
      "name": "brandOwners",
      "outputs": [
        {
          "internalType": "address",
          "name": "",
          "type": "address"
        }
      ],
      "stateMutability": "view",
      "type": "function"
    },
    {
      "inputs": [
        {
          "internalType": "address",
          "name": "",
          "type": "address"
        }
      ],
      "name": "brands",
      "outputs": [
        {
          "internalType": "string",
          "name": "brandName",
          "type": "string"
        },
        {
          "internalType": "string",
          "name": "logo",
          "type": "string"
        },
        {
          "internalType": "uint256",
          "name": "reports",
          "type": "uint256"
        }
      ],
      "stateMutability": "view",
      "type": "function"
    },
    {
      "inputs": [
        {
          "internalType": "string",
          "name": "_brandName",
          "type": "string"
        },
        {
          "internalType": "string",
          "name": "_logo",
          "type": "string"
        }
      ],
      "name": "createBrand",
      "outputs": [],
      "stateMutability": "nonpayable",
      "type": "function"
    },
    {
      "inputs": [
        {
          "internalType": "uint256",
          "name": "_mfg",
          "type": "uint256"
        },
        {
          "internalType": "string",
          "name": "_model",
          "type": "string"
        },
        {
          "internalType": "uint256",
          "name": "_price",
          "type": "uint256"
        },
        {
          "internalType": "uint256",
          "name": "_mrp",
          "type": "uint256"
        }
      ],
      "name": "createProduct",
      "outputs": [],
      "stateMutability": "nonpayable",
      "type": "function"
    },
    {
      "inputs": [],
      "name": "getBrandsLength",
      "outputs": [
        {
          "internalType": "uint256",
          "name": "",
          "type": "uint256"
        }
      ],
      "stateMutability": "view",
      "type": "function"
    },
    {
      "inputs": [],
      "name": "productCount",
      "outputs": [
        {
          "internalType": "uint256",
          "name": "",
          "type": "uint256"
        }
      ],
      "stateMutability": "view",
      "type": "function"
    },
    {
      "inputs": [
        {
          "internalType": "uint256",
          "name": "",
          "type": "uint256"
        }
      ],
      "name": "productToOwner",
      "outputs": [
        {
          "internalType": "address",
          "name": "",
          "type": "address"
        }
      ],
      "stateMutability": "view",
      "type": "function"
    },
    {
      "inputs": [
        {
          "internalType": "uint256",
          "name": "",
          "type": "uint256"
        }
      ],
      "name": "products",
      "outputs": [
        {
          "internalType": "address",
          "name": "manufacturer",
          "type": "address"
        },
        {
          "internalType": "string",
          "name": "model",
          "type": "string"
        },
        {
          "internalType": "uint256",
          "name": "mfg",
          "type": "uint256"
        },
        {
          "internalType": "uint256",
          "name": "price",
          "type": "uint256"
        },
        {
          "internalType": "uint256",
          "name": "mrp",
          "type": "uint256"
        },
        {
          "internalType": "bool",
          "name": "forSale",
          "type": "bool"
        }
      ],
      "stateMutability": "view",
      "type": "function"
    },
    {
      "inputs": [
        {
          "internalType": "address",
          "name": "_brandOwner",
          "type": "address"
        }
      ],
      "name": "reportBrand",
      "outputs": [],
      "stateMutability": "nonpayable",
      "type": "function"
    },
    {
      "inputs": [
        {
          "internalType": "address",
          "name": "",
          "type": "address"
        },
        {
          "internalType": "address",
          "name": "",
          "type": "address"
        }
      ],
      "name": "userBrand",
      "outputs": [
        {
          "internalType": "uint256",
          "name": "productCount",
          "type": "uint256"
        },
        {
          "internalType": "bool",
          "name": "hasReported",
          "type": "bool"
        }
      ],
      "stateMutability": "view",
      "type": "function"
    },
    {
      "inputs": [
        {
          "internalType": "uint256",
          "name": "_productId",
          "type": "uint256"
        },
        {
          "internalType": "uint256",
          "name": "_price",
          "type": "uint256"
        }
      ],
      "name": "setPrice",
      "outputs": [],
      "stateMutability": "nonpayable",
      "type": "function"
    },
    {
      "inputs": [
        {
          "internalType": "uint256",
          "name": "_productId",
          "type": "uint256"
        }
      ],
      "name": "openForSale",
      "outputs": [],
      "stateMutability": "nonpayable",
      "type": "function"
    },
    {
      "inputs": [
        {
          "internalType": "uint256",
          "name": "_productId",
          "type": "uint256"
        }
      ],
      "name": "closeForSale",
      "outputs": [],
      "stateMutability": "nonpayable",
      "type": "function"
    },
    {
      "inputs": [
        {
          "internalType": "uint256",
          "name": "_productId",
          "type": "uint256"
        }
      ],
      "name": "buyProduct",
      "outputs": [],
      "stateMutability": "payable",
      "type": "function"
    }
  ],
  "bytecode": "0x608060405234801561001057600080fd5b50611931806100206000396000f3fe6080604052600436106100dd5760003560e01c80638eb05f881161007f578063e0f6ef8711610059578063e0f6ef87146102a1578063e3acfcce146102b6578063f4a44d2d146102d6578063f7d97577146102f657600080fd5b80638eb05f881461024257806393a2abdd14610262578063b3cc8cd91461028157600080fd5b8063420fadc8116100bb578063420fadc8146101985780635b7fd9b5146101ce5780637acc0b20146101fd5780638642269e1461022f57600080fd5b80630349da7e146100e257806315f514161461011f57806316cba8ec14610141575b600080fd5b3480156100ee57600080fd5b506101026100fd3660046113c8565b610316565b6040516001600160a01b0390911681526020015b60405180910390f35b34801561012b57600080fd5b5061013f61013a3660046113c8565b610340565b005b34801561014d57600080fd5b5061018361015c3660046113fd565b60036020908152600092835260408084209091529082529020805460019091015460ff1682565b60408051928352901515602083015201610116565b3480156101a457600080fd5b506101026101b33660046113c8565b6005602052600090815260409020546001600160a01b031681565b3480156101da57600080fd5b506101ee6101e9366004611430565b6103f1565b604051610116939291906114ae565b34801561020957600080fd5b5061021d6102183660046113c8565b610523565b604051610116969594939291906114e4565b61013f61023d3660046113c8565b610601565b34801561024e57600080fd5b5061013f61025d366004611430565b6109ae565b34801561026e57600080fd5b506002545b604051908152602001610116565b34801561028d57600080fd5b5061013f61029c3660046113c8565b610b7f565b3480156102ad57600080fd5b50600454610273565b3480156102c257600080fd5b5061013f6102d13660046115d2565b610c1f565b3480156102e257600080fd5b5061013f6102f1366004611636565b610e9b565b34801561030257600080fd5b5061013f61031136600461168d565b611115565b6002818154811061032657600080fd5b6000918252602090912001546001600160a01b0316905081565b60008181526005602052604090205481906001600160a01b031633146103815760405162461bcd60e51b8152600401610378906116af565b60405180910390fd5b600160048381548110610396576103966116fc565b600091825260209182902060069190910201600501805460ff1916921515929092179091556040518381527f1dc13bd033e49239661ba80e30ae191b1c31c79277b531e88246c7517971b85d91015b60405180910390a15050565b60006020819052908152604090208054819061040c90611712565b80601f016020809104026020016040519081016040528092919081815260200182805461043890611712565b80156104855780601f1061045a57610100808354040283529160200191610485565b820191906000526020600020905b81548152906001019060200180831161046857829003601f168201915b50505050509080600101805461049a90611712565b80601f01602080910402602001604051908101604052809291908181526020018280546104c690611712565b80156105135780601f106104e857610100808354040283529160200191610513565b820191906000526020600020905b8154815290600101906020018083116104f657829003601f168201915b5050505050908060020154905083565b6004818154811061053357600080fd5b6000918252602090912060069091020180546001820180546001600160a01b0390921693509061056290611712565b80601f016020809104026020016040519081016040528092919081815260200182805461058e90611712565b80156105db5780601f106105b0576101008083540402835291602001916105db565b820191906000526020600020905b8154815290600101906020018083116105be57829003601f168201915b505050506002830154600384015460048501546005909501549394919390925060ff1686565b8060048181548110610615576106156116fc565b600091825260209091206005600690920201015460ff16151560011461068b5760405162461bcd60e51b815260206004820152602560248201527f5468652070726f64756374206973206e6f7420617661696c61626c6520666f726044820152642073616c6560d81b6064820152608401610378565b816004818154811061069f5761069f6116fc565b9060005260206000209060060201600301543410156107005760405162461bcd60e51b815260206004820152601c60248201527f54686520616d6f756e74206973206e6f742073756666696369656e74000000006044820152606401610378565b600083815260056020526040902054600480546001600160a01b0390921691339183916108fc919088908110610738576107386116fc565b9060005260206000209060060201600301549081150290604051600060405180830381858888f19350505050158015610775573d6000803e3d6000fd5b50806001600160a01b03166108fc60048781548110610796576107966116fc565b906000526020600020906006020160030154346107b39190611763565b6040518115909202916000818181858888f193505050501580156107db573d6000803e3d6000fd5b50600085815260056020526040812080546001600160a01b03191633179055600480548790811061080e5761080e6116fc565b600091825260208083206006909202909101546001600160a01b0386811684526003835260408085209190921680855292528220805491935090916108528361177a565b90915550506001600160a01b038083166000908152600360209081526040808320938516835292905290812080549161088a83611791565b90915550506001600160a01b038084166000908152600360209081526040808320938516835292905220541580156108ea57506001600160a01b0380841660009081526003602090815260408083209385168352929052206001015460ff165b15610929576001600160a01b038084166000908152600360209081526040808320938516835292905220600101805460ff191690556109298184611235565b857fbfea7f3dffa46bfb8e5718e1dc00a480ee6575f0654bb8e00184518e24435500848460048a81548110610960576109606116fc565b600091825260209182902060036006909202010154604080516001600160a01b03958616815294909316918401919091529082015242606082015260800160405180910390a2505050505050565b3360009081526003602090815260408083206001600160a01b03851684529091529020548190610a505760405162461bcd60e51b815260206004820152604160248201527f596f7520617265207265706f7274696e672061206272616e642062757420796f60448201527f7520646f6e742774206f776e20616e79206f6620697427732070726f647563746064820152607360f81b608482015260a401610378565b3360009081526003602090815260408083206001600160a01b038516845290915290206001015460ff1615610ac75760405162461bcd60e51b815260206004820152601e60248201527f596f752063616e2774207265706f72742061206272616e6420747769636500006044820152606401610378565b3360009081526003602090815260408083206001600160a01b038616845282528083206001908101805460ff19169091179055908290528120600201805491610b0f83611791565b90915550506001600160a01b03821660009081526020819052604090206002908101541115610b4157610b41826112a1565b604080516001600160a01b03841681523360208201527fe7747c1468ca696f832f20cb4db5f557554916e9035754b5b071c3b04a4decb891016103e5565b60008181526005602052604090205481906001600160a01b03163314610bb75760405162461bcd60e51b8152600401610378906116af565b600060048381548110610bcc57610bcc6116fc565b600091825260209182902060069190910201600501805460ff1916921515929092179091556040518381527f6a57706098266f632517e186f276bc17d3bb111568f063b9eb6719717256f83591016103e5565b3360009081526020819052604081208054610c3990611712565b80601f0160208091040260200160405190810160405280929190818152602001828054610c6590611712565b8015610cb25780601f10610c8757610100808354040283529160200191610cb2565b820191906000526020600020905b815481529060010190602001808311610c9557829003601f168201915b505050505090508051600014610d185760405162461bcd60e51b815260206004820152602560248201527f4f776e6572206861732061206272616e64206f6e207468652073616d6520616360448201526418dbdd5b9d60da1b6064820152608401610378565b82600181604051610d2991906117ac565b9081526040519081900360200190205460ff1615610d895760405162461bcd60e51b815260206004820152601960248201527f4272616e64204e616d6520416c726561647920457869737473000000000000006044820152606401610378565b60028054600181019091557f405787fa12a823e0f2b7631cc41b3ba8828b3321ca811111fa75cd3aa3bb5ace0180546001600160a01b03191633908117909155604080516060810182528681526020818101879052600082840181905293845283815291909220825180519192610e059284929091019061132f565b506020828101518051610e1e926001850192019061132f565b506040820151816002015590505060018085604051610e3d91906117ac565b908152604051908190036020018120805492151560ff19909316929092179091557fe6fbc010725b0b71430339ac30f684b21c0b685f04c99a05b107206a8c63a1fa90610e8d90339087906117c8565b60405180910390a150505050565b3360008181526020819052604081208054610eb590611712565b80601f0160208091040260200160405190810160405280929190818152602001828054610ee190611712565b8015610f2e5780601f10610f0357610100808354040283529160200191610f2e565b820191906000526020600020905b815481529060010190602001808311610f1157829003601f168201915b505050505090506000815111610f7f5760405162461bcd60e51b8152602060048201526016602482015275139bdd081848149959da5cdd195c995908109c985b9960521b6044820152606401610378565b6040805160c08101825233815260208082018881529282018990526060820187905260808201869052600160a0830181905260048054918201815560005282517f8a35acfbc15ff81a39ae7d344fd709f28e8600b4aa8c65c6b64bfe7fe36bd19b600690920291820180546001600160a01b0319166001600160a01b039092169190911781559351805193949361103f937f8a35acfbc15ff81a39ae7d344fd709f28e8600b4aa8c65c6b64bfe7fe36bd19c90930192919091019061132f565b506040820151600282015560608201516003820155608082015160048083019190915560a0909201516005909101805460ff19169115159190911790555460009061108c90600190611763565b600081815260056020908152604080832080546001600160a01b0319163390811790915583526003825280832090915281208054929350906110cd83611791565b90915550506040805133815242602082015282917fa119589d8d9d80f8c531968021b54e16e57f459b696c6e16dc14f622a373061b910160405180910390a250505050505050565b60008281526005602052604090205482906001600160a01b0316331461114d5760405162461bcd60e51b8152600401610378906116af565b828260048281548110611162576111626116fc565b9060005260206000209060060201600401548111156111c35760405162461bcd60e51b815260206004820152601b60248201527f5072696365206d757374206265206c657373207468616e204d525000000000006044820152606401610378565b83600486815481106111d7576111d76116fc565b9060005260206000209060060201600301819055507f7a3325b9d11ddc18edd3dff130141b6ce951061520c6b933a604bf701f3d80528585604051611226929190918252602082015260400190565b60405180910390a15050505050565b6001600160a01b038216600090815260208190526040812060020180549161125c8361177a565b9091555050604080516001600160a01b038085168252831660208201527f597f07ee0985d333537a5ddb478b64c0de14188b687ed8225a836d11b55707f891016103e5565b6001600160a01b0381166000908152602081905260409081902090516001916112c9916117f4565b908152604080519182900360209081018320805460ff191690556001600160a01b038416600090815290819052207f8a36be64cb775ce9b5064fb7f6e835793bfff4f4a873dee5d16268132033852f91611324918491611866565b60405180910390a150565b82805461133b90611712565b90600052602060002090601f01602090048101928261135d57600085556113a3565b82601f1061137657805160ff19168380011785556113a3565b828001600101855582156113a3579182015b828111156113a3578251825591602001919060010190611388565b506113af9291506113b3565b5090565b5b808211156113af57600081556001016113b4565b6000602082840312156113da57600080fd5b5035919050565b80356001600160a01b03811681146113f857600080fd5b919050565b6000806040838503121561141057600080fd5b611419836113e1565b9150611427602084016113e1565b90509250929050565b60006020828403121561144257600080fd5b61144b826113e1565b9392505050565b60005b8381101561146d578181015183820152602001611455565b8381111561147c576000848401525b50505050565b6000815180845261149a816020860160208601611452565b601f01601f19169290920160200192915050565b6060815260006114c16060830186611482565b82810360208401526114d38186611482565b915050826040830152949350505050565b6001600160a01b038716815260c06020820181905260009061150890830188611482565b905085604083015284606083015283608083015282151560a0830152979650505050505050565b634e487b7160e01b600052604160045260246000fd5b600082601f83011261155657600080fd5b813567ffffffffffffffff808211156115715761157161152f565b604051601f8301601f19908116603f011681019082821181831017156115995761159961152f565b816040528381528660208588010111156115b257600080fd5b836020870160208301376000602085830101528094505050505092915050565b600080604083850312156115e557600080fd5b823567ffffffffffffffff808211156115fd57600080fd5b61160986838701611545565b9350602085013591508082111561161f57600080fd5b5061162c85828601611545565b9150509250929050565b6000806000806080858703121561164c57600080fd5b84359350602085013567ffffffffffffffff81111561166a57600080fd5b61167687828801611545565b949794965050505060408301359260600135919050565b600080604083850312156116a057600080fd5b50508035926020909101359150565b6020808252602d908201527f4f6e6c792050726f64756374204f776e65722063616e20706572666f726d207460408201526c3434b99037b832b930ba34b7b760991b606082015260800190565b634e487b7160e01b600052603260045260246000fd5b600181811c9082168061172657607f821691505b6020821081141561174757634e487b7160e01b600052602260045260246000fd5b50919050565b634e487b7160e01b600052601160045260246000fd5b6000828210156117755761177561174d565b500390565b6000816117895761178961174d565b506000190190565b60006000198214156117a5576117a561174d565b5060010190565b600082516117be818460208701611452565b9190910192915050565b6001600160a01b03831681526040602082018190526000906117ec90830184611482565b949350505050565b600080835461180281611712565b6001828116801561181a576001811461182b5761185a565b60ff1984168752828701945061185a565b8760005260208060002060005b858110156118515781548a820152908401908201611838565b50505082870194505b50929695505050505050565b60018060a01b0383168152600060206040818401526000845461188881611712565b80604087015260606001808416600081146118aa57600181146118be576118ec565b60ff198516898401526080890195506118ec565b896000528660002060005b858110156118e45781548b82018601529083019088016118c9565b8a0184019650505b5093999850505050505050505056fea2646970667358221220b7f0f17cda3899476a09c5acddd91c7d7251068dfbfe6923b7970285056bd2fb64736f6c634300080c0033",
  "immutableReferences": {},
  "source": "// SPDX-License-Identifier: MIT\npragma solidity ^0.8.0;\n\nimport './ProductFactory.sol';\n\ncontract Market is ProductFactory {\n    event priceUpdated(uint256 _productId, uint256 _newPrice);\n    event saleStarted(uint256 _productId);\n    event saleClosed(uint256 _productId);\n    event buySuccess(\n        uint256 indexed _productId,\n        address _from,\n        address _to,\n        uint256 _price,\n        uint256 _time\n    );\n\n    modifier hasEnoughMoney(uint256 _productId) {\n        require(\n            msg.value >= products[_productId].price,\n            'The amount is not sufficient'\n        );\n        _;\n    }\n\n    function setPrice(uint256 _productId, uint256 _price)\n        public\n        onlyProductOwner(_productId)\n        isValidPrice(_productId, _price)\n    {\n        products[_productId].price = _price;\n        emit priceUpdated(_productId, _price);\n    }\n\n    function openForSale(uint256 _productId)\n        public\n        onlyProductOwner(_productId)\n    {\n        products[_productId].forSale = true;\n        emit saleStarted(_productId);\n    }\n\n    function closeForSale(uint256 _productId)\n        public\n        onlyProductOwner(_productId)\n    {\n        products[_productId].forSale = false;\n        emit saleClosed(_productId);\n    }\n\n    function buyProduct(uint256 _productId)\n        public\n        payable\n        isAvailableForSale(_productId)\n        hasEnoughMoney(_productId)\n    {\n        address payable _seller = payable(productToOwner[_productId]);\n        address payable _buyer = payable(msg.sender);\n        _seller.transfer(products[_productId].price);\n        _buyer.transfer(msg.value - products[_productId].price);\n        productToOwner[_productId] = msg.sender;\n\n        // Report Stuff\n        address _brandOwner = products[_productId].manufacturer;\n        userBrand[_seller][_brandOwner].productCount--;\n        userBrand[_buyer][_brandOwner].productCount++;\n        // If seller has reported the brand and is now selling his last product of that brand\n        if (\n            userBrand[_seller][_brandOwner].productCount == 0 &&\n            userBrand[_seller][_brandOwner].hasReported\n        ) {\n            userBrand[_seller][_brandOwner].hasReported = false;\n            revokeReport(_brandOwner, _seller);\n        }\n\n        emit buySuccess(\n            _productId,\n            _seller,\n            _buyer,\n            products[_productId].price,\n            block.timestamp\n        );\n    }\n}\n",
  "sourcePath": "/mnt/B66886FF6886BE1D/Block Chain/Fake Product Identification System/BuySafe/contracts/Market.sol",
  "compiler": {
    "name": "solc",
    "version": "0.8.12+commit.f00d7308.Emscripten.clang"
  },
  "schemaVersion": "3.4.5",
  "updatedAt": "2022-03-17T19:23:45.870Z",
  "devdoc": {
    "kind": "dev",
    "methods": {},
    "version": 1
  },
  "userdoc": {
    "kind": "user",
    "methods": {},
    "version": 1
  }
}