{
  "contractName": "Brand",
  "abi": [
    {
      "anonymous": false,
      "inputs": [
        {
          "indexed": false,
          "internalType": "address",
          "name": "_owner",
          "type": "address"
        },
        {
          "indexed": false,
          "internalType": "string",
          "name": "_brandName",
          "type": "string"
        }
      ],
      "name": "BrandCreated",
      "type": "event"
    },
    {
      "anonymous": false,
      "inputs": [
        {
          "indexed": false,
          "internalType": "address",
          "name": "_owner",
          "type": "address"
        },
        {
          "indexed": false,
          "internalType": "string",
          "name": "_brandName",
          "type": "string"
        }
      ],
      "name": "BrandDeleted",
      "type": "event"
    },
    {
      "inputs": [
        {
          "internalType": "address",
          "name": "",
          "type": "address"
        }
      ],
      "name": "brands",
      "outputs": [
        {
          "internalType": "string",
          "name": "brandName",
          "type": "string"
        },
        {
          "internalType": "string",
          "name": "logo",
          "type": "string"
        },
        {
          "internalType": "uint256",
          "name": "reports",
          "type": "uint256"
        }
      ],
      "stateMutability": "view",
      "type": "function"
    },
    {
      "inputs": [
        {
          "internalType": "string",
          "name": "_brandName",
          "type": "string"
        },
        {
          "internalType": "string",
          "name": "_logo",
          "type": "string"
        }
      ],
      "name": "createBrand",
      "outputs": [],
      "stateMutability": "nonpayable",
      "type": "function"
    },
    {
      "inputs": [],
      "name": "getBrandsLength",
      "outputs": [
        {
          "internalType": "uint256",
          "name": "",
          "type": "uint256"
        }
      ],
      "stateMutability": "view",
      "type": "function"
    }
  ],
  "bytecode": "0x608060405234801561001057600080fd5b50610765806100206000396000f3fe608060405234801561001057600080fd5b50600436106100415760003560e01c80635b7fd9b51461004657806393a2abdd14610071578063e3acfcce14610082575b600080fd5b6100596100543660046104e3565b610097565b6040516100689392919061056f565b60405180910390f35b600254604051908152602001610068565b610095610090366004610648565b6101c9565b005b6000602081905290815260409020805481906100b2906106ac565b80601f01602080910402602001604051908101604052809291908181526020018280546100de906106ac565b801561012b5780601f106101005761010080835404028352916020019161012b565b820191906000526020600020905b81548152906001019060200180831161010e57829003601f168201915b505050505090806001018054610140906106ac565b80601f016020809104026020016040519081016040528092919081815260200182805461016c906106ac565b80156101b95780601f1061018e576101008083540402835291602001916101b9565b820191906000526020600020905b81548152906001019060200180831161019c57829003601f168201915b5050505050908060020154905083565b33600090815260208190526040812080546101e3906106ac565b80601f016020809104026020016040519081016040528092919081815260200182805461020f906106ac565b801561025c5780601f106102315761010080835404028352916020019161025c565b820191906000526020600020905b81548152906001019060200180831161023f57829003601f168201915b5050505050905080516000146102c75760405162461bcd60e51b815260206004820152602560248201527f4f776e6572206861732061206272616e64206f6e207468652073616d6520616360448201526418dbdd5b9d60da1b60648201526084015b60405180910390fd5b826001816040516102d891906106e7565b9081526040519081900360200190205460ff16156103385760405162461bcd60e51b815260206004820152601960248201527f4272616e64204e616d6520416c7265616479204578697374730000000000000060448201526064016102be565b60028054600181019091557f405787fa12a823e0f2b7631cc41b3ba8828b3321ca811111fa75cd3aa3bb5ace0180546001600160a01b031916339081179091556040805160608101825286815260208181018790526000828401819052938452838152919092208251805191926103b49284929091019061044a565b5060208281015180516103cd926001850192019061044a565b5060408201518160020155905050600180856040516103ec91906106e7565b908152604051908190036020018120805492151560ff19909316929092179091557fe6fbc010725b0b71430339ac30f684b21c0b685f04c99a05b107206a8c63a1fa9061043c9033908790610703565b60405180910390a150505050565b828054610456906106ac565b90600052602060002090601f01602090048101928261047857600085556104be565b82601f1061049157805160ff19168380011785556104be565b828001600101855582156104be579182015b828111156104be5782518255916020019190600101906104a3565b506104ca9291506104ce565b5090565b5b808211156104ca57600081556001016104cf565b6000602082840312156104f557600080fd5b81356001600160a01b038116811461050c57600080fd5b9392505050565b60005b8381101561052e578181015183820152602001610516565b8381111561053d576000848401525b50505050565b6000815180845261055b816020860160208601610513565b601f01601f19169290920160200192915050565b6060815260006105826060830186610543565b82810360208401526105948186610543565b915050826040830152949350505050565b634e487b7160e01b600052604160045260246000fd5b600082601f8301126105cc57600080fd5b813567ffffffffffffffff808211156105e7576105e76105a5565b604051601f8301601f19908116603f0116810190828211818310171561060f5761060f6105a5565b8160405283815286602085880101111561062857600080fd5b836020870160208301376000602085830101528094505050505092915050565b6000806040838503121561065b57600080fd5b823567ffffffffffffffff8082111561067357600080fd5b61067f868387016105bb565b9350602085013591508082111561069557600080fd5b506106a2858286016105bb565b9150509250929050565b600181811c908216806106c057607f821691505b602082108114156106e157634e487b7160e01b600052602260045260246000fd5b50919050565b600082516106f9818460208701610513565b9190910192915050565b6001600160a01b038316815260406020820181905260009061072790830184610543565b94935050505056fea2646970667358221220cb0f4dd252840ad7a76905ebbce86206ceb3236c58026aa8ca745851c519f8c864736f6c634300080c0033",
  "immutableReferences": {},
  "source": "// SPDX-License-Identifier: MIT\npragma solidity ^0.8.0;\n\ncontract Brand {\n    struct Company {\n        string brandName;\n        string logo;\n        uint256 reports;\n    }\n\n    mapping(address => Company) public brands;\n    mapping(string => bool) private exists;\n    address[] brandOwners;\n\n    event BrandCreated(address _owner, string _brandName);\n    event BrandDeleted(address _owner, string _brandName);\n\n    modifier checkBrand(address _owner) {\n        bytes memory temp = bytes(brands[_owner].brandName);\n        require(temp.length > 0, 'Not a Registered Brand');\n        _;\n    }\n\n    modifier checkDoubleBrands() {\n        bytes memory temp = bytes(brands[msg.sender].brandName);\n        require(temp.length == 0, 'Owner has a brand on the same account');\n        _;\n    }\n\n    modifier checkBrandName(string memory _brandName) {\n        require(exists[_brandName] == false, 'Brand Name Already Exists');\n        _;\n    }\n\n    function createBrand(string memory _brandName, string memory _logo)\n        public\n        checkDoubleBrands\n        checkBrandName(_brandName)\n    {\n        brandOwners.push(msg.sender);\n        brands[msg.sender] = Company(_brandName, _logo, 0);\n        exists[_brandName] = true;\n        emit BrandCreated(msg.sender, _brandName);\n    }\n\n    function deleteBrand(address _owner) internal {\n        delete exists[brands[_owner].brandName];\n        emit BrandDeleted(_owner, brands[_owner].brandName);\n    }\n\n    function getBrandsLength() public view returns(uint){\n        return brandOwners.length;\n    }\n}\n",
  "sourcePath": "/mnt/B66886FF6886BE1D/Block Chain/Fake Product Identification System/BuySafe/contracts/Brand.sol",
  "compiler": {
    "name": "solc",
    "version": "0.8.12+commit.f00d7308.Emscripten.clang"
  },
  "schemaVersion": "3.4.5",
  "updatedAt": "2022-03-15T19:48:51.907Z",
  "devdoc": {
    "kind": "dev",
    "methods": {},
    "version": 1
  },
  "userdoc": {
    "kind": "user",
    "methods": {},
    "version": 1
  }
}