{
  "contractName": "Brand",
  "abi": [
    {
      "anonymous": false,
      "inputs": [
        {
          "indexed": false,
          "internalType": "address",
          "name": "_owner",
          "type": "address"
        },
        {
          "indexed": false,
          "internalType": "string",
          "name": "_brandName",
          "type": "string"
        }
      ],
      "name": "BrandCreated",
      "type": "event"
    },
    {
      "anonymous": false,
      "inputs": [
        {
          "indexed": false,
          "internalType": "address",
          "name": "_owner",
          "type": "address"
        },
        {
          "indexed": false,
          "internalType": "string",
          "name": "_brandName",
          "type": "string"
        }
      ],
      "name": "BrandDeleted",
      "type": "event"
    },
    {
      "inputs": [
        {
          "internalType": "uint256",
          "name": "",
          "type": "uint256"
        }
      ],
      "name": "brandOwners",
      "outputs": [
        {
          "internalType": "address",
          "name": "",
          "type": "address"
        }
      ],
      "stateMutability": "view",
      "type": "function"
    },
    {
      "inputs": [
        {
          "internalType": "address",
          "name": "",
          "type": "address"
        }
      ],
      "name": "brands",
      "outputs": [
        {
          "internalType": "string",
          "name": "brandName",
          "type": "string"
        },
        {
          "internalType": "string",
          "name": "logo",
          "type": "string"
        },
        {
          "internalType": "uint256",
          "name": "reports",
          "type": "uint256"
        }
      ],
      "stateMutability": "view",
      "type": "function"
    },
    {
      "inputs": [
        {
          "internalType": "string",
          "name": "_brandName",
          "type": "string"
        },
        {
          "internalType": "string",
          "name": "_logo",
          "type": "string"
        }
      ],
      "name": "createBrand",
      "outputs": [],
      "stateMutability": "nonpayable",
      "type": "function"
    },
    {
      "inputs": [],
      "name": "getBrandsLength",
      "outputs": [
        {
          "internalType": "uint256",
          "name": "",
          "type": "uint256"
        }
      ],
      "stateMutability": "view",
      "type": "function"
    }
  ],
  "bytecode": "0x608060405234801561001057600080fd5b506107da806100206000396000f3fe608060405234801561001057600080fd5b506004361061004c5760003560e01c80630349da7e146100515780635b7fd9b51461008157806393a2abdd146100a3578063e3acfcce146100b4575b600080fd5b61006461005f36600461053f565b6100c9565b6040516001600160a01b0390911681526020015b60405180910390f35b61009461008f366004610558565b6100f3565b604051610078939291906105e4565b600254604051908152602001610078565b6100c76100c23660046106bd565b610225565b005b600281815481106100d957600080fd5b6000918252602090912001546001600160a01b0316905081565b60006020819052908152604090208054819061010e90610721565b80601f016020809104026020016040519081016040528092919081815260200182805461013a90610721565b80156101875780601f1061015c57610100808354040283529160200191610187565b820191906000526020600020905b81548152906001019060200180831161016a57829003601f168201915b50505050509080600101805461019c90610721565b80601f01602080910402602001604051908101604052809291908181526020018280546101c890610721565b80156102155780601f106101ea57610100808354040283529160200191610215565b820191906000526020600020905b8154815290600101906020018083116101f857829003601f168201915b5050505050908060020154905083565b336000908152602081905260408120805461023f90610721565b80601f016020809104026020016040519081016040528092919081815260200182805461026b90610721565b80156102b85780601f1061028d576101008083540402835291602001916102b8565b820191906000526020600020905b81548152906001019060200180831161029b57829003601f168201915b5050505050905080516000146103235760405162461bcd60e51b815260206004820152602560248201527f4f776e6572206861732061206272616e64206f6e207468652073616d6520616360448201526418dbdd5b9d60da1b60648201526084015b60405180910390fd5b82600181604051610334919061075c565b9081526040519081900360200190205460ff16156103945760405162461bcd60e51b815260206004820152601960248201527f4272616e64204e616d6520416c72656164792045786973747300000000000000604482015260640161031a565b60028054600181019091557f405787fa12a823e0f2b7631cc41b3ba8828b3321ca811111fa75cd3aa3bb5ace0180546001600160a01b03191633908117909155604080516060810182528681526020818101879052600082840181905293845283815291909220825180519192610410928492909101906104a6565b50602082810151805161042992600185019201906104a6565b506040820151816002015590505060018085604051610448919061075c565b908152604051908190036020018120805492151560ff19909316929092179091557fe6fbc010725b0b71430339ac30f684b21c0b685f04c99a05b107206a8c63a1fa906104989033908790610778565b60405180910390a150505050565b8280546104b290610721565b90600052602060002090601f0160209004810192826104d4576000855561051a565b82601f106104ed57805160ff191683800117855561051a565b8280016001018555821561051a579182015b8281111561051a5782518255916020019190600101906104ff565b5061052692915061052a565b5090565b5b80821115610526576000815560010161052b565b60006020828403121561055157600080fd5b5035919050565b60006020828403121561056a57600080fd5b81356001600160a01b038116811461058157600080fd5b9392505050565b60005b838110156105a357818101518382015260200161058b565b838111156105b2576000848401525b50505050565b600081518084526105d0816020860160208601610588565b601f01601f19169290920160200192915050565b6060815260006105f760608301866105b8565b828103602084015261060981866105b8565b915050826040830152949350505050565b634e487b7160e01b600052604160045260246000fd5b600082601f83011261064157600080fd5b813567ffffffffffffffff8082111561065c5761065c61061a565b604051601f8301601f19908116603f011681019082821181831017156106845761068461061a565b8160405283815286602085880101111561069d57600080fd5b836020870160208301376000602085830101528094505050505092915050565b600080604083850312156106d057600080fd5b823567ffffffffffffffff808211156106e857600080fd5b6106f486838701610630565b9350602085013591508082111561070a57600080fd5b5061071785828601610630565b9150509250929050565b600181811c9082168061073557607f821691505b6020821081141561075657634e487b7160e01b600052602260045260246000fd5b50919050565b6000825161076e818460208701610588565b9190910192915050565b6001600160a01b038316815260406020820181905260009061079c908301846105b8565b94935050505056fea2646970667358221220b4faf0d96c1967eddfe69898eb916369914d162605d133a7183c72fde38d336064736f6c634300080c0033",
  "immutableReferences": {},
  "source": "// SPDX-License-Identifier: MIT\npragma solidity ^0.8.0;\n\ncontract Brand {\n    struct Company {\n        string brandName;\n        string logo;\n        uint256 reports;\n    }\n\n    mapping(address => Company) public brands;\n    mapping(string => bool) private exists;\n    address[] public brandOwners;\n\n    event BrandCreated(address _owner, string _brandName);\n    event BrandDeleted(address _owner, string _brandName);\n\n    modifier checkBrand(address _owner) {\n        bytes memory temp = bytes(brands[_owner].brandName);\n        require(temp.length > 0, 'Not a Registered Brand');\n        _;\n    }\n\n    modifier checkDoubleBrands() {\n        bytes memory temp = bytes(brands[msg.sender].brandName);\n        require(temp.length == 0, 'Owner has a brand on the same account');\n        _;\n    }\n\n    modifier checkBrandName(string memory _brandName) {\n        require(exists[_brandName] == false, 'Brand Name Already Exists');\n        _;\n    }\n\n    function createBrand(string memory _brandName, string memory _logo)\n        public\n        checkDoubleBrands\n        checkBrandName(_brandName)\n    {\n        brandOwners.push(msg.sender);\n        brands[msg.sender] = Company(_brandName, _logo, 0);\n        exists[_brandName] = true;\n        emit BrandCreated(msg.sender, _brandName);\n    }\n\n    function deleteBrand(address _owner) internal {\n        delete exists[brands[_owner].brandName];\n        emit BrandDeleted(_owner, brands[_owner].brandName);\n    }\n\n    function getBrandsLength() public view returns (uint256) {\n        return brandOwners.length;\n    }\n}\n",
  "sourcePath": "/mnt/B66886FF6886BE1D/Block Chain/Fake Product Identification System/BuySafe/contracts/Brand.sol",
  "compiler": {
    "name": "solc",
    "version": "0.8.12+commit.f00d7308.Emscripten.clang"
  },
  "schemaVersion": "3.4.5",
  "updatedAt": "2022-03-16T15:16:11.746Z",
  "devdoc": {
    "kind": "dev",
    "methods": {},
    "version": 1
  },
  "userdoc": {
    "kind": "user",
    "methods": {},
    "version": 1
  }
}