{
  "contractName": "Brand",
  "abi": [
    {
      "anonymous": false,
      "inputs": [
        {
          "indexed": false,
          "internalType": "address",
          "name": "_owner",
          "type": "address"
        },
        {
          "indexed": false,
          "internalType": "string",
          "name": "_brandName",
          "type": "string"
        }
      ],
      "name": "BrandCreated",
      "type": "event"
    },
    {
      "inputs": [
        {
          "internalType": "address",
          "name": "",
          "type": "address"
        }
      ],
      "name": "brands",
      "outputs": [
        {
          "internalType": "string",
          "name": "",
          "type": "string"
        }
      ],
      "stateMutability": "view",
      "type": "function"
    },
    {
      "inputs": [
        {
          "internalType": "string",
          "name": "_brandName",
          "type": "string"
        }
      ],
      "name": "createBrand",
      "outputs": [],
      "stateMutability": "nonpayable",
      "type": "function"
    }
  ],
  "bytecode": "0x608060405234801561001057600080fd5b506105c7806100206000396000f3fe608060405234801561001057600080fd5b50600436106100365760003560e01c806314a848901461003b5780635b7fd9b514610050575b600080fd5b61004e6100493660046103be565b610079565b005b61006361005e36600461046f565b610275565b60405161007091906104fb565b60405180910390f35b33600090815260208190526040812080546100939061050e565b80601f01602080910402602001604051908101604052809291908181526020018280546100bf9061050e565b801561010c5780601f106100e15761010080835404028352916020019161010c565b820191906000526020600020905b8154815290600101906020018083116100ef57829003601f168201915b5050505050905080516000146101775760405162461bcd60e51b815260206004820152602560248201527f4f776e6572206861732061206272616e64206f6e207468652073616d6520616360448201526418dbdd5b9d60da1b60648201526084015b60405180910390fd5b816001816040516101889190610549565b9081526040519081900360200190205460ff16156101e85760405162461bcd60e51b815260206004820152601960248201527f4272616e64204e616d6520416c72656164792045786973747300000000000000604482015260640161016e565b3360009081526020818152604090912084516102069286019061030f565b50600180846040516102189190610549565b908152604051908190036020018120805492151560ff19909316929092179091557fe6fbc010725b0b71430339ac30f684b21c0b685f04c99a05b107206a8c63a1fa906102689033908690610565565b60405180910390a1505050565b6000602081905290815260409020805461028e9061050e565b80601f01602080910402602001604051908101604052809291908181526020018280546102ba9061050e565b80156103075780601f106102dc57610100808354040283529160200191610307565b820191906000526020600020905b8154815290600101906020018083116102ea57829003601f168201915b505050505081565b82805461031b9061050e565b90600052602060002090601f01602090048101928261033d5760008555610383565b82601f1061035657805160ff1916838001178555610383565b82800160010185558215610383579182015b82811115610383578251825591602001919060010190610368565b5061038f929150610393565b5090565b5b8082111561038f5760008155600101610394565b634e487b7160e01b600052604160045260246000fd5b6000602082840312156103d057600080fd5b813567ffffffffffffffff808211156103e857600080fd5b818401915084601f8301126103fc57600080fd5b81358181111561040e5761040e6103a8565b604051601f8201601f19908116603f01168101908382118183101715610436576104366103a8565b8160405282815287602084870101111561044f57600080fd5b826020860160208301376000928101602001929092525095945050505050565b60006020828403121561048157600080fd5b81356001600160a01b038116811461049857600080fd5b9392505050565b60005b838110156104ba5781810151838201526020016104a2565b838111156104c9576000848401525b50505050565b600081518084526104e781602086016020860161049f565b601f01601f19169290920160200192915050565b60208152600061049860208301846104cf565b600181811c9082168061052257607f821691505b6020821081141561054357634e487b7160e01b600052602260045260246000fd5b50919050565b6000825161055b81846020870161049f565b9190910192915050565b6001600160a01b0383168152604060208201819052600090610589908301846104cf565b94935050505056fea2646970667358221220a7bdea074c3f886548f739cf9cb37ea8539349e12ca2ee2414e6c5cf098a500d64736f6c634300080c0033",
  "immutableReferences": {},
  "source": "// SPDX-License-Identifier: MIT\npragma solidity ^0.8.0;\n\ncontract Brand {\n    mapping(address => string) public brands;\n    mapping(string => bool) private exists;\n\n    event BrandCreated(address _owner, string _brandName);\n\n    modifier checkBrand(address _owner) {\n        bytes memory temp = bytes(brands[_owner]);\n        require(temp.length > 0, 'Not a Registered Brand');\n        _;\n    }\n\n    modifier checkDoubleBrands() {\n        bytes memory temp = bytes(brands[msg.sender]);\n        require(temp.length == 0, 'Owner has a brand on the same account');\n        _;\n    }\n\n    modifier checkBrandName(string memory _brandName) {\n        require(exists[_brandName] == false, 'Brand Name Already Exists');\n        _;\n    }\n\n    function createBrand(string memory _brandName)\n        public\n        checkDoubleBrands\n        checkBrandName(_brandName)\n    {\n        brands[msg.sender] = _brandName;\n        exists[_brandName] = true;\n        emit BrandCreated(msg.sender, _brandName);\n    }\n}\n",
  "sourcePath": "/mnt/B66886FF6886BE1D/Block Chain/Fake Product Identification System/BuySafe/contracts/Brand.sol",
  "compiler": {
    "name": "solc",
    "version": "0.8.12+commit.f00d7308.Emscripten.clang"
  },
  "schemaVersion": "3.4.5",
  "updatedAt": "2022-03-12T13:38:25.565Z",
  "devdoc": {
    "kind": "dev",
    "methods": {},
    "version": 1
  },
  "userdoc": {
    "kind": "user",
    "methods": {},
    "version": 1
  }
}