{
  "contractName": "Market",
  "abi": [
    {
      "anonymous": false,
      "inputs": [
        {
          "indexed": false,
          "internalType": "address",
          "name": "_owner",
          "type": "address"
        },
        {
          "indexed": false,
          "internalType": "string",
          "name": "_brandName",
          "type": "string"
        }
      ],
      "name": "BrandCreated",
      "type": "event"
    },
    {
      "anonymous": false,
      "inputs": [
        {
          "indexed": false,
          "internalType": "address",
          "name": "_owner",
          "type": "address"
        },
        {
          "indexed": false,
          "internalType": "string",
          "name": "_brandName",
          "type": "string"
        }
      ],
      "name": "BrandDeleted",
      "type": "event"
    },
    {
      "anonymous": false,
      "inputs": [
        {
          "indexed": false,
          "internalType": "address",
          "name": "_manufacturer",
          "type": "address"
        },
        {
          "indexed": true,
          "internalType": "uint256",
          "name": "_productId",
          "type": "uint256"
        },
        {
          "indexed": false,
          "internalType": "uint256",
          "name": "_time",
          "type": "uint256"
        }
      ],
      "name": "ProductCreated",
      "type": "event"
    },
    {
      "anonymous": false,
      "inputs": [
        {
          "indexed": false,
          "internalType": "address",
          "name": "_brandOwner",
          "type": "address"
        },
        {
          "indexed": false,
          "internalType": "address",
          "name": "_revokedBy",
          "type": "address"
        }
      ],
      "name": "brandReportRevoved",
      "type": "event"
    },
    {
      "anonymous": false,
      "inputs": [
        {
          "indexed": false,
          "internalType": "address",
          "name": "_brandOwner",
          "type": "address"
        },
        {
          "indexed": false,
          "internalType": "address",
          "name": "_reportedBy",
          "type": "address"
        }
      ],
      "name": "brandReported",
      "type": "event"
    },
    {
      "anonymous": false,
      "inputs": [
        {
          "indexed": true,
          "internalType": "uint256",
          "name": "_productId",
          "type": "uint256"
        },
        {
          "indexed": false,
          "internalType": "address",
          "name": "_from",
          "type": "address"
        },
        {
          "indexed": false,
          "internalType": "address",
          "name": "_to",
          "type": "address"
        },
        {
          "indexed": false,
          "internalType": "uint256",
          "name": "_price",
          "type": "uint256"
        },
        {
          "indexed": false,
          "internalType": "uint256",
          "name": "_time",
          "type": "uint256"
        }
      ],
      "name": "buySuccess",
      "type": "event"
    },
    {
      "anonymous": false,
      "inputs": [
        {
          "indexed": false,
          "internalType": "uint256",
          "name": "_productId",
          "type": "uint256"
        },
        {
          "indexed": false,
          "internalType": "uint256",
          "name": "_newPrice",
          "type": "uint256"
        }
      ],
      "name": "priceUpdated",
      "type": "event"
    },
    {
      "anonymous": false,
      "inputs": [
        {
          "indexed": false,
          "internalType": "uint256",
          "name": "_productId",
          "type": "uint256"
        }
      ],
      "name": "saleClosed",
      "type": "event"
    },
    {
      "anonymous": false,
      "inputs": [
        {
          "indexed": false,
          "internalType": "uint256",
          "name": "_productId",
          "type": "uint256"
        }
      ],
      "name": "saleStarted",
      "type": "event"
    },
    {
      "inputs": [
        {
          "internalType": "uint256",
          "name": "",
          "type": "uint256"
        }
      ],
      "name": "brandOwners",
      "outputs": [
        {
          "internalType": "address",
          "name": "",
          "type": "address"
        }
      ],
      "stateMutability": "view",
      "type": "function",
      "constant": true
    },
    {
      "inputs": [
        {
          "internalType": "address",
          "name": "",
          "type": "address"
        }
      ],
      "name": "brands",
      "outputs": [
        {
          "internalType": "string",
          "name": "brandName",
          "type": "string"
        },
        {
          "internalType": "string",
          "name": "logo",
          "type": "string"
        },
        {
          "internalType": "uint256",
          "name": "reports",
          "type": "uint256"
        }
      ],
      "stateMutability": "view",
      "type": "function",
      "constant": true
    },
    {
      "inputs": [
        {
          "internalType": "address",
          "name": "_brandOwner",
          "type": "address"
        },
        {
          "internalType": "address",
          "name": "_caller",
          "type": "address"
        }
      ],
      "name": "canIReport",
      "outputs": [
        {
          "internalType": "bool",
          "name": "canI",
          "type": "bool"
        },
        {
          "internalType": "string",
          "name": "reason",
          "type": "string"
        }
      ],
      "stateMutability": "view",
      "type": "function",
      "constant": true
    },
    {
      "inputs": [
        {
          "internalType": "string",
          "name": "_brandName",
          "type": "string"
        },
        {
          "internalType": "string",
          "name": "_logo",
          "type": "string"
        }
      ],
      "name": "createBrand",
      "outputs": [],
      "stateMutability": "nonpayable",
      "type": "function"
    },
    {
      "inputs": [
        {
          "internalType": "uint256",
          "name": "_mfg",
          "type": "uint256"
        },
        {
          "internalType": "string",
          "name": "_model",
          "type": "string"
        },
        {
          "internalType": "uint256",
          "name": "_price",
          "type": "uint256"
        },
        {
          "internalType": "uint256",
          "name": "_mrp",
          "type": "uint256"
        }
      ],
      "name": "createProduct",
      "outputs": [],
      "stateMutability": "nonpayable",
      "type": "function"
    },
    {
      "inputs": [],
      "name": "getBrandsLength",
      "outputs": [
        {
          "internalType": "uint256",
          "name": "",
          "type": "uint256"
        }
      ],
      "stateMutability": "view",
      "type": "function",
      "constant": true
    },
    {
      "inputs": [],
      "name": "productCount",
      "outputs": [
        {
          "internalType": "uint256",
          "name": "",
          "type": "uint256"
        }
      ],
      "stateMutability": "view",
      "type": "function",
      "constant": true
    },
    {
      "inputs": [
        {
          "internalType": "uint256",
          "name": "",
          "type": "uint256"
        }
      ],
      "name": "productToOwner",
      "outputs": [
        {
          "internalType": "address",
          "name": "",
          "type": "address"
        }
      ],
      "stateMutability": "view",
      "type": "function",
      "constant": true
    },
    {
      "inputs": [
        {
          "internalType": "uint256",
          "name": "",
          "type": "uint256"
        }
      ],
      "name": "products",
      "outputs": [
        {
          "internalType": "address",
          "name": "manufacturer",
          "type": "address"
        },
        {
          "internalType": "string",
          "name": "model",
          "type": "string"
        },
        {
          "internalType": "uint256",
          "name": "mfg",
          "type": "uint256"
        },
        {
          "internalType": "uint256",
          "name": "price",
          "type": "uint256"
        },
        {
          "internalType": "uint256",
          "name": "mrp",
          "type": "uint256"
        },
        {
          "internalType": "bool",
          "name": "forSale",
          "type": "bool"
        }
      ],
      "stateMutability": "view",
      "type": "function",
      "constant": true
    },
    {
      "inputs": [
        {
          "internalType": "address",
          "name": "_brandOwner",
          "type": "address"
        }
      ],
      "name": "reportBrand",
      "outputs": [],
      "stateMutability": "nonpayable",
      "type": "function"
    },
    {
      "inputs": [
        {
          "internalType": "address",
          "name": "",
          "type": "address"
        },
        {
          "internalType": "address",
          "name": "",
          "type": "address"
        }
      ],
      "name": "userBrand",
      "outputs": [
        {
          "internalType": "uint256",
          "name": "productCount",
          "type": "uint256"
        },
        {
          "internalType": "bool",
          "name": "hasReported",
          "type": "bool"
        }
      ],
      "stateMutability": "view",
      "type": "function",
      "constant": true
    },
    {
      "inputs": [
        {
          "internalType": "uint256",
          "name": "_productId",
          "type": "uint256"
        },
        {
          "internalType": "uint256",
          "name": "_price",
          "type": "uint256"
        }
      ],
      "name": "setPrice",
      "outputs": [],
      "stateMutability": "nonpayable",
      "type": "function"
    },
    {
      "inputs": [
        {
          "internalType": "uint256",
          "name": "_productId",
          "type": "uint256"
        }
      ],
      "name": "openForSale",
      "outputs": [],
      "stateMutability": "nonpayable",
      "type": "function"
    },
    {
      "inputs": [
        {
          "internalType": "uint256",
          "name": "_productId",
          "type": "uint256"
        }
      ],
      "name": "closeForSale",
      "outputs": [],
      "stateMutability": "nonpayable",
      "type": "function"
    },
    {
      "inputs": [
        {
          "internalType": "uint256",
          "name": "_productId",
          "type": "uint256"
        }
      ],
      "name": "buyProduct",
      "outputs": [],
      "stateMutability": "payable",
      "type": "function",
      "payable": true
    }
  ],
  "bytecode": "0x608060405234801561001057600080fd5b50611a74806100206000396000f3fe6080604052600436106100e85760003560e01c80638eb05f881161008a578063e0f6ef8711610059578063e0f6ef87146102da578063e3acfcce146102ef578063f4a44d2d1461030f578063f7d975771461032f57600080fd5b80638eb05f881461024d57806393a2abdd1461026d578063b3cc8cd91461028c578063ca86c637146102ac57600080fd5b8063420fadc8116100c6578063420fadc8146101a35780635b7fd9b5146101d95780637acc0b20146102085780638642269e1461023a57600080fd5b80630349da7e146100ed57806315f514161461012a57806316cba8ec1461014c575b600080fd5b3480156100f957600080fd5b5061010d6101083660046114f0565b61034f565b6040516001600160a01b0390911681526020015b60405180910390f35b34801561013657600080fd5b5061014a6101453660046114f0565b610379565b005b34801561015857600080fd5b5061018e610167366004611525565b60036020908152600092835260408084209091529082529020805460019091015460ff1682565b60408051928352901515602083015201610121565b3480156101af57600080fd5b5061010d6101be3660046114f0565b6005602052600090815260409020546001600160a01b031681565b3480156101e557600080fd5b506101f96101f4366004611558565b61042a565b604051610121939291906115d6565b34801561021457600080fd5b506102286102233660046114f0565b61055c565b6040516101219695949392919061160c565b61014a6102483660046114f0565b61063a565b34801561025957600080fd5b5061014a610268366004611558565b6109e7565b34801561027957600080fd5b506002545b604051908152602001610121565b34801561029857600080fd5b5061014a6102a73660046114f0565b610bb8565b3480156102b857600080fd5b506102cc6102c7366004611525565b610c58565b604051610121929190611657565b3480156102e657600080fd5b5060045461027e565b3480156102fb57600080fd5b5061014a61030a36600461171d565b610d47565b34801561031b57600080fd5b5061014a61032a366004611781565b610fc3565b34801561033b57600080fd5b5061014a61034a3660046117d8565b61123d565b6002818154811061035f57600080fd5b6000918252602090912001546001600160a01b0316905081565b60008181526005602052604090205481906001600160a01b031633146103ba5760405162461bcd60e51b81526004016103b1906117fa565b60405180910390fd5b6001600483815481106103cf576103cf611847565b600091825260209182902060069190910201600501805460ff1916921515929092179091556040518381527f1dc13bd033e49239661ba80e30ae191b1c31c79277b531e88246c7517971b85d91015b60405180910390a15050565b6000602081905290815260409020805481906104459061185d565b80601f01602080910402602001604051908101604052809291908181526020018280546104719061185d565b80156104be5780601f10610493576101008083540402835291602001916104be565b820191906000526020600020905b8154815290600101906020018083116104a157829003601f168201915b5050505050908060010180546104d39061185d565b80601f01602080910402602001604051908101604052809291908181526020018280546104ff9061185d565b801561054c5780601f106105215761010080835404028352916020019161054c565b820191906000526020600020905b81548152906001019060200180831161052f57829003601f168201915b5050505050908060020154905083565b6004818154811061056c57600080fd5b6000918252602090912060069091020180546001820180546001600160a01b0390921693509061059b9061185d565b80601f01602080910402602001604051908101604052809291908181526020018280546105c79061185d565b80156106145780601f106105e957610100808354040283529160200191610614565b820191906000526020600020905b8154815290600101906020018083116105f757829003601f168201915b505050506002830154600384015460048501546005909501549394919390925060ff1686565b806004818154811061064e5761064e611847565b600091825260209091206005600690920201015460ff1615156001146106c45760405162461bcd60e51b815260206004820152602560248201527f5468652070726f64756374206973206e6f7420617661696c61626c6520666f726044820152642073616c6560d81b60648201526084016103b1565b81600481815481106106d8576106d8611847565b9060005260206000209060060201600301543410156107395760405162461bcd60e51b815260206004820152601c60248201527f54686520616d6f756e74206973206e6f742073756666696369656e740000000060448201526064016103b1565b600083815260056020526040902054600480546001600160a01b0390921691339183916108fc91908890811061077157610771611847565b9060005260206000209060060201600301549081150290604051600060405180830381858888f193505050501580156107ae573d6000803e3d6000fd5b50806001600160a01b03166108fc600487815481106107cf576107cf611847565b906000526020600020906006020160030154346107ec91906118ae565b6040518115909202916000818181858888f19350505050158015610814573d6000803e3d6000fd5b50600085815260056020526040812080546001600160a01b03191633179055600480548790811061084757610847611847565b600091825260208083206006909202909101546001600160a01b03868116845260038352604080852091909216808552925282208054919350909161088b836118c5565b90915550506001600160a01b03808316600090815260036020908152604080832093851683529290529081208054916108c3836118dc565b90915550506001600160a01b0380841660009081526003602090815260408083209385168352929052205415801561092357506001600160a01b0380841660009081526003602090815260408083209385168352929052206001015460ff165b15610962576001600160a01b038084166000908152600360209081526040808320938516835292905220600101805460ff19169055610962818461135d565b857fbfea7f3dffa46bfb8e5718e1dc00a480ee6575f0654bb8e00184518e24435500848460048a8154811061099957610999611847565b600091825260209182902060036006909202010154604080516001600160a01b03958616815294909316918401919091529082015242606082015260800160405180910390a2505050505050565b3360009081526003602090815260408083206001600160a01b03851684529091529020548190610a895760405162461bcd60e51b815260206004820152604160248201527f596f7520617265207265706f7274696e672061206272616e642062757420796f60448201527f7520646f6e742774206f776e20616e79206f6620697427732070726f647563746064820152607360f81b608482015260a4016103b1565b3360009081526003602090815260408083206001600160a01b038516845290915290206001015460ff1615610b005760405162461bcd60e51b815260206004820152601e60248201527f596f752063616e2774207265706f72742061206272616e64207477696365000060448201526064016103b1565b3360009081526003602090815260408083206001600160a01b038616845282528083206001908101805460ff19169091179055908290528120600201805491610b48836118dc565b90915550506001600160a01b03821660009081526020819052604090206002908101541115610b7a57610b7a826113c9565b604080516001600160a01b03841681523360208201527fe7747c1468ca696f832f20cb4db5f557554916e9035754b5b071c3b04a4decb8910161041e565b60008181526005602052604090205481906001600160a01b03163314610bf05760405162461bcd60e51b81526004016103b1906117fa565b600060048381548110610c0557610c05611847565b600091825260209182902060069190910201600501805460ff1916921515929092179091556040518381527f6a57706098266f632517e186f276bc17d3bb111568f063b9eb6719717256f835910161041e565b6001600160a01b038082166000908152600360209081526040808320938616835292905290812054606090610cb657505060408051808201909152600e81526d466972737420507572636861736560901b6020820152600090610d40565b6001600160a01b03808416600090815260036020908152604080832093881683529290522060019081015460ff1615151415610d1d57505060408051808201909152601081526f105b1c9958591e4814995c1bdc9d195960821b6020820152600090610d40565b505060408051808201909152600681526514995c1bdc9d60d21b60208201526001905b9250929050565b3360009081526020819052604081208054610d619061185d565b80601f0160208091040260200160405190810160405280929190818152602001828054610d8d9061185d565b8015610dda5780601f10610daf57610100808354040283529160200191610dda565b820191906000526020600020905b815481529060010190602001808311610dbd57829003601f168201915b505050505090508051600014610e405760405162461bcd60e51b815260206004820152602560248201527f4f776e6572206861732061206272616e64206f6e207468652073616d6520616360448201526418dbdd5b9d60da1b60648201526084016103b1565b82600181604051610e5191906118f7565b9081526040519081900360200190205460ff1615610eb15760405162461bcd60e51b815260206004820152601960248201527f4272616e64204e616d6520416c7265616479204578697374730000000000000060448201526064016103b1565b60028054600181019091557f405787fa12a823e0f2b7631cc41b3ba8828b3321ca811111fa75cd3aa3bb5ace0180546001600160a01b03191633908117909155604080516060810182528681526020818101879052600082840181905293845283815291909220825180519192610f2d92849290910190611457565b506020828101518051610f469260018501920190611457565b506040820151816002015590505060018085604051610f6591906118f7565b908152604051908190036020018120805492151560ff19909316929092179091557fe6fbc010725b0b71430339ac30f684b21c0b685f04c99a05b107206a8c63a1fa90610fb59033908790611913565b60405180910390a150505050565b3360008181526020819052604081208054610fdd9061185d565b80601f01602080910402602001604051908101604052809291908181526020018280546110099061185d565b80156110565780601f1061102b57610100808354040283529160200191611056565b820191906000526020600020905b81548152906001019060200180831161103957829003601f168201915b5050505050905060008151116110a75760405162461bcd60e51b8152602060048201526016602482015275139bdd081848149959da5cdd195c995908109c985b9960521b60448201526064016103b1565b6040805160c08101825233815260208082018881529282018990526060820187905260808201869052600160a0830181905260048054918201815560005282517f8a35acfbc15ff81a39ae7d344fd709f28e8600b4aa8c65c6b64bfe7fe36bd19b600690920291820180546001600160a01b0319166001600160a01b0390921691909117815593518051939493611167937f8a35acfbc15ff81a39ae7d344fd709f28e8600b4aa8c65c6b64bfe7fe36bd19c909301929190910190611457565b506040820151600282015560608201516003820155608082015160048083019190915560a0909201516005909101805460ff1916911515919091179055546000906111b4906001906118ae565b600081815260056020908152604080832080546001600160a01b0319163390811790915583526003825280832090915281208054929350906111f5836118dc565b90915550506040805133815242602082015282917fa119589d8d9d80f8c531968021b54e16e57f459b696c6e16dc14f622a373061b910160405180910390a250505050505050565b60008281526005602052604090205482906001600160a01b031633146112755760405162461bcd60e51b81526004016103b1906117fa565b82826004828154811061128a5761128a611847565b9060005260206000209060060201600401548111156112eb5760405162461bcd60e51b815260206004820152601b60248201527f5072696365206d757374206265206c657373207468616e204d5250000000000060448201526064016103b1565b83600486815481106112ff576112ff611847565b9060005260206000209060060201600301819055507f7a3325b9d11ddc18edd3dff130141b6ce951061520c6b933a604bf701f3d8052858560405161134e929190918252602082015260400190565b60405180910390a15050505050565b6001600160a01b0382166000908152602081905260408120600201805491611384836118c5565b9091555050604080516001600160a01b038085168252831660208201527f597f07ee0985d333537a5ddb478b64c0de14188b687ed8225a836d11b55707f8910161041e565b6001600160a01b0381166000908152602081905260409081902090516001916113f191611937565b908152604080519182900360209081018320805460ff191690556001600160a01b038416600090815290819052207f8a36be64cb775ce9b5064fb7f6e835793bfff4f4a873dee5d16268132033852f9161144c9184916119a9565b60405180910390a150565b8280546114639061185d565b90600052602060002090601f01602090048101928261148557600085556114cb565b82601f1061149e57805160ff19168380011785556114cb565b828001600101855582156114cb579182015b828111156114cb5782518255916020019190600101906114b0565b506114d79291506114db565b5090565b5b808211156114d757600081556001016114dc565b60006020828403121561150257600080fd5b5035919050565b80356001600160a01b038116811461152057600080fd5b919050565b6000806040838503121561153857600080fd5b61154183611509565b915061154f60208401611509565b90509250929050565b60006020828403121561156a57600080fd5b61157382611509565b9392505050565b60005b8381101561159557818101518382015260200161157d565b838111156115a4576000848401525b50505050565b600081518084526115c281602086016020860161157a565b601f01601f19169290920160200192915050565b6060815260006115e960608301866115aa565b82810360208401526115fb81866115aa565b915050826040830152949350505050565b6001600160a01b038716815260c060208201819052600090611630908301886115aa565b905085604083015284606083015283608083015282151560a0830152979650505050505050565b821515815260406020820152600061167260408301846115aa565b949350505050565b634e487b7160e01b600052604160045260246000fd5b600082601f8301126116a157600080fd5b813567ffffffffffffffff808211156116bc576116bc61167a565b604051601f8301601f19908116603f011681019082821181831017156116e4576116e461167a565b816040528381528660208588010111156116fd57600080fd5b836020870160208301376000602085830101528094505050505092915050565b6000806040838503121561173057600080fd5b823567ffffffffffffffff8082111561174857600080fd5b61175486838701611690565b9350602085013591508082111561176a57600080fd5b5061177785828601611690565b9150509250929050565b6000806000806080858703121561179757600080fd5b84359350602085013567ffffffffffffffff8111156117b557600080fd5b6117c187828801611690565b949794965050505060408301359260600135919050565b600080604083850312156117eb57600080fd5b50508035926020909101359150565b6020808252602d908201527f4f6e6c792050726f64756374204f776e65722063616e20706572666f726d207460408201526c3434b99037b832b930ba34b7b760991b606082015260800190565b634e487b7160e01b600052603260045260246000fd5b600181811c9082168061187157607f821691505b6020821081141561189257634e487b7160e01b600052602260045260246000fd5b50919050565b634e487b7160e01b600052601160045260246000fd5b6000828210156118c0576118c0611898565b500390565b6000816118d4576118d4611898565b506000190190565b60006000198214156118f0576118f0611898565b5060010190565b6000825161190981846020870161157a565b9190910192915050565b6001600160a01b0383168152604060208201819052600090611672908301846115aa565b60008083546119458161185d565b6001828116801561195d576001811461196e5761199d565b60ff1984168752828701945061199d565b8760005260208060002060005b858110156119945781548a82015290840190820161197b565b50505082870194505b50929695505050505050565b60018060a01b038316815260006020604081840152600084546119cb8161185d565b80604087015260606001808416600081146119ed5760018114611a0157611a2f565b60ff19851689840152608089019550611a2f565b896000528660002060005b85811015611a275781548b8201860152908301908801611a0c565b8a0184019650505b5093999850505050505050505056fea26469706673582212201b13761fd487558f5df1a1371e42ca9a1496535eb13b7935135cf2ed2724325a64736f6c634300080c0033",
  "immutableReferences": {},
  "source": "// SPDX-License-Identifier: MIT\npragma solidity ^0.8.0;\n\nimport './ProductFactory.sol';\n\ncontract Market is ProductFactory {\n    event priceUpdated(uint256 _productId, uint256 _newPrice);\n    event saleStarted(uint256 _productId);\n    event saleClosed(uint256 _productId);\n    event buySuccess(\n        uint256 indexed _productId,\n        address _from,\n        address _to,\n        uint256 _price,\n        uint256 _time\n    );\n\n    modifier hasEnoughMoney(uint256 _productId) {\n        require(\n            msg.value >= products[_productId].price,\n            'The amount is not sufficient'\n        );\n        _;\n    }\n\n    function setPrice(uint256 _productId, uint256 _price)\n        public\n        onlyProductOwner(_productId)\n        isValidPrice(_productId, _price)\n    {\n        products[_productId].price = _price;\n        emit priceUpdated(_productId, _price);\n    }\n\n    function openForSale(uint256 _productId)\n        public\n        onlyProductOwner(_productId)\n    {\n        products[_productId].forSale = true;\n        emit saleStarted(_productId);\n    }\n\n    function closeForSale(uint256 _productId)\n        public\n        onlyProductOwner(_productId)\n    {\n        products[_productId].forSale = false;\n        emit saleClosed(_productId);\n    }\n\n    function buyProduct(uint256 _productId)\n        public\n        payable\n        isAvailableForSale(_productId)\n        hasEnoughMoney(_productId)\n    {\n        address payable _seller = payable(productToOwner[_productId]);\n        address payable _buyer = payable(msg.sender);\n        _seller.transfer(products[_productId].price);\n        _buyer.transfer(msg.value - products[_productId].price);\n        productToOwner[_productId] = msg.sender;\n\n        // Report Stuff\n        address _brandOwner = products[_productId].manufacturer;\n        userBrand[_seller][_brandOwner].productCount--;\n        userBrand[_buyer][_brandOwner].productCount++;\n        // If seller has reported the brand and is now selling his last product of that brand\n        if (\n            userBrand[_seller][_brandOwner].productCount == 0 &&\n            userBrand[_seller][_brandOwner].hasReported\n        ) {\n            userBrand[_seller][_brandOwner].hasReported = false;\n            revokeReport(_brandOwner, _seller);\n        }\n\n        emit buySuccess(\n            _productId,\n            _seller,\n            _buyer,\n            products[_productId].price,\n            block.timestamp\n        );\n    }\n}\n",
  "sourcePath": "/mnt/B66886FF6886BE1D/Block Chain/Fake Product Identification System/BuySafe/contracts/Market.sol",
  "compiler": {
    "name": "solc",
    "version": "0.8.12+commit.f00d7308.Emscripten.clang"
  },
  "schemaVersion": "3.4.7",
  "updatedAt": "2022-05-07T18:06:23.235Z",
  "networkType": "ethereum",
  "devdoc": {
    "kind": "dev",
    "methods": {},
    "version": 1
  },
  "userdoc": {
    "kind": "user",
    "methods": {},
    "version": 1
  }
}