{
  "contractName": "Market",
  "abi": [
    {
      "anonymous": false,
      "inputs": [
        {
          "indexed": false,
          "internalType": "address",
          "name": "_owner",
          "type": "address"
        },
        {
          "indexed": false,
          "internalType": "string",
          "name": "_brandName",
          "type": "string"
        }
      ],
      "name": "BrandCreated",
      "type": "event"
    },
    {
      "anonymous": false,
      "inputs": [
        {
          "indexed": false,
          "internalType": "address",
          "name": "_manufacturer",
          "type": "address"
        },
        {
          "indexed": false,
          "internalType": "uint256",
          "name": "_productId",
          "type": "uint256"
        }
      ],
      "name": "ProductCreated",
      "type": "event"
    },
    {
      "anonymous": false,
      "inputs": [
        {
          "indexed": false,
          "internalType": "uint256",
          "name": "_productId",
          "type": "uint256"
        },
        {
          "indexed": false,
          "internalType": "address",
          "name": "_from",
          "type": "address"
        },
        {
          "indexed": false,
          "internalType": "address",
          "name": "_to",
          "type": "address"
        },
        {
          "indexed": false,
          "internalType": "uint256",
          "name": "_price",
          "type": "uint256"
        }
      ],
      "name": "buySuccess",
      "type": "event"
    },
    {
      "anonymous": false,
      "inputs": [
        {
          "indexed": false,
          "internalType": "uint256",
          "name": "_productId",
          "type": "uint256"
        },
        {
          "indexed": false,
          "internalType": "uint256",
          "name": "_newPrice",
          "type": "uint256"
        }
      ],
      "name": "priceUpdated",
      "type": "event"
    },
    {
      "anonymous": false,
      "inputs": [
        {
          "indexed": false,
          "internalType": "uint256",
          "name": "_productId",
          "type": "uint256"
        }
      ],
      "name": "saleClosed",
      "type": "event"
    },
    {
      "anonymous": false,
      "inputs": [
        {
          "indexed": false,
          "internalType": "uint256",
          "name": "_productId",
          "type": "uint256"
        }
      ],
      "name": "saleStarted",
      "type": "event"
    },
    {
      "inputs": [
        {
          "internalType": "address",
          "name": "",
          "type": "address"
        }
      ],
      "name": "brands",
      "outputs": [
        {
          "internalType": "string",
          "name": "",
          "type": "string"
        }
      ],
      "stateMutability": "view",
      "type": "function",
      "constant": true
    },
    {
      "inputs": [
        {
          "internalType": "string",
          "name": "_brandName",
          "type": "string"
        }
      ],
      "name": "createBrand",
      "outputs": [],
      "stateMutability": "nonpayable",
      "type": "function"
    },
    {
      "inputs": [
        {
          "internalType": "uint256",
          "name": "_mfg",
          "type": "uint256"
        },
        {
          "internalType": "string",
          "name": "_model",
          "type": "string"
        },
        {
          "internalType": "uint256",
          "name": "_price",
          "type": "uint256"
        },
        {
          "internalType": "uint256",
          "name": "_mrp",
          "type": "uint256"
        }
      ],
      "name": "createProduct",
      "outputs": [],
      "stateMutability": "nonpayable",
      "type": "function"
    },
    {
      "inputs": [],
      "name": "productCount",
      "outputs": [
        {
          "internalType": "uint256",
          "name": "",
          "type": "uint256"
        }
      ],
      "stateMutability": "view",
      "type": "function",
      "constant": true
    },
    {
      "inputs": [
        {
          "internalType": "uint256",
          "name": "",
          "type": "uint256"
        }
      ],
      "name": "productToOwner",
      "outputs": [
        {
          "internalType": "address",
          "name": "",
          "type": "address"
        }
      ],
      "stateMutability": "view",
      "type": "function",
      "constant": true
    },
    {
      "inputs": [
        {
          "internalType": "uint256",
          "name": "",
          "type": "uint256"
        }
      ],
      "name": "products",
      "outputs": [
        {
          "internalType": "address",
          "name": "manufacturer",
          "type": "address"
        },
        {
          "internalType": "string",
          "name": "model",
          "type": "string"
        },
        {
          "internalType": "uint256",
          "name": "mfg",
          "type": "uint256"
        },
        {
          "internalType": "uint256",
          "name": "price",
          "type": "uint256"
        },
        {
          "internalType": "uint256",
          "name": "mrp",
          "type": "uint256"
        },
        {
          "internalType": "bool",
          "name": "forSale",
          "type": "bool"
        }
      ],
      "stateMutability": "view",
      "type": "function",
      "constant": true
    },
    {
      "inputs": [
        {
          "internalType": "uint256",
          "name": "_productId",
          "type": "uint256"
        },
        {
          "internalType": "uint256",
          "name": "_price",
          "type": "uint256"
        }
      ],
      "name": "setPrice",
      "outputs": [],
      "stateMutability": "nonpayable",
      "type": "function"
    },
    {
      "inputs": [
        {
          "internalType": "uint256",
          "name": "_productId",
          "type": "uint256"
        }
      ],
      "name": "openForSale",
      "outputs": [],
      "stateMutability": "nonpayable",
      "type": "function"
    },
    {
      "inputs": [
        {
          "internalType": "uint256",
          "name": "_productId",
          "type": "uint256"
        }
      ],
      "name": "closeForSale",
      "outputs": [],
      "stateMutability": "nonpayable",
      "type": "function"
    },
    {
      "inputs": [
        {
          "internalType": "uint256",
          "name": "_productId",
          "type": "uint256"
        }
      ],
      "name": "buyProduct",
      "outputs": [],
      "stateMutability": "payable",
      "type": "function",
      "payable": true
    }
  ],
  "bytecode": "0x608060405234801561001057600080fd5b506110f4806100206000396000f3fe6080604052600436106100915760003560e01c80638642269e116100595780638642269e1461018a578063b3cc8cd91461019d578063e0f6ef87146101bd578063f4a44d2d146101db578063f7d97577146101fb57600080fd5b806314a848901461009657806315f51416146100b8578063420fadc8146100d85780635b7fd9b51461012b5780637acc0b2014610158575b600080fd5b3480156100a257600080fd5b506100b66100b1366004610e02565b61021b565b005b3480156100c457600080fd5b506100b66100d3366004610e3f565b610417565b3480156100e457600080fd5b5061010e6100f3366004610e3f565b6003602052600090815260409020546001600160a01b031681565b6040516001600160a01b0390911681526020015b60405180910390f35b34801561013757600080fd5b5061014b610146366004610e58565b6104bf565b6040516101229190610ee4565b34801561016457600080fd5b50610178610173366004610e3f565b610559565b60405161012296959493929190610ef7565b6100b6610198366004610e3f565b610637565b3480156101a957600080fd5b506100b66101b8366004610e3f565b6108bd565b3480156101c957600080fd5b50600254604051908152602001610122565b3480156101e757600080fd5b506100b66101f6366004610f42565b61095d565b34801561020757600080fd5b506100b6610216366004610f99565b610bb5565b336000908152602081905260408120805461023590610fbb565b80601f016020809104026020016040519081016040528092919081815260200182805461026190610fbb565b80156102ae5780601f10610283576101008083540402835291602001916102ae565b820191906000526020600020905b81548152906001019060200180831161029157829003601f168201915b5050505050905080516000146103195760405162461bcd60e51b815260206004820152602560248201527f4f776e6572206861732061206272616e64206f6e207468652073616d6520616360448201526418dbdd5b9d60da1b60648201526084015b60405180910390fd5b8160018160405161032a9190610ff6565b9081526040519081900360200190205460ff161561038a5760405162461bcd60e51b815260206004820152601960248201527f4272616e64204e616d6520416c726561647920457869737473000000000000006044820152606401610310565b3360009081526020818152604090912084516103a892860190610cc6565b50600180846040516103ba9190610ff6565b908152604051908190036020018120805492151560ff19909316929092179091557fe6fbc010725b0b71430339ac30f684b21c0b685f04c99a05b107206a8c63a1fa9061040a9033908690611012565b60405180910390a1505050565b60008181526003602052604090205481906001600160a01b0316331461044f5760405162461bcd60e51b815260040161031090611036565b60016002838154811061046457610464611083565b600091825260209182902060069190910201600501805460ff1916921515929092179091556040518381527f1dc13bd033e49239661ba80e30ae191b1c31c79277b531e88246c7517971b85d91015b60405180910390a15050565b600060208190529081526040902080546104d890610fbb565b80601f016020809104026020016040519081016040528092919081815260200182805461050490610fbb565b80156105515780601f1061052657610100808354040283529160200191610551565b820191906000526020600020905b81548152906001019060200180831161053457829003601f168201915b505050505081565b6002818154811061056957600080fd5b6000918252602090912060069091020180546001820180546001600160a01b0390921693509061059890610fbb565b80601f01602080910402602001604051908101604052809291908181526020018280546105c490610fbb565b80156106115780601f106105e657610100808354040283529160200191610611565b820191906000526020600020905b8154815290600101906020018083116105f457829003601f168201915b505050506002830154600384015460048501546005909501549394919390925060ff1686565b806002818154811061064b5761064b611083565b600091825260209091206005600690920201015460ff1615156001146106c15760405162461bcd60e51b815260206004820152602560248201527f5468652070726f64756374206973206e6f7420617661696c61626c6520666f726044820152642073616c6560d81b6064820152608401610310565b81600281815481106106d5576106d5611083565b9060005260206000209060060201600301543410156107365760405162461bcd60e51b815260206004820152601c60248201527f54686520616d6f756e74206973206e6f742073756666696369656e74000000006044820152606401610310565b600083815260036020526040902054600280546001600160a01b0390921691339183916108fc91908890811061076e5761076e611083565b9060005260206000209060060201600301549081150290604051600060405180830381858888f193505050501580156107ab573d6000803e3d6000fd5b50806001600160a01b03166108fc600287815481106107cc576107cc611083565b906000526020600020906006020160030154346107e99190611099565b6040518115909202916000818181858888f19350505050158015610811573d6000803e3d6000fd5b50600085815260036020526040902080546001600160a01b03191633179055600280547f7c4ea34258f97c5200c6b64b99984d4f4eec7946a7c1f8868022e08ff2a43f5d918791859185918490811061086c5761086c611083565b9060005260206000209060060201600301546040516108ae94939291909384526001600160a01b03928316602085015291166040830152606082015260800190565b60405180910390a15050505050565b60008181526003602052604090205481906001600160a01b031633146108f55760405162461bcd60e51b815260040161031090611036565b60006002838154811061090a5761090a611083565b600091825260209182902060069190910201600501805460ff1916921515929092179091556040518381527f6a57706098266f632517e186f276bc17d3bb111568f063b9eb6719717256f83591016104b3565b336000818152602081905260408120805461097790610fbb565b80601f01602080910402602001604051908101604052809291908181526020018280546109a390610fbb565b80156109f05780601f106109c5576101008083540402835291602001916109f0565b820191906000526020600020905b8154815290600101906020018083116109d357829003601f168201915b505050505090506000815111610a415760405162461bcd60e51b8152602060048201526016602482015275139bdd081848149959da5cdd195c995908109c985b9960521b6044820152606401610310565b6040805160c08101825233815260208082018881529282018990526060820187905260808201869052600160a0830181905260028054918201815560005282517f405787fa12a823e0f2b7631cc41b3ba8828b3321ca811111fa75cd3aa3bb5ace600690920291820180546001600160a01b0319166001600160a01b0390921691909117815593518051939493610b01937f405787fa12a823e0f2b7631cc41b3ba8828b3321ca811111fa75cd3aa3bb5acf909301929190910190610cc6565b506040820151600282810191909155606083015160038301556080830151600483015560a0909201516005909101805460ff191691151591909117905554600090610b4e90600190611099565b60008181526003602090815260409182902080546001600160a01b0319163390811790915582519081529081018390529192507f982bb66d9aa60573bc0a2066122e1466ecbc4c179a5e7c1c5b589345008ce69a910160405180910390a150505050505050565b60008281526003602052604090205482906001600160a01b03163314610bed5760405162461bcd60e51b815260040161031090611036565b828260028281548110610c0257610c02611083565b906000526020600020906006020160040154811115610c635760405162461bcd60e51b815260206004820152601b60248201527f5072696365206d757374206265206c657373207468616e204d525000000000006044820152606401610310565b8360028681548110610c7757610c77611083565b9060005260206000209060060201600301819055507f7a3325b9d11ddc18edd3dff130141b6ce951061520c6b933a604bf701f3d805285856040516108ae929190918252602082015260400190565b828054610cd290610fbb565b90600052602060002090601f016020900481019282610cf45760008555610d3a565b82601f10610d0d57805160ff1916838001178555610d3a565b82800160010185558215610d3a579182015b82811115610d3a578251825591602001919060010190610d1f565b50610d46929150610d4a565b5090565b5b80821115610d465760008155600101610d4b565b634e487b7160e01b600052604160045260246000fd5b600082601f830112610d8657600080fd5b813567ffffffffffffffff80821115610da157610da1610d5f565b604051601f8301601f19908116603f01168101908282118183101715610dc957610dc9610d5f565b81604052838152866020858801011115610de257600080fd5b836020870160208301376000602085830101528094505050505092915050565b600060208284031215610e1457600080fd5b813567ffffffffffffffff811115610e2b57600080fd5b610e3784828501610d75565b949350505050565b600060208284031215610e5157600080fd5b5035919050565b600060208284031215610e6a57600080fd5b81356001600160a01b0381168114610e8157600080fd5b9392505050565b60005b83811015610ea3578181015183820152602001610e8b565b83811115610eb2576000848401525b50505050565b60008151808452610ed0816020860160208601610e88565b601f01601f19169290920160200192915050565b602081526000610e816020830184610eb8565b6001600160a01b038716815260c060208201819052600090610f1b90830188610eb8565b905085604083015284606083015283608083015282151560a0830152979650505050505050565b60008060008060808587031215610f5857600080fd5b84359350602085013567ffffffffffffffff811115610f7657600080fd5b610f8287828801610d75565b949794965050505060408301359260600135919050565b60008060408385031215610fac57600080fd5b50508035926020909101359150565b600181811c90821680610fcf57607f821691505b60208210811415610ff057634e487b7160e01b600052602260045260246000fd5b50919050565b60008251611008818460208701610e88565b9190910192915050565b6001600160a01b0383168152604060208201819052600090610e3790830184610eb8565b6020808252602d908201527f4f6e6c792050726f64756374204f776e65722063616e20706572666f726d207460408201526c3434b99037b832b930ba34b7b760991b606082015260800190565b634e487b7160e01b600052603260045260246000fd5b6000828210156110b957634e487b7160e01b600052601160045260246000fd5b50039056fea2646970667358221220e3a945382e42f00a40c9b599e6e8e84844ab179f3e511163fc2f2f4419bd6efc64736f6c634300080c0033",
  "immutableReferences": {},
  "source": "// SPDX-License-Identifier: MIT\npragma solidity ^0.8.0;\n\nimport './ProductFactory.sol';\n\ncontract Market is ProductFactory {\n    event priceUpdated(uint256 _productId, uint256 _newPrice);\n    event saleStarted(uint256 _productId);\n    event saleClosed(uint256 _productId);\n    event buySuccess(\n        uint256 _productId,\n        address _from,\n        address _to,\n        uint256 _price\n    );\n\n    modifier hasEnoughMoney(uint256 _productId) {\n        require(\n            msg.value >= products[_productId].price,\n            'The amount is not sufficient'\n        );\n        _;\n    }\n\n    function setPrice(uint256 _productId, uint256 _price)\n        public\n        onlyProductOwner(_productId)\n        isValidPrice(_productId, _price)\n    {\n        products[_productId].price = _price;\n        emit priceUpdated(_productId, _price);\n    }\n\n    function openForSale(uint256 _productId)\n        public\n        onlyProductOwner(_productId)\n    {\n        products[_productId].forSale = true;\n        emit saleStarted(_productId);\n    }\n\n    function closeForSale(uint256 _productId)\n        public\n        onlyProductOwner(_productId)\n    {\n        products[_productId].forSale = false;\n        emit saleClosed(_productId);\n    }\n\n    function buyProduct(uint256 _productId)\n        public\n        payable\n        isAvailableForSale(_productId)\n        hasEnoughMoney(_productId)\n    {\n        address payable _seller = payable(productToOwner[_productId]);\n        address payable _buyer = payable(msg.sender);\n        _seller.transfer(products[_productId].price);\n        _buyer.transfer(msg.value - products[_productId].price);\n        productToOwner[_productId] = msg.sender;\n        emit buySuccess(\n            _productId,\n            _seller,\n            _buyer,\n            products[_productId].price\n        );\n    }\n}\n",
  "sourcePath": "/mnt/B66886FF6886BE1D/Block Chain/Fake Product Identification System/BuySafe/contracts/Market.sol",
  "compiler": {
    "name": "solc",
    "version": "0.8.12+commit.f00d7308.Emscripten.clang"
  },
  "schemaVersion": "3.4.5",
  "updatedAt": "2022-03-14T08:38:03.621Z",
  "networkType": "ethereum",
  "devdoc": {
    "kind": "dev",
    "methods": {},
    "version": 1
  },
  "userdoc": {
    "kind": "user",
    "methods": {},
    "version": 1
  }
}