{
  "contractName": "Market",
  "abi": [
    {
      "anonymous": false,
      "inputs": [
        {
          "indexed": false,
          "internalType": "address",
          "name": "_owner",
          "type": "address"
        },
        {
          "indexed": false,
          "internalType": "string",
          "name": "_brandName",
          "type": "string"
        }
      ],
      "name": "BrandCreated",
      "type": "event"
    },
    {
      "anonymous": false,
      "inputs": [
        {
          "indexed": false,
          "internalType": "address",
          "name": "_manufacturer",
          "type": "address"
        },
        {
          "indexed": false,
          "internalType": "uint256",
          "name": "_productId",
          "type": "uint256"
        }
      ],
      "name": "ProductCreated",
      "type": "event"
    },
    {
      "anonymous": false,
      "inputs": [
        {
          "indexed": false,
          "internalType": "uint256",
          "name": "_productId",
          "type": "uint256"
        },
        {
          "indexed": false,
          "internalType": "address",
          "name": "_from",
          "type": "address"
        },
        {
          "indexed": false,
          "internalType": "address",
          "name": "_to",
          "type": "address"
        },
        {
          "indexed": false,
          "internalType": "uint256",
          "name": "_price",
          "type": "uint256"
        }
      ],
      "name": "buySuccess",
      "type": "event"
    },
    {
      "anonymous": false,
      "inputs": [
        {
          "indexed": false,
          "internalType": "uint256",
          "name": "_productId",
          "type": "uint256"
        },
        {
          "indexed": false,
          "internalType": "uint256",
          "name": "_newPrice",
          "type": "uint256"
        }
      ],
      "name": "priceUpdated",
      "type": "event"
    },
    {
      "anonymous": false,
      "inputs": [
        {
          "indexed": false,
          "internalType": "uint256",
          "name": "_productId",
          "type": "uint256"
        }
      ],
      "name": "saleClosed",
      "type": "event"
    },
    {
      "anonymous": false,
      "inputs": [
        {
          "indexed": false,
          "internalType": "uint256",
          "name": "_productId",
          "type": "uint256"
        }
      ],
      "name": "saleStarted",
      "type": "event"
    },
    {
      "inputs": [
        {
          "internalType": "address",
          "name": "",
          "type": "address"
        }
      ],
      "name": "brands",
      "outputs": [
        {
          "internalType": "string",
          "name": "",
          "type": "string"
        }
      ],
      "stateMutability": "view",
      "type": "function",
      "constant": true
    },
    {
      "inputs": [
        {
          "internalType": "string",
          "name": "_brandName",
          "type": "string"
        }
      ],
      "name": "createBrand",
      "outputs": [],
      "stateMutability": "nonpayable",
      "type": "function"
    },
    {
      "inputs": [
        {
          "internalType": "uint256",
          "name": "_mfg",
          "type": "uint256"
        },
        {
          "internalType": "string",
          "name": "_model",
          "type": "string"
        },
        {
          "internalType": "uint256",
          "name": "_price",
          "type": "uint256"
        },
        {
          "internalType": "uint256",
          "name": "_mrp",
          "type": "uint256"
        }
      ],
      "name": "createProduct",
      "outputs": [],
      "stateMutability": "nonpayable",
      "type": "function"
    },
    {
      "inputs": [
        {
          "internalType": "uint256",
          "name": "",
          "type": "uint256"
        }
      ],
      "name": "productToOwner",
      "outputs": [
        {
          "internalType": "address",
          "name": "",
          "type": "address"
        }
      ],
      "stateMutability": "view",
      "type": "function",
      "constant": true
    },
    {
      "inputs": [
        {
          "internalType": "uint256",
          "name": "",
          "type": "uint256"
        }
      ],
      "name": "products",
      "outputs": [
        {
          "internalType": "address",
          "name": "manufacturer",
          "type": "address"
        },
        {
          "internalType": "string",
          "name": "model",
          "type": "string"
        },
        {
          "internalType": "uint256",
          "name": "mfg",
          "type": "uint256"
        },
        {
          "internalType": "uint256",
          "name": "price",
          "type": "uint256"
        },
        {
          "internalType": "uint256",
          "name": "mrp",
          "type": "uint256"
        },
        {
          "internalType": "bool",
          "name": "forSale",
          "type": "bool"
        }
      ],
      "stateMutability": "view",
      "type": "function",
      "constant": true
    },
    {
      "inputs": [
        {
          "internalType": "uint256",
          "name": "_productId",
          "type": "uint256"
        },
        {
          "internalType": "uint256",
          "name": "_price",
          "type": "uint256"
        }
      ],
      "name": "setPrice",
      "outputs": [],
      "stateMutability": "nonpayable",
      "type": "function"
    },
    {
      "inputs": [
        {
          "internalType": "uint256",
          "name": "_productId",
          "type": "uint256"
        }
      ],
      "name": "openForSale",
      "outputs": [],
      "stateMutability": "nonpayable",
      "type": "function"
    },
    {
      "inputs": [
        {
          "internalType": "uint256",
          "name": "_productId",
          "type": "uint256"
        }
      ],
      "name": "closeForSale",
      "outputs": [],
      "stateMutability": "nonpayable",
      "type": "function"
    },
    {
      "inputs": [
        {
          "internalType": "uint256",
          "name": "_productId",
          "type": "uint256"
        }
      ],
      "name": "buyProduct",
      "outputs": [],
      "stateMutability": "payable",
      "type": "function",
      "payable": true
    }
  ],
  "bytecode": "0x608060405234801561001057600080fd5b506110cb806100206000396000f3fe6080604052600436106100865760003560e01c80637acc0b20116100595780637acc0b201461014d5780638642269e1461017f578063b3cc8cd914610192578063f4a44d2d146101b2578063f7d97577146101d257600080fd5b806314a848901461008b57806315f51416146100ad578063420fadc8146100cd5780635b7fd9b514610120575b600080fd5b34801561009757600080fd5b506100ab6100a6366004610dd9565b6101f2565b005b3480156100b957600080fd5b506100ab6100c8366004610e16565b6103ee565b3480156100d957600080fd5b506101036100e8366004610e16565b6003602052600090815260409020546001600160a01b031681565b6040516001600160a01b0390911681526020015b60405180910390f35b34801561012c57600080fd5b5061014061013b366004610e2f565b610496565b6040516101179190610ebb565b34801561015957600080fd5b5061016d610168366004610e16565b610530565b60405161011796959493929190610ece565b6100ab61018d366004610e16565b61060e565b34801561019e57600080fd5b506100ab6101ad366004610e16565b610894565b3480156101be57600080fd5b506100ab6101cd366004610f19565b610934565b3480156101de57600080fd5b506100ab6101ed366004610f70565b610b8c565b336000908152602081905260408120805461020c90610f92565b80601f016020809104026020016040519081016040528092919081815260200182805461023890610f92565b80156102855780601f1061025a57610100808354040283529160200191610285565b820191906000526020600020905b81548152906001019060200180831161026857829003601f168201915b5050505050905080516000146102f05760405162461bcd60e51b815260206004820152602560248201527f4f776e6572206861732061206272616e64206f6e207468652073616d6520616360448201526418dbdd5b9d60da1b60648201526084015b60405180910390fd5b816001816040516103019190610fcd565b9081526040519081900360200190205460ff16156103615760405162461bcd60e51b815260206004820152601960248201527f4272616e64204e616d6520416c7265616479204578697374730000000000000060448201526064016102e7565b33600090815260208181526040909120845161037f92860190610c9d565b50600180846040516103919190610fcd565b908152604051908190036020018120805492151560ff19909316929092179091557fe6fbc010725b0b71430339ac30f684b21c0b685f04c99a05b107206a8c63a1fa906103e19033908690610fe9565b60405180910390a1505050565b60008181526003602052604090205481906001600160a01b031633146104265760405162461bcd60e51b81526004016102e79061100d565b60016002838154811061043b5761043b61105a565b600091825260209182902060069190910201600501805460ff1916921515929092179091556040518381527f1dc13bd033e49239661ba80e30ae191b1c31c79277b531e88246c7517971b85d91015b60405180910390a15050565b600060208190529081526040902080546104af90610f92565b80601f01602080910402602001604051908101604052809291908181526020018280546104db90610f92565b80156105285780601f106104fd57610100808354040283529160200191610528565b820191906000526020600020905b81548152906001019060200180831161050b57829003601f168201915b505050505081565b6002818154811061054057600080fd5b6000918252602090912060069091020180546001820180546001600160a01b0390921693509061056f90610f92565b80601f016020809104026020016040519081016040528092919081815260200182805461059b90610f92565b80156105e85780601f106105bd576101008083540402835291602001916105e8565b820191906000526020600020905b8154815290600101906020018083116105cb57829003601f168201915b505050506002830154600384015460048501546005909501549394919390925060ff1686565b80600281815481106106225761062261105a565b600091825260209091206005600690920201015460ff1615156001146106985760405162461bcd60e51b815260206004820152602560248201527f5468652070726f64756374206973206e6f7420617661696c61626c6520666f726044820152642073616c6560d81b60648201526084016102e7565b81600281815481106106ac576106ac61105a565b90600052602060002090600602016003015434101561070d5760405162461bcd60e51b815260206004820152601c60248201527f54686520616d6f756e74206973206e6f742073756666696369656e740000000060448201526064016102e7565b600083815260036020526040902054600280546001600160a01b0390921691339183916108fc9190889081106107455761074561105a565b9060005260206000209060060201600301549081150290604051600060405180830381858888f19350505050158015610782573d6000803e3d6000fd5b50806001600160a01b03166108fc600287815481106107a3576107a361105a565b906000526020600020906006020160030154346107c09190611070565b6040518115909202916000818181858888f193505050501580156107e8573d6000803e3d6000fd5b50600085815260036020526040902080546001600160a01b03191633179055600280547f7c4ea34258f97c5200c6b64b99984d4f4eec7946a7c1f8868022e08ff2a43f5d91879185918591849081106108435761084361105a565b90600052602060002090600602016003015460405161088594939291909384526001600160a01b03928316602085015291166040830152606082015260800190565b60405180910390a15050505050565b60008181526003602052604090205481906001600160a01b031633146108cc5760405162461bcd60e51b81526004016102e79061100d565b6000600283815481106108e1576108e161105a565b600091825260209182902060069190910201600501805460ff1916921515929092179091556040518381527f6a57706098266f632517e186f276bc17d3bb111568f063b9eb6719717256f835910161048a565b336000818152602081905260408120805461094e90610f92565b80601f016020809104026020016040519081016040528092919081815260200182805461097a90610f92565b80156109c75780601f1061099c576101008083540402835291602001916109c7565b820191906000526020600020905b8154815290600101906020018083116109aa57829003601f168201915b505050505090506000815111610a185760405162461bcd60e51b8152602060048201526016602482015275139bdd081848149959da5cdd195c995908109c985b9960521b60448201526064016102e7565b6040805160c08101825233815260208082018881529282018990526060820187905260808201869052600160a0830181905260028054918201815560005282517f405787fa12a823e0f2b7631cc41b3ba8828b3321ca811111fa75cd3aa3bb5ace600690920291820180546001600160a01b0319166001600160a01b0390921691909117815593518051939493610ad8937f405787fa12a823e0f2b7631cc41b3ba8828b3321ca811111fa75cd3aa3bb5acf909301929190910190610c9d565b506040820151600282810191909155606083015160038301556080830151600483015560a0909201516005909101805460ff191691151591909117905554600090610b2590600190611070565b60008181526003602090815260409182902080546001600160a01b0319163390811790915582519081529081018390529192507f982bb66d9aa60573bc0a2066122e1466ecbc4c179a5e7c1c5b589345008ce69a910160405180910390a150505050505050565b60008281526003602052604090205482906001600160a01b03163314610bc45760405162461bcd60e51b81526004016102e79061100d565b828260028281548110610bd957610bd961105a565b906000526020600020906006020160040154811115610c3a5760405162461bcd60e51b815260206004820152601b60248201527f5072696365206d757374206265206c657373207468616e204d5250000000000060448201526064016102e7565b8360028681548110610c4e57610c4e61105a565b9060005260206000209060060201600301819055507f7a3325b9d11ddc18edd3dff130141b6ce951061520c6b933a604bf701f3d80528585604051610885929190918252602082015260400190565b828054610ca990610f92565b90600052602060002090601f016020900481019282610ccb5760008555610d11565b82601f10610ce457805160ff1916838001178555610d11565b82800160010185558215610d11579182015b82811115610d11578251825591602001919060010190610cf6565b50610d1d929150610d21565b5090565b5b80821115610d1d5760008155600101610d22565b634e487b7160e01b600052604160045260246000fd5b600082601f830112610d5d57600080fd5b813567ffffffffffffffff80821115610d7857610d78610d36565b604051601f8301601f19908116603f01168101908282118183101715610da057610da0610d36565b81604052838152866020858801011115610db957600080fd5b836020870160208301376000602085830101528094505050505092915050565b600060208284031215610deb57600080fd5b813567ffffffffffffffff811115610e0257600080fd5b610e0e84828501610d4c565b949350505050565b600060208284031215610e2857600080fd5b5035919050565b600060208284031215610e4157600080fd5b81356001600160a01b0381168114610e5857600080fd5b9392505050565b60005b83811015610e7a578181015183820152602001610e62565b83811115610e89576000848401525b50505050565b60008151808452610ea7816020860160208601610e5f565b601f01601f19169290920160200192915050565b602081526000610e586020830184610e8f565b6001600160a01b038716815260c060208201819052600090610ef290830188610e8f565b905085604083015284606083015283608083015282151560a0830152979650505050505050565b60008060008060808587031215610f2f57600080fd5b84359350602085013567ffffffffffffffff811115610f4d57600080fd5b610f5987828801610d4c565b949794965050505060408301359260600135919050565b60008060408385031215610f8357600080fd5b50508035926020909101359150565b600181811c90821680610fa657607f821691505b60208210811415610fc757634e487b7160e01b600052602260045260246000fd5b50919050565b60008251610fdf818460208701610e5f565b9190910192915050565b6001600160a01b0383168152604060208201819052600090610e0e90830184610e8f565b6020808252602d908201527f4f6e6c792050726f64756374204f776e65722063616e20706572666f726d207460408201526c3434b99037b832b930ba34b7b760991b606082015260800190565b634e487b7160e01b600052603260045260246000fd5b60008282101561109057634e487b7160e01b600052601160045260246000fd5b50039056fea264697066735822122038a4fec6e92e237c71f2fb160b3ba64b06b317c04c98c54af6bb40141b16b58964736f6c634300080c0033",
  "immutableReferences": {},
  "source": "// SPDX-License-Identifier: MIT\npragma solidity ^0.8.0;\n\nimport './ProductFactory.sol';\n\ncontract Market is ProductFactory {\n    event priceUpdated(uint256 _productId, uint256 _newPrice);\n    event saleStarted(uint256 _productId);\n    event saleClosed(uint256 _productId);\n    event buySuccess(\n        uint256 _productId,\n        address _from,\n        address _to,\n        uint256 _price\n    );\n\n    modifier hasEnoughMoney(uint256 _productId) {\n        require(\n            msg.value >= products[_productId].price,\n            'The amount is not sufficient'\n        );\n        _;\n    }\n\n    function setPrice(uint256 _productId, uint256 _price)\n        public\n        onlyProductOwner(_productId)\n        isValidPrice(_productId, _price)\n    {\n        products[_productId].price = _price;\n        emit priceUpdated(_productId, _price);\n    }\n\n    function openForSale(uint256 _productId)\n        public\n        onlyProductOwner(_productId)\n    {\n        products[_productId].forSale = true;\n        emit saleStarted(_productId);\n    }\n\n    function closeForSale(uint256 _productId)\n        public\n        onlyProductOwner(_productId)\n    {\n        products[_productId].forSale = false;\n        emit saleClosed(_productId);\n    }\n\n    function buyProduct(uint256 _productId)\n        public\n        payable\n        isAvailableForSale(_productId)\n        hasEnoughMoney(_productId)\n    {\n        address payable _seller = payable(productToOwner[_productId]);\n        address payable _buyer = payable(msg.sender);\n        _seller.transfer(products[_productId].price);\n        _buyer.transfer(msg.value - products[_productId].price);\n        productToOwner[_productId] = msg.sender;\n        emit buySuccess(\n            _productId,\n            _seller,\n            _buyer,\n            products[_productId].price\n        );\n    }\n}\n",
  "sourcePath": "/mnt/B66886FF6886BE1D/Block Chain/Fake Product Identification System/BuySafe/contracts/Market.sol",
  "compiler": {
    "name": "solc",
    "version": "0.8.12+commit.f00d7308.Emscripten.clang"
  },
  "schemaVersion": "3.4.5",
  "updatedAt": "2022-03-12T19:21:36.560Z",
  "networkType": "ethereum",
  "devdoc": {
    "kind": "dev",
    "methods": {},
    "version": 1
  },
  "userdoc": {
    "kind": "user",
    "methods": {},
    "version": 1
  }
}