{
  "contractName": "Market",
  "abi": [
    {
      "anonymous": false,
      "inputs": [
        {
          "indexed": false,
          "internalType": "address",
          "name": "_owner",
          "type": "address"
        },
        {
          "indexed": false,
          "internalType": "string",
          "name": "_brandName",
          "type": "string"
        }
      ],
      "name": "BrandCreated",
      "type": "event"
    },
    {
      "anonymous": false,
      "inputs": [
        {
          "indexed": false,
          "internalType": "address",
          "name": "_owner",
          "type": "address"
        },
        {
          "indexed": false,
          "internalType": "string",
          "name": "_brandName",
          "type": "string"
        }
      ],
      "name": "BrandDeleted",
      "type": "event"
    },
    {
      "anonymous": false,
      "inputs": [
        {
          "indexed": false,
          "internalType": "address",
          "name": "_manufacturer",
          "type": "address"
        },
        {
          "indexed": false,
          "internalType": "uint256",
          "name": "_productId",
          "type": "uint256"
        }
      ],
      "name": "ProductCreated",
      "type": "event"
    },
    {
      "anonymous": false,
      "inputs": [
        {
          "indexed": false,
          "internalType": "address",
          "name": "_brandOwner",
          "type": "address"
        },
        {
          "indexed": false,
          "internalType": "address",
          "name": "_revokedBy",
          "type": "address"
        }
      ],
      "name": "brandReportRevoved",
      "type": "event"
    },
    {
      "anonymous": false,
      "inputs": [
        {
          "indexed": false,
          "internalType": "address",
          "name": "_brandOwner",
          "type": "address"
        },
        {
          "indexed": false,
          "internalType": "address",
          "name": "_reportedBy",
          "type": "address"
        }
      ],
      "name": "brandReported",
      "type": "event"
    },
    {
      "anonymous": false,
      "inputs": [
        {
          "indexed": false,
          "internalType": "uint256",
          "name": "_productId",
          "type": "uint256"
        },
        {
          "indexed": false,
          "internalType": "address",
          "name": "_from",
          "type": "address"
        },
        {
          "indexed": false,
          "internalType": "address",
          "name": "_to",
          "type": "address"
        },
        {
          "indexed": false,
          "internalType": "uint256",
          "name": "_price",
          "type": "uint256"
        }
      ],
      "name": "buySuccess",
      "type": "event"
    },
    {
      "anonymous": false,
      "inputs": [
        {
          "indexed": false,
          "internalType": "uint256",
          "name": "_productId",
          "type": "uint256"
        },
        {
          "indexed": false,
          "internalType": "uint256",
          "name": "_newPrice",
          "type": "uint256"
        }
      ],
      "name": "priceUpdated",
      "type": "event"
    },
    {
      "anonymous": false,
      "inputs": [
        {
          "indexed": false,
          "internalType": "uint256",
          "name": "_productId",
          "type": "uint256"
        }
      ],
      "name": "saleClosed",
      "type": "event"
    },
    {
      "anonymous": false,
      "inputs": [
        {
          "indexed": false,
          "internalType": "uint256",
          "name": "_productId",
          "type": "uint256"
        }
      ],
      "name": "saleStarted",
      "type": "event"
    },
    {
      "inputs": [
        {
          "internalType": "address",
          "name": "",
          "type": "address"
        }
      ],
      "name": "brands",
      "outputs": [
        {
          "internalType": "string",
          "name": "brandName",
          "type": "string"
        },
        {
          "internalType": "string",
          "name": "logo",
          "type": "string"
        },
        {
          "internalType": "uint256",
          "name": "reports",
          "type": "uint256"
        }
      ],
      "stateMutability": "view",
      "type": "function",
      "constant": true
    },
    {
      "inputs": [
        {
          "internalType": "string",
          "name": "_brandName",
          "type": "string"
        },
        {
          "internalType": "string",
          "name": "_logo",
          "type": "string"
        }
      ],
      "name": "createBrand",
      "outputs": [],
      "stateMutability": "nonpayable",
      "type": "function"
    },
    {
      "inputs": [
        {
          "internalType": "uint256",
          "name": "_mfg",
          "type": "uint256"
        },
        {
          "internalType": "string",
          "name": "_model",
          "type": "string"
        },
        {
          "internalType": "uint256",
          "name": "_price",
          "type": "uint256"
        },
        {
          "internalType": "uint256",
          "name": "_mrp",
          "type": "uint256"
        }
      ],
      "name": "createProduct",
      "outputs": [],
      "stateMutability": "nonpayable",
      "type": "function"
    },
    {
      "inputs": [],
      "name": "getBrandsLength",
      "outputs": [
        {
          "internalType": "uint256",
          "name": "",
          "type": "uint256"
        }
      ],
      "stateMutability": "view",
      "type": "function",
      "constant": true
    },
    {
      "inputs": [],
      "name": "productCount",
      "outputs": [
        {
          "internalType": "uint256",
          "name": "",
          "type": "uint256"
        }
      ],
      "stateMutability": "view",
      "type": "function",
      "constant": true
    },
    {
      "inputs": [
        {
          "internalType": "uint256",
          "name": "",
          "type": "uint256"
        }
      ],
      "name": "productToOwner",
      "outputs": [
        {
          "internalType": "address",
          "name": "",
          "type": "address"
        }
      ],
      "stateMutability": "view",
      "type": "function",
      "constant": true
    },
    {
      "inputs": [
        {
          "internalType": "uint256",
          "name": "",
          "type": "uint256"
        }
      ],
      "name": "products",
      "outputs": [
        {
          "internalType": "address",
          "name": "manufacturer",
          "type": "address"
        },
        {
          "internalType": "string",
          "name": "model",
          "type": "string"
        },
        {
          "internalType": "uint256",
          "name": "mfg",
          "type": "uint256"
        },
        {
          "internalType": "uint256",
          "name": "price",
          "type": "uint256"
        },
        {
          "internalType": "uint256",
          "name": "mrp",
          "type": "uint256"
        },
        {
          "internalType": "bool",
          "name": "forSale",
          "type": "bool"
        }
      ],
      "stateMutability": "view",
      "type": "function",
      "constant": true
    },
    {
      "inputs": [
        {
          "internalType": "address",
          "name": "_brandOwner",
          "type": "address"
        }
      ],
      "name": "reportBrand",
      "outputs": [],
      "stateMutability": "nonpayable",
      "type": "function"
    },
    {
      "inputs": [
        {
          "internalType": "address",
          "name": "",
          "type": "address"
        },
        {
          "internalType": "address",
          "name": "",
          "type": "address"
        }
      ],
      "name": "userBrand",
      "outputs": [
        {
          "internalType": "uint256",
          "name": "productCount",
          "type": "uint256"
        },
        {
          "internalType": "bool",
          "name": "hasReported",
          "type": "bool"
        }
      ],
      "stateMutability": "view",
      "type": "function",
      "constant": true
    },
    {
      "inputs": [
        {
          "internalType": "uint256",
          "name": "_productId",
          "type": "uint256"
        },
        {
          "internalType": "uint256",
          "name": "_price",
          "type": "uint256"
        }
      ],
      "name": "setPrice",
      "outputs": [],
      "stateMutability": "nonpayable",
      "type": "function"
    },
    {
      "inputs": [
        {
          "internalType": "uint256",
          "name": "_productId",
          "type": "uint256"
        }
      ],
      "name": "openForSale",
      "outputs": [],
      "stateMutability": "nonpayable",
      "type": "function"
    },
    {
      "inputs": [
        {
          "internalType": "uint256",
          "name": "_productId",
          "type": "uint256"
        }
      ],
      "name": "closeForSale",
      "outputs": [],
      "stateMutability": "nonpayable",
      "type": "function"
    },
    {
      "inputs": [
        {
          "internalType": "uint256",
          "name": "_productId",
          "type": "uint256"
        }
      ],
      "name": "buyProduct",
      "outputs": [],
      "stateMutability": "payable",
      "type": "function",
      "payable": true
    }
  ],
  "bytecode": "0x608060405234801561001057600080fd5b506118cf806100206000396000f3fe6080604052600436106100c25760003560e01c80638eb05f881161007f578063e0f6ef8711610059578063e0f6ef8714610266578063e3acfcce1461027b578063f4a44d2d1461029b578063f7d97577146102bb57600080fd5b80638eb05f881461020757806393a2abdd14610227578063b3cc8cd91461024657600080fd5b806315f51416146100c757806316cba8ec146100e9578063420fadc8146101455780635b7fd9b5146101935780637acc0b20146101c25780638642269e146101f4575b600080fd5b3480156100d357600080fd5b506100e76100e2366004611366565b6102db565b005b3480156100f557600080fd5b5061012b61010436600461139b565b60036020908152600092835260408084209091529082529020805460019091015460ff1682565b604080519283529015156020830152015b60405180910390f35b34801561015157600080fd5b5061017b610160366004611366565b6005602052600090815260409020546001600160a01b031681565b6040516001600160a01b03909116815260200161013c565b34801561019f57600080fd5b506101b36101ae3660046113ce565b61038c565b60405161013c9392919061144c565b3480156101ce57600080fd5b506101e26101dd366004611366565b6104be565b60405161013c96959493929190611482565b6100e7610202366004611366565b61059c565b34801561021357600080fd5b506100e76102223660046113ce565b61094d565b34801561023357600080fd5b506002545b60405190815260200161013c565b34801561025257600080fd5b506100e7610261366004611366565b610b1e565b34801561027257600080fd5b50600454610238565b34801561028757600080fd5b506100e7610296366004611570565b610bbe565b3480156102a757600080fd5b506100e76102b63660046115d4565b610e3a565b3480156102c757600080fd5b506100e76102d636600461162b565b6110b3565b60008181526005602052604090205481906001600160a01b0316331461031c5760405162461bcd60e51b81526004016103139061164d565b60405180910390fd5b6001600483815481106103315761033161169a565b600091825260209182902060069190910201600501805460ff1916921515929092179091556040518381527f1dc13bd033e49239661ba80e30ae191b1c31c79277b531e88246c7517971b85d91015b60405180910390a15050565b6000602081905290815260409020805481906103a7906116b0565b80601f01602080910402602001604051908101604052809291908181526020018280546103d3906116b0565b80156104205780601f106103f557610100808354040283529160200191610420565b820191906000526020600020905b81548152906001019060200180831161040357829003601f168201915b505050505090806001018054610435906116b0565b80601f0160208091040260200160405190810160405280929190818152602001828054610461906116b0565b80156104ae5780601f10610483576101008083540402835291602001916104ae565b820191906000526020600020905b81548152906001019060200180831161049157829003601f168201915b5050505050908060020154905083565b600481815481106104ce57600080fd5b6000918252602090912060069091020180546001820180546001600160a01b039092169350906104fd906116b0565b80601f0160208091040260200160405190810160405280929190818152602001828054610529906116b0565b80156105765780601f1061054b57610100808354040283529160200191610576565b820191906000526020600020905b81548152906001019060200180831161055957829003601f168201915b505050506002830154600384015460048501546005909501549394919390925060ff1686565b80600481815481106105b0576105b061169a565b600091825260209091206005600690920201015460ff1615156001146106265760405162461bcd60e51b815260206004820152602560248201527f5468652070726f64756374206973206e6f7420617661696c61626c6520666f726044820152642073616c6560d81b6064820152608401610313565b816004818154811061063a5761063a61169a565b90600052602060002090600602016003015434101561069b5760405162461bcd60e51b815260206004820152601c60248201527f54686520616d6f756e74206973206e6f742073756666696369656e74000000006044820152606401610313565b600083815260056020526040902054600480546001600160a01b0390921691339183916108fc9190889081106106d3576106d361169a565b9060005260206000209060060201600301549081150290604051600060405180830381858888f19350505050158015610710573d6000803e3d6000fd5b50806001600160a01b03166108fc600487815481106107315761073161169a565b9060005260206000209060060201600301543461074e9190611701565b6040518115909202916000818181858888f19350505050158015610776573d6000803e3d6000fd5b50600085815260056020526040812080546001600160a01b0319163317905560048054879081106107a9576107a961169a565b600091825260208083206006909202909101546001600160a01b0386811684526003835260408085209190921680855292528220805491935090916107ed83611718565b90915550506001600160a01b03808316600090815260036020908152604080832093851683529290529081208054916108258361172f565b90915550506001600160a01b0380841660009081526003602090815260408083209385168352929052205415801561088557506001600160a01b0380841660009081526003602090815260408083209385168352929052206001015460ff165b156108c4576001600160a01b038084166000908152600360209081526040808320938516835292905220600101805460ff191690556108c481846111d3565b7f7c4ea34258f97c5200c6b64b99984d4f4eec7946a7c1f8868022e08ff2a43f5d86848460048a815481106108fb576108fb61169a565b90600052602060002090600602016003015460405161093d94939291909384526001600160a01b03928316602085015291166040830152606082015260800190565b60405180910390a1505050505050565b3360009081526003602090815260408083206001600160a01b038516845290915290205481906109ef5760405162461bcd60e51b815260206004820152604160248201527f596f7520617265207265706f7274696e672061206272616e642062757420796f60448201527f7520646f6e742774206f776e20616e79206f6620697427732070726f647563746064820152607360f81b608482015260a401610313565b3360009081526003602090815260408083206001600160a01b038516845290915290206001015460ff1615610a665760405162461bcd60e51b815260206004820152601e60248201527f596f752063616e2774207265706f72742061206272616e6420747769636500006044820152606401610313565b3360009081526003602090815260408083206001600160a01b038616845282528083206001908101805460ff19169091179055908290528120600201805491610aae8361172f565b90915550506001600160a01b03821660009081526020819052604090206002908101541115610ae057610ae08261123f565b604080516001600160a01b03841681523360208201527fe7747c1468ca696f832f20cb4db5f557554916e9035754b5b071c3b04a4decb89101610380565b60008181526005602052604090205481906001600160a01b03163314610b565760405162461bcd60e51b81526004016103139061164d565b600060048381548110610b6b57610b6b61169a565b600091825260209182902060069190910201600501805460ff1916921515929092179091556040518381527f6a57706098266f632517e186f276bc17d3bb111568f063b9eb6719717256f8359101610380565b3360009081526020819052604081208054610bd8906116b0565b80601f0160208091040260200160405190810160405280929190818152602001828054610c04906116b0565b8015610c515780601f10610c2657610100808354040283529160200191610c51565b820191906000526020600020905b815481529060010190602001808311610c3457829003601f168201915b505050505090508051600014610cb75760405162461bcd60e51b815260206004820152602560248201527f4f776e6572206861732061206272616e64206f6e207468652073616d6520616360448201526418dbdd5b9d60da1b6064820152608401610313565b82600181604051610cc8919061174a565b9081526040519081900360200190205460ff1615610d285760405162461bcd60e51b815260206004820152601960248201527f4272616e64204e616d6520416c726561647920457869737473000000000000006044820152606401610313565b60028054600181019091557f405787fa12a823e0f2b7631cc41b3ba8828b3321ca811111fa75cd3aa3bb5ace0180546001600160a01b03191633908117909155604080516060810182528681526020818101879052600082840181905293845283815291909220825180519192610da4928492909101906112cd565b506020828101518051610dbd92600185019201906112cd565b506040820151816002015590505060018085604051610ddc919061174a565b908152604051908190036020018120805492151560ff19909316929092179091557fe6fbc010725b0b71430339ac30f684b21c0b685f04c99a05b107206a8c63a1fa90610e2c9033908790611766565b60405180910390a150505050565b3360008181526020819052604081208054610e54906116b0565b80601f0160208091040260200160405190810160405280929190818152602001828054610e80906116b0565b8015610ecd5780601f10610ea257610100808354040283529160200191610ecd565b820191906000526020600020905b815481529060010190602001808311610eb057829003601f168201915b505050505090506000815111610f1e5760405162461bcd60e51b8152602060048201526016602482015275139bdd081848149959da5cdd195c995908109c985b9960521b6044820152606401610313565b6040805160c08101825233815260208082018881529282018990526060820187905260808201869052600160a0830181905260048054918201815560005282517f8a35acfbc15ff81a39ae7d344fd709f28e8600b4aa8c65c6b64bfe7fe36bd19b600690920291820180546001600160a01b0319166001600160a01b0390921691909117815593518051939493610fde937f8a35acfbc15ff81a39ae7d344fd709f28e8600b4aa8c65c6b64bfe7fe36bd19c9093019291909101906112cd565b506040820151600282015560608201516003820155608082015160048083019190915560a0909201516005909101805460ff19169115159190911790555460009061102b90600190611701565b600081815260056020908152604080832080546001600160a01b03191633908117909155835260038252808320909152812080549293509061106c8361172f565b909155505060408051338152602081018390527f982bb66d9aa60573bc0a2066122e1466ecbc4c179a5e7c1c5b589345008ce69a910160405180910390a150505050505050565b60008281526005602052604090205482906001600160a01b031633146110eb5760405162461bcd60e51b81526004016103139061164d565b8282600482815481106111005761110061169a565b9060005260206000209060060201600401548111156111615760405162461bcd60e51b815260206004820152601b60248201527f5072696365206d757374206265206c657373207468616e204d525000000000006044820152606401610313565b83600486815481106111755761117561169a565b9060005260206000209060060201600301819055507f7a3325b9d11ddc18edd3dff130141b6ce951061520c6b933a604bf701f3d805285856040516111c4929190918252602082015260400190565b60405180910390a15050505050565b6001600160a01b03821660009081526020819052604081206002018054916111fa83611718565b9091555050604080516001600160a01b038085168252831660208201527f597f07ee0985d333537a5ddb478b64c0de14188b687ed8225a836d11b55707f89101610380565b6001600160a01b03811660009081526020819052604090819020905160019161126791611792565b908152604080519182900360209081018320805460ff191690556001600160a01b038416600090815290819052207f8a36be64cb775ce9b5064fb7f6e835793bfff4f4a873dee5d16268132033852f916112c2918491611804565b60405180910390a150565b8280546112d9906116b0565b90600052602060002090601f0160209004810192826112fb5760008555611341565b82601f1061131457805160ff1916838001178555611341565b82800160010185558215611341579182015b82811115611341578251825591602001919060010190611326565b5061134d929150611351565b5090565b5b8082111561134d5760008155600101611352565b60006020828403121561137857600080fd5b5035919050565b80356001600160a01b038116811461139657600080fd5b919050565b600080604083850312156113ae57600080fd5b6113b78361137f565b91506113c56020840161137f565b90509250929050565b6000602082840312156113e057600080fd5b6113e98261137f565b9392505050565b60005b8381101561140b5781810151838201526020016113f3565b8381111561141a576000848401525b50505050565b600081518084526114388160208601602086016113f0565b601f01601f19169290920160200192915050565b60608152600061145f6060830186611420565b82810360208401526114718186611420565b915050826040830152949350505050565b6001600160a01b038716815260c0602082018190526000906114a690830188611420565b905085604083015284606083015283608083015282151560a0830152979650505050505050565b634e487b7160e01b600052604160045260246000fd5b600082601f8301126114f457600080fd5b813567ffffffffffffffff8082111561150f5761150f6114cd565b604051601f8301601f19908116603f01168101908282118183101715611537576115376114cd565b8160405283815286602085880101111561155057600080fd5b836020870160208301376000602085830101528094505050505092915050565b6000806040838503121561158357600080fd5b823567ffffffffffffffff8082111561159b57600080fd5b6115a7868387016114e3565b935060208501359150808211156115bd57600080fd5b506115ca858286016114e3565b9150509250929050565b600080600080608085870312156115ea57600080fd5b84359350602085013567ffffffffffffffff81111561160857600080fd5b611614878288016114e3565b949794965050505060408301359260600135919050565b6000806040838503121561163e57600080fd5b50508035926020909101359150565b6020808252602d908201527f4f6e6c792050726f64756374204f776e65722063616e20706572666f726d207460408201526c3434b99037b832b930ba34b7b760991b606082015260800190565b634e487b7160e01b600052603260045260246000fd5b600181811c908216806116c457607f821691505b602082108114156116e557634e487b7160e01b600052602260045260246000fd5b50919050565b634e487b7160e01b600052601160045260246000fd5b600082821015611713576117136116eb565b500390565b600081611727576117276116eb565b506000190190565b6000600019821415611743576117436116eb565b5060010190565b6000825161175c8184602087016113f0565b9190910192915050565b6001600160a01b038316815260406020820181905260009061178a90830184611420565b949350505050565b60008083546117a0816116b0565b600182811680156117b857600181146117c9576117f8565b60ff198416875282870194506117f8565b8760005260208060002060005b858110156117ef5781548a8201529084019082016117d6565b50505082870194505b50929695505050505050565b60018060a01b03831681526000602060408184015260008454611826816116b0565b8060408701526060600180841660008114611848576001811461185c5761188a565b60ff1985168984015260808901955061188a565b896000528660002060005b858110156118825781548b8201860152908301908801611867565b8a0184019650505b5093999850505050505050505056fea2646970667358221220f94b8ec18c707cb5c4c575ef8bbf65597b017d1f58b7129b2148041a210feaea64736f6c634300080c0033",
  "immutableReferences": {},
  "source": "// SPDX-License-Identifier: MIT\npragma solidity ^0.8.0;\n\nimport './ProductFactory.sol';\n\ncontract Market is ProductFactory {\n    event priceUpdated(uint256 _productId, uint256 _newPrice);\n    event saleStarted(uint256 _productId);\n    event saleClosed(uint256 _productId);\n    event buySuccess(\n        uint256 _productId,\n        address _from,\n        address _to,\n        uint256 _price\n    );\n\n    modifier hasEnoughMoney(uint256 _productId) {\n        require(\n            msg.value >= products[_productId].price,\n            'The amount is not sufficient'\n        );\n        _;\n    }\n\n    function setPrice(uint256 _productId, uint256 _price)\n        public\n        onlyProductOwner(_productId)\n        isValidPrice(_productId, _price)\n    {\n        products[_productId].price = _price;\n        emit priceUpdated(_productId, _price);\n    }\n\n    function openForSale(uint256 _productId)\n        public\n        onlyProductOwner(_productId)\n    {\n        products[_productId].forSale = true;\n        emit saleStarted(_productId);\n    }\n\n    function closeForSale(uint256 _productId)\n        public\n        onlyProductOwner(_productId)\n    {\n        products[_productId].forSale = false;\n        emit saleClosed(_productId);\n    }\n\n    function buyProduct(uint256 _productId)\n        public\n        payable\n        isAvailableForSale(_productId)\n        hasEnoughMoney(_productId)\n    {\n        address payable _seller = payable(productToOwner[_productId]);\n        address payable _buyer = payable(msg.sender);\n        _seller.transfer(products[_productId].price);\n        _buyer.transfer(msg.value - products[_productId].price);\n        productToOwner[_productId] = msg.sender;\n\n        // Report Stuff\n        address _brandOwner = products[_productId].manufacturer;\n        userBrand[_seller][_brandOwner].productCount--;\n        userBrand[_buyer][_brandOwner].productCount++;\n        // If seller has reported the brand and is now selling his last product of that brand\n        if (\n            userBrand[_seller][_brandOwner].productCount == 0 &&\n            userBrand[_seller][_brandOwner].hasReported\n        ) {\n            userBrand[_seller][_brandOwner].hasReported = false;\n            revokeReport(_brandOwner, _seller);\n        }\n\n        emit buySuccess(\n            _productId,\n            _seller,\n            _buyer,\n            products[_productId].price\n        );\n    }\n}\n",
  "sourcePath": "/mnt/B66886FF6886BE1D/Block Chain/Fake Product Identification System/BuySafe/contracts/Market.sol",
  "compiler": {
    "name": "solc",
    "version": "0.8.12+commit.f00d7308.Emscripten.clang"
  },
  "schemaVersion": "3.4.5",
  "updatedAt": "2022-03-15T19:48:52.887Z",
  "networkType": "ethereum",
  "devdoc": {
    "kind": "dev",
    "methods": {},
    "version": 1
  },
  "userdoc": {
    "kind": "user",
    "methods": {},
    "version": 1
  }
}