{
  "contractName": "ProductFactory",
  "abi": [
    {
      "anonymous": false,
      "inputs": [
        {
          "indexed": false,
          "internalType": "address",
          "name": "_owner",
          "type": "address"
        },
        {
          "indexed": false,
          "internalType": "string",
          "name": "_brandName",
          "type": "string"
        }
      ],
      "name": "BrandCreated",
      "type": "event"
    },
    {
      "anonymous": false,
      "inputs": [
        {
          "indexed": false,
          "internalType": "address",
          "name": "_manufacturer",
          "type": "address"
        },
        {
          "indexed": false,
          "internalType": "uint256",
          "name": "_productId",
          "type": "uint256"
        }
      ],
      "name": "ProductCreated",
      "type": "event"
    },
    {
      "inputs": [
        {
          "internalType": "address",
          "name": "",
          "type": "address"
        }
      ],
      "name": "brands",
      "outputs": [
        {
          "internalType": "string",
          "name": "",
          "type": "string"
        }
      ],
      "stateMutability": "view",
      "type": "function"
    },
    {
      "inputs": [
        {
          "internalType": "string",
          "name": "_brandName",
          "type": "string"
        }
      ],
      "name": "createBrand",
      "outputs": [],
      "stateMutability": "nonpayable",
      "type": "function"
    },
    {
      "inputs": [
        {
          "internalType": "uint256",
          "name": "",
          "type": "uint256"
        }
      ],
      "name": "productToOwner",
      "outputs": [
        {
          "internalType": "address",
          "name": "",
          "type": "address"
        }
      ],
      "stateMutability": "view",
      "type": "function"
    },
    {
      "inputs": [
        {
          "internalType": "uint256",
          "name": "",
          "type": "uint256"
        }
      ],
      "name": "products",
      "outputs": [
        {
          "internalType": "address",
          "name": "manufacturer",
          "type": "address"
        },
        {
          "internalType": "string",
          "name": "model",
          "type": "string"
        },
        {
          "internalType": "uint256",
          "name": "mfg",
          "type": "uint256"
        },
        {
          "internalType": "uint256",
          "name": "price",
          "type": "uint256"
        },
        {
          "internalType": "uint256",
          "name": "mrp",
          "type": "uint256"
        },
        {
          "internalType": "bool",
          "name": "forSale",
          "type": "bool"
        }
      ],
      "stateMutability": "view",
      "type": "function"
    },
    {
      "inputs": [
        {
          "internalType": "uint256",
          "name": "_mfg",
          "type": "uint256"
        },
        {
          "internalType": "string",
          "name": "_model",
          "type": "string"
        },
        {
          "internalType": "uint256",
          "name": "_price",
          "type": "uint256"
        },
        {
          "internalType": "uint256",
          "name": "_mrp",
          "type": "uint256"
        }
      ],
      "name": "createProduct",
      "outputs": [],
      "stateMutability": "nonpayable",
      "type": "function"
    }
  ],
  "bytecode": "0x608060405234801561001057600080fd5b50610a84806100206000396000f3fe608060405234801561001057600080fd5b50600436106100575760003560e01c806314a848901461005c578063420fadc8146100715780635b7fd9b5146100b75780637acc0b20146100d7578063f4a44d2d146100fc575b600080fd5b61006f61006a366004610817565b61010f565b005b61009a61007f366004610854565b6003602052600090815260409020546001600160a01b031681565b6040516001600160a01b0390911681526020015b60405180910390f35b6100ca6100c536600461086d565b61030b565b6040516100ae91906108f9565b6100ea6100e5366004610854565b6103a5565b6040516100ae9695949392919061090c565b61006f61010a366004610957565b610483565b3360009081526020819052604081208054610129906109ae565b80601f0160208091040260200160405190810160405280929190818152602001828054610155906109ae565b80156101a25780601f10610177576101008083540402835291602001916101a2565b820191906000526020600020905b81548152906001019060200180831161018557829003601f168201915b50505050509050805160001461020d5760405162461bcd60e51b815260206004820152602560248201527f4f776e6572206861732061206272616e64206f6e207468652073616d6520616360448201526418dbdd5b9d60da1b60648201526084015b60405180910390fd5b8160018160405161021e91906109e9565b9081526040519081900360200190205460ff161561027e5760405162461bcd60e51b815260206004820152601960248201527f4272616e64204e616d6520416c726561647920457869737473000000000000006044820152606401610204565b33600090815260208181526040909120845161029c928601906106db565b50600180846040516102ae91906109e9565b908152604051908190036020018120805492151560ff19909316929092179091557fe6fbc010725b0b71430339ac30f684b21c0b685f04c99a05b107206a8c63a1fa906102fe9033908690610a05565b60405180910390a1505050565b60006020819052908152604090208054610324906109ae565b80601f0160208091040260200160405190810160405280929190818152602001828054610350906109ae565b801561039d5780601f106103725761010080835404028352916020019161039d565b820191906000526020600020905b81548152906001019060200180831161038057829003601f168201915b505050505081565b600281815481106103b557600080fd5b6000918252602090912060069091020180546001820180546001600160a01b039092169350906103e4906109ae565b80601f0160208091040260200160405190810160405280929190818152602001828054610410906109ae565b801561045d5780601f106104325761010080835404028352916020019161045d565b820191906000526020600020905b81548152906001019060200180831161044057829003601f168201915b505050506002830154600384015460048501546005909501549394919390925060ff1686565b336000818152602081905260408120805461049d906109ae565b80601f01602080910402602001604051908101604052809291908181526020018280546104c9906109ae565b80156105165780601f106104eb57610100808354040283529160200191610516565b820191906000526020600020905b8154815290600101906020018083116104f957829003601f168201915b5050505050905060008151116105675760405162461bcd60e51b8152602060048201526016602482015275139bdd081848149959da5cdd195c995908109c985b9960521b6044820152606401610204565b6040805160c08101825233815260208082018881529282018990526060820187905260808201869052600160a0830181905260028054918201815560005282517f405787fa12a823e0f2b7631cc41b3ba8828b3321ca811111fa75cd3aa3bb5ace600690920291820180546001600160a01b0319166001600160a01b0390921691909117815593518051939493610627937f405787fa12a823e0f2b7631cc41b3ba8828b3321ca811111fa75cd3aa3bb5acf9093019291909101906106db565b506040820151600282810191909155606083015160038301556080830151600483015560a0909201516005909101805460ff19169115159190911790555460009061067490600190610a29565b60008181526003602090815260409182902080546001600160a01b0319163390811790915582519081529081018390529192507f982bb66d9aa60573bc0a2066122e1466ecbc4c179a5e7c1c5b589345008ce69a910160405180910390a150505050505050565b8280546106e7906109ae565b90600052602060002090601f016020900481019282610709576000855561074f565b82601f1061072257805160ff191683800117855561074f565b8280016001018555821561074f579182015b8281111561074f578251825591602001919060010190610734565b5061075b92915061075f565b5090565b5b8082111561075b5760008155600101610760565b634e487b7160e01b600052604160045260246000fd5b600082601f83011261079b57600080fd5b813567ffffffffffffffff808211156107b6576107b6610774565b604051601f8301601f19908116603f011681019082821181831017156107de576107de610774565b816040528381528660208588010111156107f757600080fd5b836020870160208301376000602085830101528094505050505092915050565b60006020828403121561082957600080fd5b813567ffffffffffffffff81111561084057600080fd5b61084c8482850161078a565b949350505050565b60006020828403121561086657600080fd5b5035919050565b60006020828403121561087f57600080fd5b81356001600160a01b038116811461089657600080fd5b9392505050565b60005b838110156108b85781810151838201526020016108a0565b838111156108c7576000848401525b50505050565b600081518084526108e581602086016020860161089d565b601f01601f19169290920160200192915050565b60208152600061089660208301846108cd565b6001600160a01b038716815260c060208201819052600090610930908301886108cd565b905085604083015284606083015283608083015282151560a0830152979650505050505050565b6000806000806080858703121561096d57600080fd5b84359350602085013567ffffffffffffffff81111561098b57600080fd5b6109978782880161078a565b949794965050505060408301359260600135919050565b600181811c908216806109c257607f821691505b602082108114156109e357634e487b7160e01b600052602260045260246000fd5b50919050565b600082516109fb81846020870161089d565b9190910192915050565b6001600160a01b038316815260406020820181905260009061084c908301846108cd565b600082821015610a4957634e487b7160e01b600052601160045260246000fd5b50039056fea2646970667358221220c4c222cf1e47b31a4056d992a9bf19bd308f263556cf92a3896a9707a93d8bc864736f6c634300080c0033",
  "immutableReferences": {},
  "source": "// SPDX-License-Identifier: MIT\npragma solidity ^0.8.0;\n\nimport \"./Brand.sol\";\n\ncontract ProductFactory is Brand {\n   struct Product{\n       address manufacturer;\n       string model;\n       uint256 mfg;\n       uint256 price;\n       uint256 mrp;\n       bool forSale;\n   }\n\n   Product[] public products;\n   mapping (uint => address) public productToOwner;\n\n   event ProductCreated(address _manufacturer, uint _productId);\n\n    modifier onlyProductOwner(uint _productId) {\n        require(productToOwner[_productId] == msg.sender, \"Only Product Owner can perform this operation\");\n        _;\n    }\n\n    modifier isValidPrice(uint _productId, uint _price){\n        require(_price <= products[_productId].mrp, \"Price must be less than MRP\");\n        _;\n    }\n\n    modifier isAvailableForSale(uint _productId){\n        require(products[_productId].forSale == true, \"The product is not available for sale\");\n        _;\n    }\n\n   function createProduct(uint _mfg, string memory _model, uint _price, uint _mrp) public checkBrand(msg.sender){\n       products.push(Product(msg.sender,_model,_mfg,_price,_mrp,true));\n       uint _productId = products.length - 1;\n       productToOwner[_productId] = msg.sender;\n       emit ProductCreated(msg.sender, _productId);\n   }\n}",
  "sourcePath": "/mnt/B66886FF6886BE1D/Block Chain/Fake Product Identification System/BuySafe/contracts/ProductFactory.sol",
  "compiler": {
    "name": "solc",
    "version": "0.8.12+commit.f00d7308.Emscripten.clang"
  },
  "schemaVersion": "3.4.5",
  "updatedAt": "2022-03-08T14:17:08.184Z",
  "devdoc": {
    "kind": "dev",
    "methods": {},
    "version": 1
  },
  "userdoc": {
    "kind": "user",
    "methods": {},
    "version": 1
  }
}