{
  "contractName": "Product",
  "abi": [
    {
      "inputs": [
        {
          "internalType": "address",
          "name": "",
          "type": "address"
        }
      ],
      "name": "brands",
      "outputs": [
        {
          "internalType": "string",
          "name": "",
          "type": "string"
        }
      ],
      "stateMutability": "view",
      "type": "function",
      "constant": true
    },
    {
      "inputs": [
        {
          "internalType": "string",
          "name": "_brandName",
          "type": "string"
        }
      ],
      "name": "createBrand",
      "outputs": [],
      "stateMutability": "nonpayable",
      "type": "function"
    }
  ],
  "bytecode": "0x608060405234801561001057600080fd5b5061038b806100206000396000f3fe608060405234801561001057600080fd5b50600436106100365760003560e01c806314a848901461003b5780635b7fd9b514610050575b600080fd5b61004e6100493660046101e4565b610079565b005b61006361005e366004610295565b61009b565b60405161007091906102c5565b60405180910390f35b33600090815260208181526040909120825161009792840190610135565b5050565b600060208190529081526040902080546100b49061031a565b80601f01602080910402602001604051908101604052809291908181526020018280546100e09061031a565b801561012d5780601f106101025761010080835404028352916020019161012d565b820191906000526020600020905b81548152906001019060200180831161011057829003601f168201915b505050505081565b8280546101419061031a565b90600052602060002090601f01602090048101928261016357600085556101a9565b82601f1061017c57805160ff19168380011785556101a9565b828001600101855582156101a9579182015b828111156101a957825182559160200191906001019061018e565b506101b59291506101b9565b5090565b5b808211156101b557600081556001016101ba565b634e487b7160e01b600052604160045260246000fd5b6000602082840312156101f657600080fd5b813567ffffffffffffffff8082111561020e57600080fd5b818401915084601f83011261022257600080fd5b813581811115610234576102346101ce565b604051601f8201601f19908116603f0116810190838211818310171561025c5761025c6101ce565b8160405282815287602084870101111561027557600080fd5b826020860160208301376000928101602001929092525095945050505050565b6000602082840312156102a757600080fd5b81356001600160a01b03811681146102be57600080fd5b9392505050565b600060208083528351808285015260005b818110156102f2578581018301518582016040015282016102d6565b81811115610304576000604083870101525b50601f01601f1916929092016040019392505050565b600181811c9082168061032e57607f821691505b6020821081141561034f57634e487b7160e01b600052602260045260246000fd5b5091905056fea2646970667358221220c3e0e5448abefda30a552cc292509a290c48b1cb211f40cc7da47974a132d28364736f6c634300080c0033",
  "immutableReferences": {},
  "source": "// SPDX-License-Identifier: MIT\npragma solidity ^0.8.0;\n\nimport '@openzeppelin/contracts/token/ERC721/ERC721.sol';\n\ncontract Product {\n\n   struct Transaction{\n       address from;\n       address to;\n       uint32 price;\n   }\n   \n   struct ProductToken{\n       address manufacturer;\n       uint256 mfg;\n       string modelNumber;\n       uint32 price;\n       uint32 mrp;\n   }\n\n   mapping (address => string) public brands;\n\n   function createBrand (string memory _brandName) public {\n       brands[msg.sender] = _brandName;\n\n   }\n\n\n}",
  "sourcePath": "/mnt/B66886FF6886BE1D/Block Chain/Fake Product Identification System/BuySafe/contracts/Product.sol",
  "compiler": {
    "name": "solc",
    "version": "0.8.12+commit.f00d7308.Emscripten.clang"
  },
  "schemaVersion": "3.4.5",
  "updatedAt": "2022-03-12T13:53:10.991Z",
  "networkType": "ethereum",
  "devdoc": {
    "kind": "dev",
    "methods": {},
    "version": 1
  },
  "userdoc": {
    "kind": "user",
    "methods": {},
    "version": 1
  }
}