{
  "contractName": "ProductFactory",
  "abi": [
    {
      "anonymous": false,
      "inputs": [
        {
          "indexed": false,
          "internalType": "address",
          "name": "_owner",
          "type": "address"
        },
        {
          "indexed": false,
          "internalType": "string",
          "name": "_brandName",
          "type": "string"
        }
      ],
      "name": "BrandCreated",
      "type": "event"
    },
    {
      "anonymous": false,
      "inputs": [
        {
          "indexed": false,
          "internalType": "address",
          "name": "_owner",
          "type": "address"
        },
        {
          "indexed": false,
          "internalType": "string",
          "name": "_brandName",
          "type": "string"
        }
      ],
      "name": "BrandDeleted",
      "type": "event"
    },
    {
      "anonymous": false,
      "inputs": [
        {
          "indexed": false,
          "internalType": "address",
          "name": "_manufacturer",
          "type": "address"
        },
        {
          "indexed": true,
          "internalType": "uint256",
          "name": "_productId",
          "type": "uint256"
        },
        {
          "indexed": false,
          "internalType": "uint256",
          "name": "_time",
          "type": "uint256"
        }
      ],
      "name": "ProductCreated",
      "type": "event"
    },
    {
      "anonymous": false,
      "inputs": [
        {
          "indexed": false,
          "internalType": "address",
          "name": "_brandOwner",
          "type": "address"
        },
        {
          "indexed": false,
          "internalType": "address",
          "name": "_revokedBy",
          "type": "address"
        }
      ],
      "name": "brandReportRevoved",
      "type": "event"
    },
    {
      "anonymous": false,
      "inputs": [
        {
          "indexed": false,
          "internalType": "address",
          "name": "_brandOwner",
          "type": "address"
        },
        {
          "indexed": false,
          "internalType": "address",
          "name": "_reportedBy",
          "type": "address"
        }
      ],
      "name": "brandReported",
      "type": "event"
    },
    {
      "inputs": [
        {
          "internalType": "uint256",
          "name": "",
          "type": "uint256"
        }
      ],
      "name": "brandOwners",
      "outputs": [
        {
          "internalType": "address",
          "name": "",
          "type": "address"
        }
      ],
      "stateMutability": "view",
      "type": "function"
    },
    {
      "inputs": [
        {
          "internalType": "address",
          "name": "",
          "type": "address"
        }
      ],
      "name": "brands",
      "outputs": [
        {
          "internalType": "string",
          "name": "brandName",
          "type": "string"
        },
        {
          "internalType": "string",
          "name": "logo",
          "type": "string"
        },
        {
          "internalType": "uint256",
          "name": "reports",
          "type": "uint256"
        }
      ],
      "stateMutability": "view",
      "type": "function"
    },
    {
      "inputs": [
        {
          "internalType": "string",
          "name": "_brandName",
          "type": "string"
        },
        {
          "internalType": "string",
          "name": "_logo",
          "type": "string"
        }
      ],
      "name": "createBrand",
      "outputs": [],
      "stateMutability": "nonpayable",
      "type": "function"
    },
    {
      "inputs": [],
      "name": "getBrandsLength",
      "outputs": [
        {
          "internalType": "uint256",
          "name": "",
          "type": "uint256"
        }
      ],
      "stateMutability": "view",
      "type": "function"
    },
    {
      "inputs": [
        {
          "internalType": "uint256",
          "name": "",
          "type": "uint256"
        }
      ],
      "name": "productToOwner",
      "outputs": [
        {
          "internalType": "address",
          "name": "",
          "type": "address"
        }
      ],
      "stateMutability": "view",
      "type": "function"
    },
    {
      "inputs": [
        {
          "internalType": "uint256",
          "name": "",
          "type": "uint256"
        }
      ],
      "name": "products",
      "outputs": [
        {
          "internalType": "address",
          "name": "manufacturer",
          "type": "address"
        },
        {
          "internalType": "string",
          "name": "model",
          "type": "string"
        },
        {
          "internalType": "uint256",
          "name": "mfg",
          "type": "uint256"
        },
        {
          "internalType": "uint256",
          "name": "price",
          "type": "uint256"
        },
        {
          "internalType": "uint256",
          "name": "mrp",
          "type": "uint256"
        },
        {
          "internalType": "bool",
          "name": "forSale",
          "type": "bool"
        }
      ],
      "stateMutability": "view",
      "type": "function"
    },
    {
      "inputs": [
        {
          "internalType": "address",
          "name": "_brandOwner",
          "type": "address"
        }
      ],
      "name": "reportBrand",
      "outputs": [],
      "stateMutability": "nonpayable",
      "type": "function"
    },
    {
      "inputs": [
        {
          "internalType": "address",
          "name": "",
          "type": "address"
        },
        {
          "internalType": "address",
          "name": "",
          "type": "address"
        }
      ],
      "name": "userBrand",
      "outputs": [
        {
          "internalType": "uint256",
          "name": "productCount",
          "type": "uint256"
        },
        {
          "internalType": "bool",
          "name": "hasReported",
          "type": "bool"
        }
      ],
      "stateMutability": "view",
      "type": "function"
    },
    {
      "inputs": [
        {
          "internalType": "uint256",
          "name": "_mfg",
          "type": "uint256"
        },
        {
          "internalType": "string",
          "name": "_model",
          "type": "string"
        },
        {
          "internalType": "uint256",
          "name": "_price",
          "type": "uint256"
        },
        {
          "internalType": "uint256",
          "name": "_mrp",
          "type": "uint256"
        }
      ],
      "name": "createProduct",
      "outputs": [],
      "stateMutability": "nonpayable",
      "type": "function"
    },
    {
      "inputs": [],
      "name": "productCount",
      "outputs": [
        {
          "internalType": "uint256",
          "name": "",
          "type": "uint256"
        }
      ],
      "stateMutability": "view",
      "type": "function"
    }
  ],
  "bytecode": "0x608060405234801561001057600080fd5b506110e3806100206000396000f3fe608060405234801561001057600080fd5b506004361061009e5760003560e01c80638eb05f88116100665780638eb05f881461018d57806393a2abdd146101a2578063e0f6ef87146101b4578063e3acfcce146101bc578063f4a44d2d146101cf57600080fd5b80630349da7e146100a357806316cba8ec146100d3578063420fadc81461011d5780635b7fd9b5146101465780637acc0b2014610168575b600080fd5b6100b66100b1366004610c16565b6101e2565b6040516001600160a01b0390911681526020015b60405180910390f35b6101086100e1366004610c4b565b60036020908152600092835260408084209091529082529020805460019091015460ff1682565b604080519283529015156020830152016100ca565b6100b661012b366004610c16565b6005602052600090815260409020546001600160a01b031681565b610159610154366004610c7e565b61020c565b6040516100ca93929190610cfc565b61017b610176366004610c16565b61033e565b6040516100ca96959493929190610d32565b6101a061019b366004610c7e565b61041c565b005b6002545b6040519081526020016100ca565b6004546101a6565b6101a06101ca366004610e20565b6105f9565b6101a06101dd366004610e84565b610875565b600281815481106101f257600080fd5b6000918252602090912001546001600160a01b0316905081565b60006020819052908152604090208054819061022790610edb565b80601f016020809104026020016040519081016040528092919081815260200182805461025390610edb565b80156102a05780601f10610275576101008083540402835291602001916102a0565b820191906000526020600020905b81548152906001019060200180831161028357829003601f168201915b5050505050908060010180546102b590610edb565b80601f01602080910402602001604051908101604052809291908181526020018280546102e190610edb565b801561032e5780601f106103035761010080835404028352916020019161032e565b820191906000526020600020905b81548152906001019060200180831161031157829003601f168201915b5050505050908060020154905083565b6004818154811061034e57600080fd5b6000918252602090912060069091020180546001820180546001600160a01b0390921693509061037d90610edb565b80601f01602080910402602001604051908101604052809291908181526020018280546103a990610edb565b80156103f65780601f106103cb576101008083540402835291602001916103f6565b820191906000526020600020905b8154815290600101906020018083116103d957829003601f168201915b505050506002830154600384015460048501546005909501549394919390925060ff1686565b3360009081526003602090815260408083206001600160a01b038516845290915290205481906104c35760405162461bcd60e51b815260206004820152604160248201527f596f7520617265207265706f7274696e672061206272616e642062757420796f60448201527f7520646f6e742774206f776e20616e79206f6620697427732070726f647563746064820152607360f81b608482015260a4015b60405180910390fd5b3360009081526003602090815260408083206001600160a01b038516845290915290206001015460ff161561053a5760405162461bcd60e51b815260206004820152601e60248201527f596f752063616e2774207265706f72742061206272616e64207477696365000060448201526064016104ba565b3360009081526003602090815260408083206001600160a01b038616845282528083206001908101805460ff1916909117905590829052812060020180549161058283610f2c565b90915550506001600160a01b038216600090815260208190526040902060029081015411156105b4576105b482610aef565b604080516001600160a01b03841681523360208201527fe7747c1468ca696f832f20cb4db5f557554916e9035754b5b071c3b04a4decb8910160405180910390a15050565b336000908152602081905260408120805461061390610edb565b80601f016020809104026020016040519081016040528092919081815260200182805461063f90610edb565b801561068c5780601f106106615761010080835404028352916020019161068c565b820191906000526020600020905b81548152906001019060200180831161066f57829003601f168201915b5050505050905080516000146106f25760405162461bcd60e51b815260206004820152602560248201527f4f776e6572206861732061206272616e64206f6e207468652073616d6520616360448201526418dbdd5b9d60da1b60648201526084016104ba565b826001816040516107039190610f47565b9081526040519081900360200190205460ff16156107635760405162461bcd60e51b815260206004820152601960248201527f4272616e64204e616d6520416c7265616479204578697374730000000000000060448201526064016104ba565b60028054600181019091557f405787fa12a823e0f2b7631cc41b3ba8828b3321ca811111fa75cd3aa3bb5ace0180546001600160a01b031916339081179091556040805160608101825286815260208181018790526000828401819052938452838152919092208251805191926107df92849290910190610b7d565b5060208281015180516107f89260018501920190610b7d565b5060408201518160020155905050600180856040516108179190610f47565b908152604051908190036020018120805492151560ff19909316929092179091557fe6fbc010725b0b71430339ac30f684b21c0b685f04c99a05b107206a8c63a1fa906108679033908790610f63565b60405180910390a150505050565b336000818152602081905260408120805461088f90610edb565b80601f01602080910402602001604051908101604052809291908181526020018280546108bb90610edb565b80156109085780601f106108dd57610100808354040283529160200191610908565b820191906000526020600020905b8154815290600101906020018083116108eb57829003601f168201915b5050505050905060008151116109595760405162461bcd60e51b8152602060048201526016602482015275139bdd081848149959da5cdd195c995908109c985b9960521b60448201526064016104ba565b6040805160c08101825233815260208082018881529282018990526060820187905260808201869052600160a0830181905260048054918201815560005282517f8a35acfbc15ff81a39ae7d344fd709f28e8600b4aa8c65c6b64bfe7fe36bd19b600690920291820180546001600160a01b0319166001600160a01b0390921691909117815593518051939493610a19937f8a35acfbc15ff81a39ae7d344fd709f28e8600b4aa8c65c6b64bfe7fe36bd19c909301929190910190610b7d565b506040820151600282015560608201516003820155608082015160048083019190915560a0909201516005909101805460ff191691151591909117905554600090610a6690600190610f8f565b600081815260056020908152604080832080546001600160a01b031916339081179091558352600382528083209091528120805492935090610aa783610f2c565b90915550506040805133815242602082015282917fa119589d8d9d80f8c531968021b54e16e57f459b696c6e16dc14f622a373061b910160405180910390a250505050505050565b6001600160a01b038116600090815260208190526040908190209051600191610b1791610fa6565b908152604080519182900360209081018320805460ff191690556001600160a01b038416600090815290819052207f8a36be64cb775ce9b5064fb7f6e835793bfff4f4a873dee5d16268132033852f91610b72918491611018565b60405180910390a150565b828054610b8990610edb565b90600052602060002090601f016020900481019282610bab5760008555610bf1565b82601f10610bc457805160ff1916838001178555610bf1565b82800160010185558215610bf1579182015b82811115610bf1578251825591602001919060010190610bd6565b50610bfd929150610c01565b5090565b5b80821115610bfd5760008155600101610c02565b600060208284031215610c2857600080fd5b5035919050565b80356001600160a01b0381168114610c4657600080fd5b919050565b60008060408385031215610c5e57600080fd5b610c6783610c2f565b9150610c7560208401610c2f565b90509250929050565b600060208284031215610c9057600080fd5b610c9982610c2f565b9392505050565b60005b83811015610cbb578181015183820152602001610ca3565b83811115610cca576000848401525b50505050565b60008151808452610ce8816020860160208601610ca0565b601f01601f19169290920160200192915050565b606081526000610d0f6060830186610cd0565b8281036020840152610d218186610cd0565b915050826040830152949350505050565b6001600160a01b038716815260c060208201819052600090610d5690830188610cd0565b905085604083015284606083015283608083015282151560a0830152979650505050505050565b634e487b7160e01b600052604160045260246000fd5b600082601f830112610da457600080fd5b813567ffffffffffffffff80821115610dbf57610dbf610d7d565b604051601f8301601f19908116603f01168101908282118183101715610de757610de7610d7d565b81604052838152866020858801011115610e0057600080fd5b836020870160208301376000602085830101528094505050505092915050565b60008060408385031215610e3357600080fd5b823567ffffffffffffffff80821115610e4b57600080fd5b610e5786838701610d93565b93506020850135915080821115610e6d57600080fd5b50610e7a85828601610d93565b9150509250929050565b60008060008060808587031215610e9a57600080fd5b84359350602085013567ffffffffffffffff811115610eb857600080fd5b610ec487828801610d93565b949794965050505060408301359260600135919050565b600181811c90821680610eef57607f821691505b60208210811415610f1057634e487b7160e01b600052602260045260246000fd5b50919050565b634e487b7160e01b600052601160045260246000fd5b6000600019821415610f4057610f40610f16565b5060010190565b60008251610f59818460208701610ca0565b9190910192915050565b6001600160a01b0383168152604060208201819052600090610f8790830184610cd0565b949350505050565b600082821015610fa157610fa1610f16565b500390565b6000808354610fb481610edb565b60018281168015610fcc5760018114610fdd5761100c565b60ff1984168752828701945061100c565b8760005260208060002060005b858110156110035781548a820152908401908201610fea565b50505082870194505b50929695505050505050565b60018060a01b0383168152600060206040818401526000845461103a81610edb565b806040870152606060018084166000811461105c57600181146110705761109e565b60ff1985168984015260808901955061109e565b896000528660002060005b858110156110965781548b820186015290830190880161107b565b8a0184019650505b5093999850505050505050505056fea2646970667358221220efe49de314fe8c63a43157c1062f3877bbb36f9c7505598848af0e803adb078a64736f6c634300080c0033",
  "immutableReferences": {},
  "source": "// SPDX-License-Identifier: MIT\npragma solidity ^0.8.0;\n\nimport './Report.sol';\n\ncontract ProductFactory is Report {\n    struct Product {\n        address manufacturer;\n        string model;\n        uint256 mfg;\n        uint256 price;\n        uint256 mrp;\n        bool forSale;\n    }\n\n    Product[] public products;\n    mapping(uint256 => address) public productToOwner;\n\n    event ProductCreated(address _manufacturer, uint256 indexed _productId, uint256 _time);\n\n    modifier onlyProductOwner(uint256 _productId) {\n        require(\n            productToOwner[_productId] == msg.sender,\n            'Only Product Owner can perform this operation'\n        );\n        _;\n    }\n\n    modifier isValidPrice(uint256 _productId, uint256 _price) {\n        require(\n            _price <= products[_productId].mrp,\n            'Price must be less than MRP'\n        );\n        _;\n    }\n\n    modifier isAvailableForSale(uint256 _productId) {\n        require(\n            products[_productId].forSale == true,\n            'The product is not available for sale'\n        );\n        _;\n    }\n\n    function createProduct(\n        uint256 _mfg,\n        string memory _model,\n        uint256 _price,\n        uint256 _mrp\n    ) public checkBrand(msg.sender) {\n        products.push(Product(msg.sender, _model, _mfg, _price, _mrp, true));\n        uint256 _productId = products.length - 1;\n        productToOwner[_productId] = msg.sender;\n        userBrand[msg.sender][msg.sender].productCount++;\n        emit ProductCreated(msg.sender, _productId, block.timestamp);\n    }\n\n    function productCount() public view returns (uint256) {\n        return products.length;\n    }\n}\n",
  "sourcePath": "/mnt/B66886FF6886BE1D/Block Chain/Fake Product Identification System/BuySafe/contracts/ProductFactory.sol",
  "compiler": {
    "name": "solc",
    "version": "0.8.12+commit.f00d7308.Emscripten.clang"
  },
  "schemaVersion": "3.4.5",
  "updatedAt": "2022-03-17T12:33:37.457Z",
  "devdoc": {
    "kind": "dev",
    "methods": {},
    "version": 1
  },
  "userdoc": {
    "kind": "user",
    "methods": {},
    "version": 1
  }
}