{
  "contractName": "ProductFactory",
  "abi": [
    {
      "anonymous": false,
      "inputs": [
        {
          "indexed": false,
          "internalType": "address",
          "name": "_owner",
          "type": "address"
        },
        {
          "indexed": false,
          "internalType": "string",
          "name": "_brandName",
          "type": "string"
        }
      ],
      "name": "BrandCreated",
      "type": "event"
    },
    {
      "anonymous": false,
      "inputs": [
        {
          "indexed": false,
          "internalType": "address",
          "name": "_manufacturer",
          "type": "address"
        },
        {
          "indexed": false,
          "internalType": "uint256",
          "name": "_productId",
          "type": "uint256"
        }
      ],
      "name": "ProductCreated",
      "type": "event"
    },
    {
      "inputs": [
        {
          "internalType": "address",
          "name": "",
          "type": "address"
        }
      ],
      "name": "brands",
      "outputs": [
        {
          "internalType": "string",
          "name": "",
          "type": "string"
        }
      ],
      "stateMutability": "view",
      "type": "function"
    },
    {
      "inputs": [
        {
          "internalType": "string",
          "name": "_brandName",
          "type": "string"
        }
      ],
      "name": "createBrand",
      "outputs": [],
      "stateMutability": "nonpayable",
      "type": "function"
    },
    {
      "inputs": [
        {
          "internalType": "uint256",
          "name": "",
          "type": "uint256"
        }
      ],
      "name": "productToOwner",
      "outputs": [
        {
          "internalType": "address",
          "name": "",
          "type": "address"
        }
      ],
      "stateMutability": "view",
      "type": "function"
    },
    {
      "inputs": [
        {
          "internalType": "uint256",
          "name": "",
          "type": "uint256"
        }
      ],
      "name": "products",
      "outputs": [
        {
          "internalType": "address",
          "name": "manufacturer",
          "type": "address"
        },
        {
          "internalType": "string",
          "name": "model",
          "type": "string"
        },
        {
          "internalType": "uint256",
          "name": "mfg",
          "type": "uint256"
        },
        {
          "internalType": "uint256",
          "name": "price",
          "type": "uint256"
        },
        {
          "internalType": "uint256",
          "name": "mrp",
          "type": "uint256"
        },
        {
          "internalType": "bool",
          "name": "forSale",
          "type": "bool"
        }
      ],
      "stateMutability": "view",
      "type": "function"
    },
    {
      "inputs": [
        {
          "internalType": "uint256",
          "name": "_mfg",
          "type": "uint256"
        },
        {
          "internalType": "string",
          "name": "_model",
          "type": "string"
        },
        {
          "internalType": "uint256",
          "name": "_price",
          "type": "uint256"
        },
        {
          "internalType": "uint256",
          "name": "_mrp",
          "type": "uint256"
        }
      ],
      "name": "createProduct",
      "outputs": [],
      "stateMutability": "nonpayable",
      "type": "function"
    },
    {
      "inputs": [],
      "name": "productCount",
      "outputs": [
        {
          "internalType": "uint256",
          "name": "",
          "type": "uint256"
        }
      ],
      "stateMutability": "view",
      "type": "function"
    }
  ],
  "bytecode": "0x608060405234801561001057600080fd5b50610aa0806100206000396000f3fe608060405234801561001057600080fd5b50600436106100625760003560e01c806314a8489014610067578063420fadc81461007c5780635b7fd9b5146100c25780637acc0b20146100e2578063e0f6ef8714610107578063f4a44d2d14610118575b600080fd5b61007a610075366004610833565b61012b565b005b6100a561008a366004610870565b6003602052600090815260409020546001600160a01b031681565b6040516001600160a01b0390911681526020015b60405180910390f35b6100d56100d0366004610889565b610327565b6040516100b99190610915565b6100f56100f0366004610870565b6103c1565b6040516100b996959493929190610928565b6002546040519081526020016100b9565b61007a610126366004610973565b61049f565b3360009081526020819052604081208054610145906109ca565b80601f0160208091040260200160405190810160405280929190818152602001828054610171906109ca565b80156101be5780601f10610193576101008083540402835291602001916101be565b820191906000526020600020905b8154815290600101906020018083116101a157829003601f168201915b5050505050905080516000146102295760405162461bcd60e51b815260206004820152602560248201527f4f776e6572206861732061206272616e64206f6e207468652073616d6520616360448201526418dbdd5b9d60da1b60648201526084015b60405180910390fd5b8160018160405161023a9190610a05565b9081526040519081900360200190205460ff161561029a5760405162461bcd60e51b815260206004820152601960248201527f4272616e64204e616d6520416c726561647920457869737473000000000000006044820152606401610220565b3360009081526020818152604090912084516102b8928601906106f7565b50600180846040516102ca9190610a05565b908152604051908190036020018120805492151560ff19909316929092179091557fe6fbc010725b0b71430339ac30f684b21c0b685f04c99a05b107206a8c63a1fa9061031a9033908690610a21565b60405180910390a1505050565b60006020819052908152604090208054610340906109ca565b80601f016020809104026020016040519081016040528092919081815260200182805461036c906109ca565b80156103b95780601f1061038e576101008083540402835291602001916103b9565b820191906000526020600020905b81548152906001019060200180831161039c57829003601f168201915b505050505081565b600281815481106103d157600080fd5b6000918252602090912060069091020180546001820180546001600160a01b03909216935090610400906109ca565b80601f016020809104026020016040519081016040528092919081815260200182805461042c906109ca565b80156104795780601f1061044e57610100808354040283529160200191610479565b820191906000526020600020905b81548152906001019060200180831161045c57829003601f168201915b505050506002830154600384015460048501546005909501549394919390925060ff1686565b33600081815260208190526040812080546104b9906109ca565b80601f01602080910402602001604051908101604052809291908181526020018280546104e5906109ca565b80156105325780601f1061050757610100808354040283529160200191610532565b820191906000526020600020905b81548152906001019060200180831161051557829003601f168201915b5050505050905060008151116105835760405162461bcd60e51b8152602060048201526016602482015275139bdd081848149959da5cdd195c995908109c985b9960521b6044820152606401610220565b6040805160c08101825233815260208082018881529282018990526060820187905260808201869052600160a0830181905260028054918201815560005282517f405787fa12a823e0f2b7631cc41b3ba8828b3321ca811111fa75cd3aa3bb5ace600690920291820180546001600160a01b0319166001600160a01b0390921691909117815593518051939493610643937f405787fa12a823e0f2b7631cc41b3ba8828b3321ca811111fa75cd3aa3bb5acf9093019291909101906106f7565b506040820151600282810191909155606083015160038301556080830151600483015560a0909201516005909101805460ff19169115159190911790555460009061069090600190610a45565b60008181526003602090815260409182902080546001600160a01b0319163390811790915582519081529081018390529192507f982bb66d9aa60573bc0a2066122e1466ecbc4c179a5e7c1c5b589345008ce69a910160405180910390a150505050505050565b828054610703906109ca565b90600052602060002090601f016020900481019282610725576000855561076b565b82601f1061073e57805160ff191683800117855561076b565b8280016001018555821561076b579182015b8281111561076b578251825591602001919060010190610750565b5061077792915061077b565b5090565b5b80821115610777576000815560010161077c565b634e487b7160e01b600052604160045260246000fd5b600082601f8301126107b757600080fd5b813567ffffffffffffffff808211156107d2576107d2610790565b604051601f8301601f19908116603f011681019082821181831017156107fa576107fa610790565b8160405283815286602085880101111561081357600080fd5b836020870160208301376000602085830101528094505050505092915050565b60006020828403121561084557600080fd5b813567ffffffffffffffff81111561085c57600080fd5b610868848285016107a6565b949350505050565b60006020828403121561088257600080fd5b5035919050565b60006020828403121561089b57600080fd5b81356001600160a01b03811681146108b257600080fd5b9392505050565b60005b838110156108d45781810151838201526020016108bc565b838111156108e3576000848401525b50505050565b600081518084526109018160208601602086016108b9565b601f01601f19169290920160200192915050565b6020815260006108b260208301846108e9565b6001600160a01b038716815260c06020820181905260009061094c908301886108e9565b905085604083015284606083015283608083015282151560a0830152979650505050505050565b6000806000806080858703121561098957600080fd5b84359350602085013567ffffffffffffffff8111156109a757600080fd5b6109b3878288016107a6565b949794965050505060408301359260600135919050565b600181811c908216806109de57607f821691505b602082108114156109ff57634e487b7160e01b600052602260045260246000fd5b50919050565b60008251610a178184602087016108b9565b9190910192915050565b6001600160a01b0383168152604060208201819052600090610868908301846108e9565b600082821015610a6557634e487b7160e01b600052601160045260246000fd5b50039056fea2646970667358221220bc8bb530858a9506d6d3c2a037cd22bf18eaa2609160a935cfc862c79c756cf064736f6c634300080c0033",
  "immutableReferences": {},
  "source": "// SPDX-License-Identifier: MIT\npragma solidity ^0.8.0;\n\nimport './Brand.sol';\n\ncontract ProductFactory is Brand {\n    struct Product {\n        address manufacturer;\n        string model;\n        uint256 mfg;\n        uint256 price;\n        uint256 mrp;\n        bool forSale;\n    }\n\n    Product[] public products;\n    mapping(uint256 => address) public productToOwner;\n\n    event ProductCreated(address _manufacturer, uint256 _productId);\n\n    modifier onlyProductOwner(uint256 _productId) {\n        require(\n            productToOwner[_productId] == msg.sender,\n            'Only Product Owner can perform this operation'\n        );\n        _;\n    }\n\n    modifier isValidPrice(uint256 _productId, uint256 _price) {\n        require(\n            _price <= products[_productId].mrp,\n            'Price must be less than MRP'\n        );\n        _;\n    }\n\n    modifier isAvailableForSale(uint256 _productId) {\n        require(\n            products[_productId].forSale == true,\n            'The product is not available for sale'\n        );\n        _;\n    }\n\n    function createProduct(\n        uint256 _mfg,\n        string memory _model,\n        uint256 _price,\n        uint256 _mrp\n    ) public checkBrand(msg.sender) {\n        products.push(Product(msg.sender, _model, _mfg, _price, _mrp, true));\n        uint256 _productId = products.length - 1;\n        productToOwner[_productId] = msg.sender;\n        emit ProductCreated(msg.sender, _productId);\n    }\n\n    function productCount() public view returns (uint256) {\n        return products.length;\n    }\n}\n",
  "sourcePath": "/mnt/B66886FF6886BE1D/Block Chain/Fake Product Identification System/BuySafe/contracts/ProductFactory.sol",
  "compiler": {
    "name": "solc",
    "version": "0.8.12+commit.f00d7308.Emscripten.clang"
  },
  "schemaVersion": "3.4.5",
  "updatedAt": "2022-03-13T13:12:58.848Z",
  "devdoc": {
    "kind": "dev",
    "methods": {},
    "version": 1
  },
  "userdoc": {
    "kind": "user",
    "methods": {},
    "version": 1
  }
}