{
  "contractName": "Report",
  "abi": [
    {
      "anonymous": false,
      "inputs": [
        {
          "indexed": false,
          "internalType": "address",
          "name": "_owner",
          "type": "address"
        },
        {
          "indexed": false,
          "internalType": "string",
          "name": "_brandName",
          "type": "string"
        }
      ],
      "name": "BrandCreated",
      "type": "event"
    },
    {
      "anonymous": false,
      "inputs": [
        {
          "indexed": false,
          "internalType": "address",
          "name": "_owner",
          "type": "address"
        },
        {
          "indexed": false,
          "internalType": "string",
          "name": "_brandName",
          "type": "string"
        }
      ],
      "name": "BrandDeleted",
      "type": "event"
    },
    {
      "anonymous": false,
      "inputs": [
        {
          "indexed": false,
          "internalType": "address",
          "name": "_brandOwner",
          "type": "address"
        },
        {
          "indexed": false,
          "internalType": "address",
          "name": "_revokedBy",
          "type": "address"
        }
      ],
      "name": "brandReportRevoved",
      "type": "event"
    },
    {
      "anonymous": false,
      "inputs": [
        {
          "indexed": false,
          "internalType": "address",
          "name": "_brandOwner",
          "type": "address"
        },
        {
          "indexed": false,
          "internalType": "address",
          "name": "_reportedBy",
          "type": "address"
        }
      ],
      "name": "brandReported",
      "type": "event"
    },
    {
      "inputs": [
        {
          "internalType": "uint256",
          "name": "",
          "type": "uint256"
        }
      ],
      "name": "brandOwners",
      "outputs": [
        {
          "internalType": "address",
          "name": "",
          "type": "address"
        }
      ],
      "stateMutability": "view",
      "type": "function"
    },
    {
      "inputs": [
        {
          "internalType": "address",
          "name": "",
          "type": "address"
        }
      ],
      "name": "brands",
      "outputs": [
        {
          "internalType": "string",
          "name": "brandName",
          "type": "string"
        },
        {
          "internalType": "string",
          "name": "logo",
          "type": "string"
        },
        {
          "internalType": "uint256",
          "name": "reports",
          "type": "uint256"
        }
      ],
      "stateMutability": "view",
      "type": "function"
    },
    {
      "inputs": [
        {
          "internalType": "string",
          "name": "_brandName",
          "type": "string"
        },
        {
          "internalType": "string",
          "name": "_logo",
          "type": "string"
        }
      ],
      "name": "createBrand",
      "outputs": [],
      "stateMutability": "nonpayable",
      "type": "function"
    },
    {
      "inputs": [],
      "name": "getBrandsLength",
      "outputs": [
        {
          "internalType": "uint256",
          "name": "",
          "type": "uint256"
        }
      ],
      "stateMutability": "view",
      "type": "function"
    },
    {
      "inputs": [
        {
          "internalType": "address",
          "name": "",
          "type": "address"
        },
        {
          "internalType": "address",
          "name": "",
          "type": "address"
        }
      ],
      "name": "userBrand",
      "outputs": [
        {
          "internalType": "uint256",
          "name": "productCount",
          "type": "uint256"
        },
        {
          "internalType": "bool",
          "name": "hasReported",
          "type": "bool"
        }
      ],
      "stateMutability": "view",
      "type": "function"
    },
    {
      "inputs": [
        {
          "internalType": "address",
          "name": "_brandOwner",
          "type": "address"
        }
      ],
      "name": "reportBrand",
      "outputs": [],
      "stateMutability": "nonpayable",
      "type": "function"
    },
    {
      "inputs": [
        {
          "internalType": "address",
          "name": "_brandOwner",
          "type": "address"
        },
        {
          "internalType": "address",
          "name": "_caller",
          "type": "address"
        }
      ],
      "name": "canIReport",
      "outputs": [
        {
          "internalType": "bool",
          "name": "canI",
          "type": "bool"
        },
        {
          "internalType": "string",
          "name": "reason",
          "type": "string"
        }
      ],
      "stateMutability": "view",
      "type": "function"
    }
  ],
  "bytecode": "0x608060405234801561001057600080fd5b50610d6a806100206000396000f3fe608060405234801561001057600080fd5b506004361061007d5760003560e01c80638eb05f881161005b5780638eb05f881461011e57806393a2abdd14610133578063ca86c63714610144578063e3acfcce1461016557600080fd5b80630349da7e1461008257806316cba8ec146100b25780635b7fd9b5146100fc575b600080fd5b610095610090366004610943565b610178565b6040516001600160a01b0390911681526020015b60405180910390f35b6100e76100c0366004610978565b60036020908152600092835260408084209091529082529020805460019091015460ff1682565b604080519283529015156020830152016100a9565b61010f61010a3660046109ab565b6101a2565b6040516100a993929190610a29565b61013161012c3660046109ab565b6102d4565b005b6002546040519081526020016100a9565b610157610152366004610978565b6104b1565b6040516100a9929190610a5f565b610131610173366004610b25565b6105a0565b6002818154811061018857600080fd5b6000918252602090912001546001600160a01b0316905081565b6000602081905290815260409020805481906101bd90610b89565b80601f01602080910402602001604051908101604052809291908181526020018280546101e990610b89565b80156102365780601f1061020b57610100808354040283529160200191610236565b820191906000526020600020905b81548152906001019060200180831161021957829003601f168201915b50505050509080600101805461024b90610b89565b80601f016020809104026020016040519081016040528092919081815260200182805461027790610b89565b80156102c45780601f10610299576101008083540402835291602001916102c4565b820191906000526020600020905b8154815290600101906020018083116102a757829003601f168201915b5050505050908060020154905083565b3360009081526003602090815260408083206001600160a01b0385168452909152902054819061037b5760405162461bcd60e51b815260206004820152604160248201527f596f7520617265207265706f7274696e672061206272616e642062757420796f60448201527f7520646f6e742774206f776e20616e79206f6620697427732070726f647563746064820152607360f81b608482015260a4015b60405180910390fd5b3360009081526003602090815260408083206001600160a01b038516845290915290206001015460ff16156103f25760405162461bcd60e51b815260206004820152601e60248201527f596f752063616e2774207265706f72742061206272616e6420747769636500006044820152606401610372565b3360009081526003602090815260408083206001600160a01b038616845282528083206001908101805460ff1916909117905590829052812060020180549161043a83610bc4565b90915550506001600160a01b0382166000908152602081905260409020600290810154111561046c5761046c8261081c565b604080516001600160a01b03841681523360208201527fe7747c1468ca696f832f20cb4db5f557554916e9035754b5b071c3b04a4decb8910160405180910390a15050565b6001600160a01b03808216600090815260036020908152604080832093861683529290529081205460609061050f57505060408051808201909152600e81526d466972737420507572636861736560901b6020820152600090610599565b6001600160a01b03808416600090815260036020908152604080832093881683529290522060019081015460ff161515141561057657505060408051808201909152601081526f105b1c9958591e4814995c1bdc9d195960821b6020820152600090610599565b505060408051808201909152600681526514995c1bdc9d60d21b60208201526001905b9250929050565b33600090815260208190526040812080546105ba90610b89565b80601f01602080910402602001604051908101604052809291908181526020018280546105e690610b89565b80156106335780601f1061060857610100808354040283529160200191610633565b820191906000526020600020905b81548152906001019060200180831161061657829003601f168201915b5050505050905080516000146106995760405162461bcd60e51b815260206004820152602560248201527f4f776e6572206861732061206272616e64206f6e207468652073616d6520616360448201526418dbdd5b9d60da1b6064820152608401610372565b826001816040516106aa9190610bed565b9081526040519081900360200190205460ff161561070a5760405162461bcd60e51b815260206004820152601960248201527f4272616e64204e616d6520416c726561647920457869737473000000000000006044820152606401610372565b60028054600181019091557f405787fa12a823e0f2b7631cc41b3ba8828b3321ca811111fa75cd3aa3bb5ace0180546001600160a01b03191633908117909155604080516060810182528681526020818101879052600082840181905293845283815291909220825180519192610786928492909101906108aa565b50602082810151805161079f92600185019201906108aa565b5060408201518160020155905050600180856040516107be9190610bed565b908152604051908190036020018120805492151560ff19909316929092179091557fe6fbc010725b0b71430339ac30f684b21c0b685f04c99a05b107206a8c63a1fa9061080e9033908790610c09565b60405180910390a150505050565b6001600160a01b03811660009081526020819052604090819020905160019161084491610c2d565b908152604080519182900360209081018320805460ff191690556001600160a01b038416600090815290819052207f8a36be64cb775ce9b5064fb7f6e835793bfff4f4a873dee5d16268132033852f9161089f918491610c9f565b60405180910390a150565b8280546108b690610b89565b90600052602060002090601f0160209004810192826108d8576000855561091e565b82601f106108f157805160ff191683800117855561091e565b8280016001018555821561091e579182015b8281111561091e578251825591602001919060010190610903565b5061092a92915061092e565b5090565b5b8082111561092a576000815560010161092f565b60006020828403121561095557600080fd5b5035919050565b80356001600160a01b038116811461097357600080fd5b919050565b6000806040838503121561098b57600080fd5b6109948361095c565b91506109a26020840161095c565b90509250929050565b6000602082840312156109bd57600080fd5b6109c68261095c565b9392505050565b60005b838110156109e85781810151838201526020016109d0565b838111156109f7576000848401525b50505050565b60008151808452610a158160208601602086016109cd565b601f01601f19169290920160200192915050565b606081526000610a3c60608301866109fd565b8281036020840152610a4e81866109fd565b915050826040830152949350505050565b8215158152604060208201526000610a7a60408301846109fd565b949350505050565b634e487b7160e01b600052604160045260246000fd5b600082601f830112610aa957600080fd5b813567ffffffffffffffff80821115610ac457610ac4610a82565b604051601f8301601f19908116603f01168101908282118183101715610aec57610aec610a82565b81604052838152866020858801011115610b0557600080fd5b836020870160208301376000602085830101528094505050505092915050565b60008060408385031215610b3857600080fd5b823567ffffffffffffffff80821115610b5057600080fd5b610b5c86838701610a98565b93506020850135915080821115610b7257600080fd5b50610b7f85828601610a98565b9150509250929050565b600181811c90821680610b9d57607f821691505b60208210811415610bbe57634e487b7160e01b600052602260045260246000fd5b50919050565b6000600019821415610be657634e487b7160e01b600052601160045260246000fd5b5060010190565b60008251610bff8184602087016109cd565b9190910192915050565b6001600160a01b0383168152604060208201819052600090610a7a908301846109fd565b6000808354610c3b81610b89565b60018281168015610c535760018114610c6457610c93565b60ff19841687528287019450610c93565b8760005260208060002060005b85811015610c8a5781548a820152908401908201610c71565b50505082870194505b50929695505050505050565b60018060a01b03831681526000602060408184015260008454610cc181610b89565b8060408701526060600180841660008114610ce35760018114610cf757610d25565b60ff19851689840152608089019550610d25565b896000528660002060005b85811015610d1d5781548b8201860152908301908801610d02565b8a0184019650505b5093999850505050505050505056fea2646970667358221220214fed54e6a82ab425cf479f6bd308ab208296f528326bb53653669b24b0971664736f6c634300080c0033",
  "immutableReferences": {},
  "source": "// SPDX-License-Identifier: MIT\npragma solidity ^0.8.0;\nimport './Brand.sol';\n\ncontract Report is Brand {\n    struct ReportData {\n        uint256 productCount; // keeps the count of products of a particular brand a user has\n        bool hasReported;\n    }\n    event brandReported(address _brandOwner, address _reportedBy);\n    event brandReportRevoved(address _brandOwner, address _revokedBy);\n\n    mapping(address => mapping(address => ReportData)) public userBrand; // [user][brand] => details\n\n    modifier canReport(address _brandOwner) {\n        require(\n            userBrand[msg.sender][_brandOwner].productCount > 0,\n            \"You are reporting a brand but you dont't own any of it's products\"\n        );\n        require(\n            userBrand[msg.sender][_brandOwner].hasReported == false,\n            \"You can't report a brand twice\"\n        );\n        _;\n    }\n\n    function reportBrand(address _brandOwner) public canReport(_brandOwner) {\n        userBrand[msg.sender][_brandOwner].hasReported = true;\n        brands[_brandOwner].reports++;\n        if (brands[_brandOwner].reports > 2) deleteBrand(_brandOwner); // 2 is there ony to ease testing (will be increased in future)\n        emit brandReported(_brandOwner, msg.sender);\n    }\n\n    function revokeReport(address _brandOwner, address _revokedBy) internal {\n        brands[_brandOwner].reports--;\n        emit brandReportRevoved(_brandOwner, _revokedBy);\n    }\n\n    function canIReport(address _brandOwner, address _caller)\n        public\n        view\n        returns (bool canI, string memory reason)\n    {\n        if (userBrand[_caller][_brandOwner].productCount == 0)\n            return (false, 'First Purchase');\n        if (userBrand[_caller][_brandOwner].hasReported == true)\n            return (false, 'Already Reported');\n        return (true, 'Report');\n    }\n}\n",
  "sourcePath": "/mnt/B66886FF6886BE1D/Block Chain/Fake Product Identification System/BuySafe/contracts/Report.sol",
  "compiler": {
    "name": "solc",
    "version": "0.8.12+commit.f00d7308.Emscripten.clang"
  },
  "schemaVersion": "3.4.5",
  "updatedAt": "2022-03-20T19:49:13.450Z",
  "devdoc": {
    "kind": "dev",
    "methods": {},
    "version": 1
  },
  "userdoc": {
    "kind": "user",
    "methods": {},
    "version": 1
  }
}