{
  "contractName": "Report",
  "abi": [
    {
      "anonymous": false,
      "inputs": [
        {
          "indexed": false,
          "internalType": "address",
          "name": "_owner",
          "type": "address"
        },
        {
          "indexed": false,
          "internalType": "string",
          "name": "_brandName",
          "type": "string"
        }
      ],
      "name": "BrandCreated",
      "type": "event"
    },
    {
      "anonymous": false,
      "inputs": [
        {
          "indexed": false,
          "internalType": "address",
          "name": "_owner",
          "type": "address"
        },
        {
          "indexed": false,
          "internalType": "string",
          "name": "_brandName",
          "type": "string"
        }
      ],
      "name": "BrandDeleted",
      "type": "event"
    },
    {
      "anonymous": false,
      "inputs": [
        {
          "indexed": false,
          "internalType": "address",
          "name": "_brandOwner",
          "type": "address"
        },
        {
          "indexed": false,
          "internalType": "address",
          "name": "_revokedBy",
          "type": "address"
        }
      ],
      "name": "brandReportRevoved",
      "type": "event"
    },
    {
      "anonymous": false,
      "inputs": [
        {
          "indexed": false,
          "internalType": "address",
          "name": "_brandOwner",
          "type": "address"
        },
        {
          "indexed": false,
          "internalType": "address",
          "name": "_reportedBy",
          "type": "address"
        }
      ],
      "name": "brandReported",
      "type": "event"
    },
    {
      "inputs": [
        {
          "internalType": "uint256",
          "name": "",
          "type": "uint256"
        }
      ],
      "name": "brandOwners",
      "outputs": [
        {
          "internalType": "address",
          "name": "",
          "type": "address"
        }
      ],
      "stateMutability": "view",
      "type": "function"
    },
    {
      "inputs": [
        {
          "internalType": "address",
          "name": "",
          "type": "address"
        }
      ],
      "name": "brands",
      "outputs": [
        {
          "internalType": "string",
          "name": "brandName",
          "type": "string"
        },
        {
          "internalType": "string",
          "name": "logo",
          "type": "string"
        },
        {
          "internalType": "uint256",
          "name": "reports",
          "type": "uint256"
        }
      ],
      "stateMutability": "view",
      "type": "function"
    },
    {
      "inputs": [
        {
          "internalType": "string",
          "name": "_brandName",
          "type": "string"
        },
        {
          "internalType": "string",
          "name": "_logo",
          "type": "string"
        }
      ],
      "name": "createBrand",
      "outputs": [],
      "stateMutability": "nonpayable",
      "type": "function"
    },
    {
      "inputs": [],
      "name": "getBrandsLength",
      "outputs": [
        {
          "internalType": "uint256",
          "name": "",
          "type": "uint256"
        }
      ],
      "stateMutability": "view",
      "type": "function"
    },
    {
      "inputs": [
        {
          "internalType": "address",
          "name": "",
          "type": "address"
        },
        {
          "internalType": "address",
          "name": "",
          "type": "address"
        }
      ],
      "name": "userBrand",
      "outputs": [
        {
          "internalType": "uint256",
          "name": "productCount",
          "type": "uint256"
        },
        {
          "internalType": "bool",
          "name": "hasReported",
          "type": "bool"
        }
      ],
      "stateMutability": "view",
      "type": "function"
    },
    {
      "inputs": [
        {
          "internalType": "address",
          "name": "_brandOwner",
          "type": "address"
        }
      ],
      "name": "reportBrand",
      "outputs": [],
      "stateMutability": "nonpayable",
      "type": "function"
    }
  ],
  "bytecode": "0x608060405234801561001057600080fd5b50610c24806100206000396000f3fe608060405234801561001057600080fd5b50600436106100625760003560e01c80630349da7e1461006757806316cba8ec146100975780635b7fd9b5146100e15780638eb05f881461010357806393a2abdd14610118578063e3acfcce14610129575b600080fd5b61007a610075366004610818565b61013c565b6040516001600160a01b0390911681526020015b60405180910390f35b6100cc6100a536600461084d565b60036020908152600092835260408084209091529082529020805460019091015460ff1682565b6040805192835290151560208301520161008e565b6100f46100ef366004610880565b610166565b60405161008e939291906108fe565b610116610111366004610880565b610298565b005b60025460405190815260200161008e565b6101166101373660046109d7565b610475565b6002818154811061014c57600080fd5b6000918252602090912001546001600160a01b0316905081565b60006020819052908152604090208054819061018190610a3b565b80601f01602080910402602001604051908101604052809291908181526020018280546101ad90610a3b565b80156101fa5780601f106101cf576101008083540402835291602001916101fa565b820191906000526020600020905b8154815290600101906020018083116101dd57829003601f168201915b50505050509080600101805461020f90610a3b565b80601f016020809104026020016040519081016040528092919081815260200182805461023b90610a3b565b80156102885780601f1061025d57610100808354040283529160200191610288565b820191906000526020600020905b81548152906001019060200180831161026b57829003601f168201915b5050505050908060020154905083565b3360009081526003602090815260408083206001600160a01b0385168452909152902054819061033f5760405162461bcd60e51b815260206004820152604160248201527f596f7520617265207265706f7274696e672061206272616e642062757420796f60448201527f7520646f6e742774206f776e20616e79206f6620697427732070726f647563746064820152607360f81b608482015260a4015b60405180910390fd5b3360009081526003602090815260408083206001600160a01b038516845290915290206001015460ff16156103b65760405162461bcd60e51b815260206004820152601e60248201527f596f752063616e2774207265706f72742061206272616e6420747769636500006044820152606401610336565b3360009081526003602090815260408083206001600160a01b038616845282528083206001908101805460ff191690911790559082905281206002018054916103fe83610a76565b90915550506001600160a01b0382166000908152602081905260409020600290810154111561043057610430826106f1565b604080516001600160a01b03841681523360208201527fe7747c1468ca696f832f20cb4db5f557554916e9035754b5b071c3b04a4decb8910160405180910390a15050565b336000908152602081905260408120805461048f90610a3b565b80601f01602080910402602001604051908101604052809291908181526020018280546104bb90610a3b565b80156105085780601f106104dd57610100808354040283529160200191610508565b820191906000526020600020905b8154815290600101906020018083116104eb57829003601f168201915b50505050509050805160001461056e5760405162461bcd60e51b815260206004820152602560248201527f4f776e6572206861732061206272616e64206f6e207468652073616d6520616360448201526418dbdd5b9d60da1b6064820152608401610336565b8260018160405161057f9190610a9f565b9081526040519081900360200190205460ff16156105df5760405162461bcd60e51b815260206004820152601960248201527f4272616e64204e616d6520416c726561647920457869737473000000000000006044820152606401610336565b60028054600181019091557f405787fa12a823e0f2b7631cc41b3ba8828b3321ca811111fa75cd3aa3bb5ace0180546001600160a01b0319163390811790915560408051606081018252868152602081810187905260008284018190529384528381529190922082518051919261065b9284929091019061077f565b506020828101518051610674926001850192019061077f565b5060408201518160020155905050600180856040516106939190610a9f565b908152604051908190036020018120805492151560ff19909316929092179091557fe6fbc010725b0b71430339ac30f684b21c0b685f04c99a05b107206a8c63a1fa906106e39033908790610abb565b60405180910390a150505050565b6001600160a01b03811660009081526020819052604090819020905160019161071991610ae7565b908152604080519182900360209081018320805460ff191690556001600160a01b038416600090815290819052207f8a36be64cb775ce9b5064fb7f6e835793bfff4f4a873dee5d16268132033852f91610774918491610b59565b60405180910390a150565b82805461078b90610a3b565b90600052602060002090601f0160209004810192826107ad57600085556107f3565b82601f106107c657805160ff19168380011785556107f3565b828001600101855582156107f3579182015b828111156107f35782518255916020019190600101906107d8565b506107ff929150610803565b5090565b5b808211156107ff5760008155600101610804565b60006020828403121561082a57600080fd5b5035919050565b80356001600160a01b038116811461084857600080fd5b919050565b6000806040838503121561086057600080fd5b61086983610831565b915061087760208401610831565b90509250929050565b60006020828403121561089257600080fd5b61089b82610831565b9392505050565b60005b838110156108bd5781810151838201526020016108a5565b838111156108cc576000848401525b50505050565b600081518084526108ea8160208601602086016108a2565b601f01601f19169290920160200192915050565b60608152600061091160608301866108d2565b828103602084015261092381866108d2565b915050826040830152949350505050565b634e487b7160e01b600052604160045260246000fd5b600082601f83011261095b57600080fd5b813567ffffffffffffffff8082111561097657610976610934565b604051601f8301601f19908116603f0116810190828211818310171561099e5761099e610934565b816040528381528660208588010111156109b757600080fd5b836020870160208301376000602085830101528094505050505092915050565b600080604083850312156109ea57600080fd5b823567ffffffffffffffff80821115610a0257600080fd5b610a0e8683870161094a565b93506020850135915080821115610a2457600080fd5b50610a318582860161094a565b9150509250929050565b600181811c90821680610a4f57607f821691505b60208210811415610a7057634e487b7160e01b600052602260045260246000fd5b50919050565b6000600019821415610a9857634e487b7160e01b600052601160045260246000fd5b5060010190565b60008251610ab18184602087016108a2565b9190910192915050565b6001600160a01b0383168152604060208201819052600090610adf908301846108d2565b949350505050565b6000808354610af581610a3b565b60018281168015610b0d5760018114610b1e57610b4d565b60ff19841687528287019450610b4d565b8760005260208060002060005b85811015610b445781548a820152908401908201610b2b565b50505082870194505b50929695505050505050565b60018060a01b03831681526000602060408184015260008454610b7b81610a3b565b8060408701526060600180841660008114610b9d5760018114610bb157610bdf565b60ff19851689840152608089019550610bdf565b896000528660002060005b85811015610bd75781548b8201860152908301908801610bbc565b8a0184019650505b5093999850505050505050505056fea264697066735822122050d7cebd0b939bcbda0cf1ca077abf26fb97d3a7f8234574fb5b8dd95466363364736f6c634300080c0033",
  "immutableReferences": {},
  "source": "// SPDX-License-Identifier: MIT\npragma solidity ^0.8.0;\nimport './Brand.sol';\n\ncontract Report is Brand {\n    struct ReportData {\n        uint256 productCount; // keeps the count of products of a particular brand a user has\n        bool hasReported;\n    }\n    event brandReported(address _brandOwner, address _reportedBy);\n    event brandReportRevoved(address _brandOwner, address _revokedBy);\n\n    mapping(address => mapping(address => ReportData)) public userBrand; // [user][brand] => details\n\n    modifier canReport(address _brandOwner) {\n        require(\n            userBrand[msg.sender][_brandOwner].productCount > 0,\n            \"You are reporting a brand but you dont't own any of it's products\"\n        );\n        require(\n            userBrand[msg.sender][_brandOwner].hasReported == false,\n            \"You can't report a brand twice\"\n        );\n        _;\n    }\n\n    function reportBrand(address _brandOwner) public canReport(_brandOwner) {\n        userBrand[msg.sender][_brandOwner].hasReported = true;\n        brands[_brandOwner].reports++;\n        if (brands[_brandOwner].reports > 2) deleteBrand(_brandOwner); // 2 is there ony to ease testing (will be increased in future)\n        emit brandReported(_brandOwner, msg.sender);\n    }\n\n    function revokeReport(address _brandOwner, address _revokedBy) internal {\n        brands[_brandOwner].reports--;\n        emit brandReportRevoved(_brandOwner, _revokedBy);\n    }\n}\n",
  "sourcePath": "/mnt/B66886FF6886BE1D/Block Chain/Fake Product Identification System/BuySafe/contracts/Report.sol",
  "compiler": {
    "name": "solc",
    "version": "0.8.12+commit.f00d7308.Emscripten.clang"
  },
  "schemaVersion": "3.4.5",
  "updatedAt": "2022-03-16T15:16:11.839Z",
  "devdoc": {
    "kind": "dev",
    "methods": {},
    "version": 1
  },
  "userdoc": {
    "kind": "user",
    "methods": {},
    "version": 1
  }
}