{
  "contractName": "Report",
  "abi": [
    {
      "anonymous": false,
      "inputs": [
        {
          "indexed": false,
          "internalType": "address",
          "name": "_owner",
          "type": "address"
        },
        {
          "indexed": false,
          "internalType": "string",
          "name": "_brandName",
          "type": "string"
        }
      ],
      "name": "BrandCreated",
      "type": "event"
    },
    {
      "anonymous": false,
      "inputs": [
        {
          "indexed": false,
          "internalType": "address",
          "name": "_owner",
          "type": "address"
        },
        {
          "indexed": false,
          "internalType": "string",
          "name": "_brandName",
          "type": "string"
        }
      ],
      "name": "BrandDeleted",
      "type": "event"
    },
    {
      "anonymous": false,
      "inputs": [
        {
          "indexed": false,
          "internalType": "address",
          "name": "_brandOwner",
          "type": "address"
        },
        {
          "indexed": false,
          "internalType": "address",
          "name": "_revokedBy",
          "type": "address"
        }
      ],
      "name": "brandReportRevoved",
      "type": "event"
    },
    {
      "anonymous": false,
      "inputs": [
        {
          "indexed": false,
          "internalType": "address",
          "name": "_brandOwner",
          "type": "address"
        },
        {
          "indexed": false,
          "internalType": "address",
          "name": "_reportedBy",
          "type": "address"
        }
      ],
      "name": "brandReported",
      "type": "event"
    },
    {
      "inputs": [
        {
          "internalType": "address",
          "name": "",
          "type": "address"
        }
      ],
      "name": "brands",
      "outputs": [
        {
          "internalType": "string",
          "name": "brandName",
          "type": "string"
        },
        {
          "internalType": "string",
          "name": "logo",
          "type": "string"
        },
        {
          "internalType": "uint256",
          "name": "reports",
          "type": "uint256"
        }
      ],
      "stateMutability": "view",
      "type": "function"
    },
    {
      "inputs": [
        {
          "internalType": "string",
          "name": "_brandName",
          "type": "string"
        },
        {
          "internalType": "string",
          "name": "_logo",
          "type": "string"
        }
      ],
      "name": "createBrand",
      "outputs": [],
      "stateMutability": "nonpayable",
      "type": "function"
    },
    {
      "inputs": [],
      "name": "getBrandsLength",
      "outputs": [
        {
          "internalType": "uint256",
          "name": "",
          "type": "uint256"
        }
      ],
      "stateMutability": "view",
      "type": "function"
    },
    {
      "inputs": [
        {
          "internalType": "address",
          "name": "",
          "type": "address"
        },
        {
          "internalType": "address",
          "name": "",
          "type": "address"
        }
      ],
      "name": "userBrand",
      "outputs": [
        {
          "internalType": "uint256",
          "name": "productCount",
          "type": "uint256"
        },
        {
          "internalType": "bool",
          "name": "hasReported",
          "type": "bool"
        }
      ],
      "stateMutability": "view",
      "type": "function"
    },
    {
      "inputs": [
        {
          "internalType": "address",
          "name": "_brandOwner",
          "type": "address"
        }
      ],
      "name": "reportBrand",
      "outputs": [],
      "stateMutability": "nonpayable",
      "type": "function"
    }
  ],
  "bytecode": "0x608060405234801561001057600080fd5b50610bab806100206000396000f3fe608060405234801561001057600080fd5b50600436106100575760003560e01c806316cba8ec1461005c5780635b7fd9b5146100ab5780638eb05f88146100cd57806393a2abdd146100e2578063e3acfcce146100f3575b600080fd5b61009161006a3660046107d4565b60036020908152600092835260408084209091529082529020805460019091015460ff1682565b604080519283529015156020830152015b60405180910390f35b6100be6100b9366004610807565b610106565b6040516100a293929190610885565b6100e06100db366004610807565b610238565b005b6002546040519081526020016100a2565b6100e061010136600461095e565b610415565b600060208190529081526040902080548190610121906109c2565b80601f016020809104026020016040519081016040528092919081815260200182805461014d906109c2565b801561019a5780601f1061016f5761010080835404028352916020019161019a565b820191906000526020600020905b81548152906001019060200180831161017d57829003601f168201915b5050505050908060010180546101af906109c2565b80601f01602080910402602001604051908101604052809291908181526020018280546101db906109c2565b80156102285780601f106101fd57610100808354040283529160200191610228565b820191906000526020600020905b81548152906001019060200180831161020b57829003601f168201915b5050505050908060020154905083565b3360009081526003602090815260408083206001600160a01b038516845290915290205481906102df5760405162461bcd60e51b815260206004820152604160248201527f596f7520617265207265706f7274696e672061206272616e642062757420796f60448201527f7520646f6e742774206f776e20616e79206f6620697427732070726f647563746064820152607360f81b608482015260a4015b60405180910390fd5b3360009081526003602090815260408083206001600160a01b038516845290915290206001015460ff16156103565760405162461bcd60e51b815260206004820152601e60248201527f596f752063616e2774207265706f72742061206272616e64207477696365000060448201526064016102d6565b3360009081526003602090815260408083206001600160a01b038616845282528083206001908101805460ff1916909117905590829052812060020180549161039e836109fd565b90915550506001600160a01b038216600090815260208190526040902060029081015411156103d0576103d082610691565b604080516001600160a01b03841681523360208201527fe7747c1468ca696f832f20cb4db5f557554916e9035754b5b071c3b04a4decb8910160405180910390a15050565b336000908152602081905260408120805461042f906109c2565b80601f016020809104026020016040519081016040528092919081815260200182805461045b906109c2565b80156104a85780601f1061047d576101008083540402835291602001916104a8565b820191906000526020600020905b81548152906001019060200180831161048b57829003601f168201915b50505050509050805160001461050e5760405162461bcd60e51b815260206004820152602560248201527f4f776e6572206861732061206272616e64206f6e207468652073616d6520616360448201526418dbdd5b9d60da1b60648201526084016102d6565b8260018160405161051f9190610a26565b9081526040519081900360200190205460ff161561057f5760405162461bcd60e51b815260206004820152601960248201527f4272616e64204e616d6520416c7265616479204578697374730000000000000060448201526064016102d6565b60028054600181019091557f405787fa12a823e0f2b7631cc41b3ba8828b3321ca811111fa75cd3aa3bb5ace0180546001600160a01b031916339081179091556040805160608101825286815260208181018790526000828401819052938452838152919092208251805191926105fb9284929091019061071f565b506020828101518051610614926001850192019061071f565b5060408201518160020155905050600180856040516106339190610a26565b908152604051908190036020018120805492151560ff19909316929092179091557fe6fbc010725b0b71430339ac30f684b21c0b685f04c99a05b107206a8c63a1fa906106839033908790610a42565b60405180910390a150505050565b6001600160a01b0381166000908152602081905260409081902090516001916106b991610a6e565b908152604080519182900360209081018320805460ff191690556001600160a01b038416600090815290819052207f8a36be64cb775ce9b5064fb7f6e835793bfff4f4a873dee5d16268132033852f91610714918491610ae0565b60405180910390a150565b82805461072b906109c2565b90600052602060002090601f01602090048101928261074d5760008555610793565b82601f1061076657805160ff1916838001178555610793565b82800160010185558215610793579182015b82811115610793578251825591602001919060010190610778565b5061079f9291506107a3565b5090565b5b8082111561079f57600081556001016107a4565b80356001600160a01b03811681146107cf57600080fd5b919050565b600080604083850312156107e757600080fd5b6107f0836107b8565b91506107fe602084016107b8565b90509250929050565b60006020828403121561081957600080fd5b610822826107b8565b9392505050565b60005b8381101561084457818101518382015260200161082c565b83811115610853576000848401525b50505050565b60008151808452610871816020860160208601610829565b601f01601f19169290920160200192915050565b6060815260006108986060830186610859565b82810360208401526108aa8186610859565b915050826040830152949350505050565b634e487b7160e01b600052604160045260246000fd5b600082601f8301126108e257600080fd5b813567ffffffffffffffff808211156108fd576108fd6108bb565b604051601f8301601f19908116603f01168101908282118183101715610925576109256108bb565b8160405283815286602085880101111561093e57600080fd5b836020870160208301376000602085830101528094505050505092915050565b6000806040838503121561097157600080fd5b823567ffffffffffffffff8082111561098957600080fd5b610995868387016108d1565b935060208501359150808211156109ab57600080fd5b506109b8858286016108d1565b9150509250929050565b600181811c908216806109d657607f821691505b602082108114156109f757634e487b7160e01b600052602260045260246000fd5b50919050565b6000600019821415610a1f57634e487b7160e01b600052601160045260246000fd5b5060010190565b60008251610a38818460208701610829565b9190910192915050565b6001600160a01b0383168152604060208201819052600090610a6690830184610859565b949350505050565b6000808354610a7c816109c2565b60018281168015610a945760018114610aa557610ad4565b60ff19841687528287019450610ad4565b8760005260208060002060005b85811015610acb5781548a820152908401908201610ab2565b50505082870194505b50929695505050505050565b60018060a01b03831681526000602060408184015260008454610b02816109c2565b8060408701526060600180841660008114610b245760018114610b3857610b66565b60ff19851689840152608089019550610b66565b896000528660002060005b85811015610b5e5781548b8201860152908301908801610b43565b8a0184019650505b5093999850505050505050505056fea26469706673582212208ee231802472cf661d7f9fefca9045d9ac01b866e863b4742abe6f5987270bf564736f6c634300080c0033",
  "immutableReferences": {},
  "source": "// SPDX-License-Identifier: MIT\npragma solidity ^0.8.0;\nimport './Brand.sol';\n\ncontract Report is Brand {\n    struct ReportData {\n        uint256 productCount; // keeps the count of products of a particular brand a user has\n        bool hasReported;\n    }\n    event brandReported(address _brandOwner, address _reportedBy);\n    event brandReportRevoved(address _brandOwner, address _revokedBy);\n\n    mapping(address => mapping(address => ReportData)) public userBrand; // [user][brand] => details\n\n    modifier canReport(address _brandOwner) {\n        require(\n            userBrand[msg.sender][_brandOwner].productCount > 0,\n            \"You are reporting a brand but you dont't own any of it's products\"\n        );\n        require(\n            userBrand[msg.sender][_brandOwner].hasReported == false,\n            \"You can't report a brand twice\"\n        );\n        _;\n    }\n\n    function reportBrand(address _brandOwner) public canReport(_brandOwner) {\n        userBrand[msg.sender][_brandOwner].hasReported = true;\n        brands[_brandOwner].reports++;\n        if (brands[_brandOwner].reports > 2) deleteBrand(_brandOwner); // 2 is there ony to ease testing (will be increased in future)\n        emit brandReported(_brandOwner, msg.sender);\n    }\n\n    function revokeReport(address _brandOwner, address _revokedBy) internal {\n        brands[_brandOwner].reports--;\n        emit brandReportRevoved(_brandOwner, _revokedBy);\n    }\n}\n",
  "sourcePath": "/mnt/B66886FF6886BE1D/Block Chain/Fake Product Identification System/BuySafe/contracts/Report.sol",
  "compiler": {
    "name": "solc",
    "version": "0.8.12+commit.f00d7308.Emscripten.clang"
  },
  "schemaVersion": "3.4.5",
  "updatedAt": "2022-03-16T11:47:12.839Z",
  "devdoc": {
    "kind": "dev",
    "methods": {},
    "version": 1
  },
  "userdoc": {
    "kind": "user",
    "methods": {},
    "version": 1
  }
}